{
  "_format": "hh-sol-artifact-1",
  "contractName": "EscrowFactory",
  "sourceName": "contracts/EscrowFactory.sol",
  "abi": [
    {
      "anonymous": false,
      "inputs": [
        {
          "indexed": true,
          "internalType": "address",
          "name": "escrow",
          "type": "address"
        },
        {
          "indexed": true,
          "internalType": "address",
          "name": "buyer",
          "type": "address"
        },
        {
          "indexed": true,
          "internalType": "address",
          "name": "seller",
          "type": "address"
        },
        {
          "indexed": false,
          "internalType": "enum HybridEscrow.EscrowType",
          "name": "escrowType",
          "type": "uint8"
        }
      ],
      "name": "EscrowCreated",
      "type": "event"
    },
    {
      "inputs": [
        {
          "internalType": "uint256",
          "name": "",
          "type": "uint256"
        }
      ],
      "name": "allEscrows",
      "outputs": [
        {
          "internalType": "address",
          "name": "",
          "type": "address"
        }
      ],
      "stateMutability": "view",
      "type": "function"
    },
    {
      "inputs": [
        {
          "internalType": "address",
          "name": "buyer",
          "type": "address"
        },
        {
          "internalType": "address",
          "name": "seller",
          "type": "address"
        },
        {
          "internalType": "uint256",
          "name": "price",
          "type": "uint256"
        },
        {
          "internalType": "address",
          "name": "propertyNFT",
          "type": "address"
        },
        {
          "internalType": "uint256",
          "name": "propertyId",
          "type": "uint256"
        },
        {
          "internalType": "address",
          "name": "fractionToken",
          "type": "address"
        },
        {
          "internalType": "uint256",
          "name": "fractionAmount",
          "type": "uint256"
        }
      ],
      "name": "createFractionalEscrow",
      "outputs": [
        {
          "internalType": "address",
          "name": "",
          "type": "address"
        }
      ],
      "stateMutability": "nonpayable",
      "type": "function"
    },
    {
      "inputs": [
        {
          "internalType": "address",
          "name": "buyer",
          "type": "address"
        },
        {
          "internalType": "address",
          "name": "seller",
          "type": "address"
        },
        {
          "internalType": "uint256",
          "name": "price",
          "type": "uint256"
        },
        {
          "internalType": "address",
          "name": "propertyNFT",
          "type": "address"
        },
        {
          "internalType": "uint256",
          "name": "tokenId",
          "type": "uint256"
        }
      ],
      "name": "createNFTEscrow",
      "outputs": [
        {
          "internalType": "address",
          "name": "",
          "type": "address"
        }
      ],
      "stateMutability": "nonpayable",
      "type": "function"
    },
    {
      "inputs": [],
      "name": "getTotalEscrows",
      "outputs": [
        {
          "internalType": "uint256",
          "name": "",
          "type": "uint256"
        }
      ],
      "stateMutability": "view",
      "type": "function"
    },
    {
      "inputs": [
        {
          "internalType": "address",
          "name": "user",
          "type": "address"
        }
      ],
      "name": "getUserEscrows",
      "outputs": [
        {
          "internalType": "address[]",
          "name": "",
          "type": "address[]"
        }
      ],
      "stateMutability": "view",
      "type": "function"
    },
    {
      "inputs": [
        {
          "internalType": "address",
          "name": "",
          "type": "address"
        },
        {
          "internalType": "uint256",
          "name": "",
          "type": "uint256"
        }
      ],
      "name": "userEscrows",
      "outputs": [
        {
          "internalType": "address",
          "name": "",
          "type": "address"
        }
      ],
      "stateMutability": "view",
      "type": "function"
    }
  ],
  "bytecode": "0x6080604052348015600f57600080fd5b50611a868061001f6000396000f3fe608060405234801561001057600080fd5b50600436106100625760003560e01c80631d3afee6146100675780633f4dbda2146100975780635ccea85e146100a85780637f944dd0146100c85780639a7a2b2e146100db5780639faca343146100ee575b600080fd5b61007a610075366004610536565b610101565b6040516001600160a01b0390911681526020015b60405180910390f35b60005460405190815260200161008e565b6100bb6100b636600461056b565b61012b565b60405161008e919061058d565b61007a6100d63660046105d9565b6101a1565b61007a6100e9366004610603565b6101d9565b61007a6100fc366004610677565b61040a565b6000818154811061011157600080fd5b6000918252602090912001546001600160a01b0316905081565b6001600160a01b03811660009081526001602090815260409182902080548351818402810184019094528084526060939283018282801561019557602002820191906000526020600020905b81546001600160a01b03168152600190910190602001808311610177575b50505050509050919050565b600160205281600052604060002081815481106101bd57600080fd5b6000918252602090912001546001600160a01b03169150829050565b600080888888600189896040516101ef90610529565b6101fe969594939291906106ee565b604051809103906000f08015801561021a573d6000803e3d6000fd5b5060405163fdde36eb60e01b81526001600160a01b038681166004830152602482018690529192509082169063fdde36eb90604401600060405180830381600087803b15801561026957600080fd5b505af115801561027d573d6000803e3d6000fd5b5050505060008190506000819080600181540180825580915050600190039060005260206000200160009091909190916101000a8154816001600160a01b0302191690836001600160a01b03160217905550600160008b6001600160a01b03166001600160a01b03168152602001908152602001600020819080600181540180825580915050600190039060005260206000200160009091909190916101000a8154816001600160a01b0302191690836001600160a01b03160217905550600160008a6001600160a01b03166001600160a01b03168152602001908152602001600020819080600181540180825580915050600190039060005260206000200160009091909190916101000a8154816001600160a01b0302191690836001600160a01b03160217905550886001600160a01b03168a6001600160a01b0316826001600160a01b03167f36f3138c3c550feab50784593cb2dee2e0ae417027d958863c794a17d90d64f960016040516103f59190610737565b60405180910390a49998505050505050505050565b6000808686866000878760405161042090610529565b61042f969594939291906106ee565b604051809103906000f08015801561044b573d6000803e3d6000fd5b5060008054600181810183557f290decd9548b62a8d60345a988386fc84ba6bc95484008f6362f93160ef3e56390910180546001600160a01b038086166001600160a01b031992831681179093558c81168086526020858152604080882080548089018255908952828920018054861687179055928e1680885283882080549788018155885290872090950180549093168417909255519495508594929390927f36f3138c3c550feab50784593cb2dee2e0ae417027d958863c794a17d90d64f99161051691610737565b60405180910390a4979650505050505050565b6113058061074c83390190565b60006020828403121561054857600080fd5b5035919050565b80356001600160a01b038116811461056657600080fd5b919050565b60006020828403121561057d57600080fd5b6105868261054f565b9392505050565b602080825282518282018190526000918401906040840190835b818110156105ce5783516001600160a01b03168352602093840193909201916001016105a7565b509095945050505050565b600080604083850312156105ec57600080fd5b6105f58361054f565b946020939093013593505050565b600080600080600080600060e0888a03121561061e57600080fd5b6106278861054f565b96506106356020890161054f565b95506040880135945061064a6060890161054f565b93506080880135925061065f60a0890161054f565b96999598509396929591949193505060c09091013590565b600080600080600060a0868803121561068f57600080fd5b6106988661054f565b94506106a66020870161054f565b9350604086013592506106bb6060870161054f565b949793965091946080013592915050565b600281106106ea57634e487b7160e01b600052602160045260246000fd5b9052565b6001600160a01b038781168252861660208201526040810185905260c0810161071a60608301866106cc565b6001600160a01b0393909316608082015260a00152949350505050565b6020810161074582846106cc565b9291505056fe608060405234801561001057600080fd5b5060405161130538038061130583398101604081905261002f916100e8565b6001600081905580546001600160a01b038089166001600160a01b0319928316178355600280549189169183169190911790556003805490911633179055600485905560058054859263ff000000199091169063010000009084908111156100995761009961015b565b0217905550600780546001600160a01b0319166001600160a01b0393909316929092179091556006555061017192505050565b80516001600160a01b03811681146100e357600080fd5b919050565b60008060008060008060c0878903121561010157600080fd5b61010a876100cc565b9550610118602088016100cc565b6040880151606089015191965094506002811061013457600080fd5b9250610142608088016100cc565b9150600060a08801519050809150509295509295509295565b634e487b7160e01b600052602160045260246000fd5b611185806101806000396000f3fe6080604052600436106101145760003560e01c80636df45035116100a0578063c45a015511610064578063c45a0155146102e1578063d35eaf7214610301578063ea8a1af01461031b578063ed1ef48014610330578063fdde36eb1461035e57600080fd5b80636df45035146102545780637150d8ae146102835780638d4e4083146102a3578063a035b1fe146102c3578063aa5e2153146102d957600080fd5b806340273512116100e757806340273512146101b1578063457dfc67146101c75780634bb278f3146101e75780634e69d560146101fc578063527ed6401461023f57600080fd5b806308551a5314610119578063135a15711461015657806317d70f7c1461016d57806337f7683814610191575b600080fd5b34801561012557600080fd5b50600254610139906001600160a01b031681565b6040516001600160a01b0390911681526020015b60405180910390f35b34801561016257600080fd5b5061016b61037e565b005b34801561017957600080fd5b5061018360065481565b60405190815260200161014d565b34801561019d57600080fd5b50600754610139906001600160a01b031681565b3480156101bd57600080fd5b5061018360095481565b3480156101d357600080fd5b50600854610139906001600160a01b031681565b3480156101f357600080fd5b5061016b6105dd565b34801561020857600080fd5b506005546040805160ff8084161515825261010084048116151560208301526201000090930490921615159082015260600161014d565b34801561024b57600080fd5b5061016b61091a565b34801561026057600080fd5b5060055461027390610100900460ff1681565b604051901515815260200161014d565b34801561028f57600080fd5b50600154610139906001600160a01b031681565b3480156102af57600080fd5b506005546102739062010000900460ff1681565b3480156102cf57600080fd5b5061018360045481565b61016b610aab565b3480156102ed57600080fd5b50600354610139906001600160a01b031681565b34801561030d57600080fd5b506005546102739060ff1681565b34801561032757600080fd5b5061016b610bd0565b34801561033c57600080fd5b50600554610351906301000000900460ff1681565b60405161014d9190611021565b34801561036a57600080fd5b5061016b610379366004611049565b610ecf565b6002546001600160a01b031633146103cb5760405162461bcd60e51b815260206004820152600b60248201526a27b7363c9039b2b63632b960a91b60448201526064015b60405180910390fd5b600554610100900460ff16156103f35760405162461bcd60e51b81526004016103c290611081565b60016005546301000000900460ff1660018111156104135761041361100b565b146104305760405162461bcd60e51b81526004016103c2906110ac565b6008546001600160a01b03166104925760405162461bcd60e51b815260206004820152602160248201527f4672616374696f6e616c20657363726f77206e6f7420696e697469616c697a656044820152601960fa1b60648201526084016103c2565b60055462010000900460ff16156104bb5760405162461bcd60e51b81526004016103c2906110d7565b6008546002546009546040516323b872dd60e01b81526001600160a01b03938416936323b872dd936104f593911691309190600401611102565b6020604051808303816000875af1158015610514573d6000803e3d6000fd5b505050506040513d601f19601f820116820180604052508101906105389190611126565b6105845760405162461bcd60e51b815260206004820152601e60248201527f4672616374696f6e20746f6b656e207472616e73666572206661696c6564000060448201526064016103c2565b6005805461ff0019166101001790556002546040516001600160a01b03909116907ffcc189e4c1132cff7967bc3c42306fe72aa9247884e67556d6ce3dedfd834260906105d390600190611021565b60405180910390a2565b6105e5610fe1565b6001546001600160a01b0316331461063f5760405162461bcd60e51b815260206004820152601760248201527f4f6e6c792062757965722063616e2066696e616c697a6500000000000000000060448201526064016103c2565b60055460ff1680156106585750600554610100900460ff165b61069a5760405162461bcd60e51b8152602060048201526013602482015272457363726f77206e6f7420636f6d706c65746560681b60448201526064016103c2565b60055462010000900460ff16156106c35760405162461bcd60e51b81526004016103c2906110d7565b6005805462ff000019166201000017905560006005546301000000900460ff1660018111156106f4576106f461100b565b0361076b576007546001546006546040516323b872dd60e01b81526001600160a01b03938416936323b872dd936107349330939290911691600401611102565b600060405180830381600087803b15801561074e57600080fd5b505af1158015610762573d6000803e3d6000fd5b50505050610834565b60085460015460095460405163a9059cbb60e01b81526001600160a01b039283166004820152602481019190915291169063a9059cbb906044016020604051808303816000875af11580156107c4573d6000803e3d6000fd5b505050506040513d601f19601f820116820180604052508101906107e89190611126565b6108345760405162461bcd60e51b815260206004820152601e60248201527f4672616374696f6e20746f6b656e207472616e73666572206661696c6564000060448201526064016103c2565b6002546004546040516000926001600160a01b031691908381818185875af1925050503d8060008114610883576040519150601f19603f3d011682016040523d82523d6000602084013e610888565b606091505b50509050806108ce5760405162461bcd60e51b815260206004820152601260248201527108cc2d2d8cac840e8de40e6cadcc8408aa8960731b60448201526064016103c2565b6002546001546040516001600160a01b0392831692909116907f5fd99efb29276a590c02728d3552c18065de03b9c4875f0f6ff13d2e5c083cff90600090a3506109186001600055565b565b6002546001600160a01b031633146109625760405162461bcd60e51b815260206004820152600b60248201526a27b7363c9039b2b63632b960a91b60448201526064016103c2565b600554610100900460ff161561098a5760405162461bcd60e51b81526004016103c290611081565b60006005546301000000900460ff1660018111156109aa576109aa61100b565b146109c75760405162461bcd60e51b81526004016103c2906110ac565b60055462010000900460ff16156109f05760405162461bcd60e51b81526004016103c2906110d7565b6007546002546006546040516323b872dd60e01b81526001600160a01b03938416936323b872dd93610a2a93911691309190600401611102565b600060405180830381600087803b158015610a4457600080fd5b505af1158015610a58573d6000803e3d6000fd5b50506005805461ff00191661010017905550506002546040516001600160a01b03909116907ffcc189e4c1132cff7967bc3c42306fe72aa9247884e67556d6ce3dedfd834260906105d390600090611021565b6001546001600160a01b03163314610af25760405162461bcd60e51b815260206004820152600a60248201526927b7363c90313abcb2b960b11b60448201526064016103c2565b6004543414610b375760405162461bcd60e51b8152602060048201526011602482015270125b98dbdc9c9958dd081c185e5b595b9d607a1b60448201526064016103c2565b60055460ff1615610b5a5760405162461bcd60e51b81526004016103c290611081565b60055462010000900460ff1615610b835760405162461bcd60e51b81526004016103c2906110d7565b6005805460ff19166001908117909155546040513481526001600160a01b03909116907fd348a8f42fae8db1d0030271b37ed6d94a5e292ff36db57b244ffe13f494dd45906020016105d3565b610bd8610fe1565b60055462010000900460ff1615610c015760405162461bcd60e51b81526004016103c2906110d7565b6001546001600160a01b0316331480610c2457506002546001600160a01b031633145b610c705760405162461bcd60e51b815260206004820152601760248201527f4f6e6c7920706172746965732063616e2063616e63656c00000000000000000060448201526064016103c2565b60055460ff1615610d1b576001546004546040516000926001600160a01b031691908381818185875af1925050503d8060008114610cca576040519150601f19603f3d011682016040523d82523d6000602084013e610ccf565b606091505b5050905080610d195760405162461bcd60e51b81526020600482015260166024820152752330b4b632b2103a37903932b33ab73210313abcb2b960511b60448201526064016103c2565b505b600554610100900460ff1615610e8b5760006005546301000000900460ff166001811115610d4b57610d4b61100b565b03610dc2576007546002546006546040516323b872dd60e01b81526001600160a01b03938416936323b872dd93610d8b9330939290911691600401611102565b600060405180830381600087803b158015610da557600080fd5b505af1158015610db9573d6000803e3d6000fd5b50505050610e8b565b60085460025460095460405163a9059cbb60e01b81526001600160a01b039283166004820152602481019190915291169063a9059cbb906044016020604051808303816000875af1158015610e1b573d6000803e3d6000fd5b505050506040513d601f19601f82011682018060405250810190610e3f9190611126565b610e8b5760405162461bcd60e51b815260206004820152601a60248201527f4661696c656420746f2072657475726e206672616374696f6e7300000000000060448201526064016103c2565b6005805462ff00001916620100001790556040517f6e3be9294e58d10b9c8053cfd5e09871b67e442fe394d6b0870d336b9df984a990600090a16109186001600055565b6002546001600160a01b0316331480610ef257506003546001600160a01b031633145b610f2f5760405162461bcd60e51b815260206004820152600e60248201526d139bdd08185d5d1a1bdc9a5e995960921b60448201526064016103c2565b60016005546301000000900460ff166001811115610f4f57610f4f61100b565b14610f6c5760405162461bcd60e51b81526004016103c2906110ac565b6008546001600160a01b031615610fbb5760405162461bcd60e51b8152602060048201526013602482015272105b1c9958591e481a5b9a5d1a585b1a5e9959606a1b60448201526064016103c2565b600880546001600160a01b0319166001600160a01b039390931692909217909155600955565b60026000540361100457604051633ee5aeb560e01b815260040160405180910390fd5b6002600055565b634e487b7160e01b600052602160045260246000fd5b602081016002831061104357634e487b7160e01b600052602160045260246000fd5b91905290565b6000806040838503121561105c57600080fd5b82356001600160a01b038116811461107357600080fd5b946020939093013593505050565b602080825260119082015270105b1c9958591e4819195c1bdcda5d1959607a1b604082015260600190565b60208082526011908201527057726f6e6720657363726f77207479706560781b604082015260600190565b602080825260119082015270105b1c9958591e48199a5b985b1a5e9959607a1b604082015260600190565b6001600160a01b039384168152919092166020820152604081019190915260600190565b60006020828403121561113857600080fd5b8151801515811461114857600080fd5b939250505056fea2646970667358221220bb3724833604edc76c84101d2febcb0a1cf6941e1ba521480e77f22922b5553464736f6c634300081b0033a26469706673582212206436544722e5bf4dabd202cb4d48d92b362390ef098bab579bb98abe2375dbd964736f6c634300081b0033",
  "linkReferences": {},
  "deployedLinkReferences": {}
}