{
  "_format": "hh-sol-artifact-1",
  "contractName": "FractionTokenFactory",
  "sourceName": "contracts/FractionTokenFactory.sol",
  "abi": [
    {
      "inputs": [],
      "name": "ReentrancyGuardReentrantCall",
      "type": "error"
    },
    {
      "anonymous": false,
      "inputs": [
        {
          "indexed": false,
          "internalType": "uint256",
          "name": "propertyId",
          "type": "uint256"
        },
        {
          "indexed": false,
          "internalType": "address",
          "name": "tokenAddress",
          "type": "address"
        },
        {
          "indexed": false,
          "internalType": "uint256",
          "name": "totalSupply",
          "type": "uint256"
        }
      ],
      "name": "FractionTokenCreated",
      "type": "event"
    },
    {
      "anonymous": false,
      "inputs": [
        {
          "indexed": false,
          "internalType": "uint256",
          "name": "propertyId",
          "type": "uint256"
        },
        {
          "indexed": true,
          "internalType": "address",
          "name": "from",
          "type": "address"
        },
        {
          "indexed": true,
          "internalType": "address",
          "name": "to",
          "type": "address"
        }
      ],
      "name": "FullOwnershipTransferred",
      "type": "event"
    },
    {
      "anonymous": false,
      "inputs": [
        {
          "indexed": false,
          "internalType": "uint256",
          "name": "propertyId",
          "type": "uint256"
        },
        {
          "indexed": true,
          "internalType": "address",
          "name": "owner",
          "type": "address"
        }
      ],
      "name": "PropertyDefractionalized",
      "type": "event"
    },
    {
      "inputs": [
        {
          "internalType": "uint256",
          "name": "propertyId",
          "type": "uint256"
        },
        {
          "internalType": "string",
          "name": "name",
          "type": "string"
        },
        {
          "internalType": "string",
          "name": "symbol",
          "type": "string"
        },
        {
          "internalType": "uint256",
          "name": "totalSupply",
          "type": "uint256"
        },
        {
          "internalType": "address",
          "name": "propertyNFTAddr",
          "type": "address"
        }
      ],
      "name": "createFractionToken",
      "outputs": [
        {
          "internalType": "address",
          "name": "",
          "type": "address"
        }
      ],
      "stateMutability": "nonpayable",
      "type": "function"
    },
    {
      "inputs": [
        {
          "internalType": "uint256",
          "name": "propertyId",
          "type": "uint256"
        },
        {
          "internalType": "address",
          "name": "propertyNFTAddr",
          "type": "address"
        }
      ],
      "name": "defractionalizeProperty",
      "outputs": [],
      "stateMutability": "nonpayable",
      "type": "function"
    },
    {
      "inputs": [
        {
          "internalType": "uint256",
          "name": "propertyId",
          "type": "uint256"
        },
        {
          "internalType": "address",
          "name": "owner",
          "type": "address"
        }
      ],
      "name": "getFractionBalance",
      "outputs": [
        {
          "internalType": "uint256",
          "name": "",
          "type": "uint256"
        }
      ],
      "stateMutability": "view",
      "type": "function"
    },
    {
      "inputs": [
        {
          "internalType": "uint256",
          "name": "propertyId",
          "type": "uint256"
        }
      ],
      "name": "getFractionToken",
      "outputs": [
        {
          "internalType": "address",
          "name": "",
          "type": "address"
        }
      ],
      "stateMutability": "view",
      "type": "function"
    },
    {
      "inputs": [
        {
          "internalType": "uint256",
          "name": "propertyId",
          "type": "uint256"
        },
        {
          "internalType": "address",
          "name": "owner",
          "type": "address"
        }
      ],
      "name": "hasFullOwnership",
      "outputs": [
        {
          "internalType": "bool",
          "name": "",
          "type": "bool"
        }
      ],
      "stateMutability": "view",
      "type": "function"
    },
    {
      "inputs": [
        {
          "internalType": "uint256",
          "name": "",
          "type": "uint256"
        }
      ],
      "name": "isPropertyFractionalized",
      "outputs": [
        {
          "internalType": "bool",
          "name": "",
          "type": "bool"
        }
      ],
      "stateMutability": "view",
      "type": "function"
    },
    {
      "inputs": [
        {
          "internalType": "uint256",
          "name": "",
          "type": "uint256"
        }
      ],
      "name": "propertyToFractionToken",
      "outputs": [
        {
          "internalType": "address",
          "name": "",
          "type": "address"
        }
      ],
      "stateMutability": "view",
      "type": "function"
    },
    {
      "inputs": [
        {
          "internalType": "uint256",
          "name": "",
          "type": "uint256"
        }
      ],
      "name": "propertyToTotalSupply",
      "outputs": [
        {
          "internalType": "uint256",
          "name": "",
          "type": "uint256"
        }
      ],
      "stateMutability": "view",
      "type": "function"
    },
    {
      "inputs": [
        {
          "internalType": "uint256",
          "name": "propertyId",
          "type": "uint256"
        },
        {
          "internalType": "address",
          "name": "to",
          "type": "address"
        },
        {
          "internalType": "address",
          "name": "propertyNFTAddr",
          "type": "address"
        }
      ],
      "name": "transferFullOwnership",
      "outputs": [],
      "stateMutability": "nonpayable",
      "type": "function"
    }
  ],
  "bytecode": "0x6080604052348015600f57600080fd5b506001600055611e54806100246000396000f3fe608060405234801561001057600080fd5b50600436106100935760003560e01c8063998c7e5011610066578063998c7e5014610142578063a0dd9f4914610157578063b28163e41461016a578063b2a5872214610193578063c9a9fa8d146101a657600080fd5b80631982b1ca146100985780635133ee1b146100cb5780635f3c904e146100f657806373f258ae14610119575b600080fd5b6100b86100a6366004610e09565b60026020526000908152604090205481565b6040519081526020015b60405180910390f35b6100de6100d9366004610edf565b6101c9565b6040516001600160a01b0390911681526020016100c2565b610109610104366004610f70565b610535565b60405190151581526020016100c2565b6100de610127366004610e09565b6000908152600160205260409020546001600160a01b031690565b610155610150366004610fa0565b610607565b005b6100b8610165366004610f70565b6109c9565b6100de610178366004610e09565b6001602052600090815260409020546001600160a01b031681565b6101556101a1366004610f70565b610a66565b6101096101b4366004610e09565b60036020526000908152604090205460ff1681565b6000858152600160205260408120546001600160a01b0316156102335760405162461bcd60e51b815260206004820152601d60248201527f4672616374696f6e20746f6b656e20616c72656164792065786973747300000060448201526064015b60405180910390fd5b6040516331a9108f60e11b81526004810187905282906001600160a01b03821690636352211e90602401602060405180830381865afa925050508015610296575060408051601f3d908101601f1916820190925261029391810190610fe2565b60015b6102e25760405162461bcd60e51b815260206004820152601760248201527f50726f706572747920646f6573206e6f74206578697374000000000000000000604482015260640161022a565b336001600160a01b038216146103485760405162461bcd60e51b815260206004820152602560248201527f4f6e6c792070726f7065727479206f776e65722063616e206672616374696f6e604482015264616c697a6560d81b606482015260840161022a565b604051633933baff60e21b8152600481018990526001600160a01b0383169063e4ceebfc90602401602060405180830381865afa15801561038d573d6000803e3d6000fd5b505050506040513d601f19601f820116820180604052508101906103b19190611006565b6103fd5760405162461bcd60e51b815260206004820152601960248201527f50726f7065727479206e6f742066756c6c79207369676e656400000000000000604482015260640161022a565b506040516323b872dd60e01b81526001600160a01b038416906323b872dd9061042e90339030908c90600401611028565b600060405180830381600087803b15801561044857600080fd5b505af115801561045c573d6000803e3d6000fd5b5050505060008686868a3360405161047390610dfc565b610481959493929190611092565b604051809103906000f08015801561049d573d6000803e3d6000fd5b50600089815260016020818152604080842080546001600160a01b0319166001600160a01b038716908117909155600283528185208b90556003835293819020805460ff191690931790925581518c81529081019290925281018790529091507f108631c23df8322936e7ca83e421e51b05feb51ed6a540e5f9d48ee1f06619239060600160405180910390a1979650505050505050565b60008281526003602052604081205460ff1661055357506000610601565b6000838152600160205260409020546001600160a01b03168061057a576000915050610601565b6000848152600260205260408082205490516370a0823160e01b81526001600160a01b038681166004830152849391908416906370a0823190602401602060405180830381865afa1580156105d3573d6000803e3d6000fd5b505050506040513d601f19601f820116820180604052508101906105f791906110de565b9190911493505050505b92915050565b61060f610dd2565b60008381526003602052604090205460ff1661066d5760405162461bcd60e51b815260206004820152601b60248201527f50726f7065727479206e6f74206672616374696f6e616c697a65640000000000604482015260640161022a565b6001600160a01b0382166106b75760405162461bcd60e51b8152602060048201526011602482015270125b9d985b1a59081c9958da5c1a595b9d607a1b604482015260640161022a565b6000838152600160205260409020546001600160a01b0316806107175760405162461bcd60e51b8152602060048201526018602482015277119c9858dd1a5bdb881d1bdad95b881b9bdd08199bdd5b9960421b604482015260640161022a565b6000848152600260205260408082205490516370a0823160e01b81523360048201528392906001600160a01b038416906370a0823190602401602060405180830381865afa15801561076d573d6000803e3d6000fd5b505050506040513d601f19601f8201168201806040525081019061079191906110de565b90508181146107e25760405162461bcd60e51b815260206004820152601a60248201527f4d757374206f776e2031303025206f66206672616374696f6e73000000000000604482015260640161022a565b6040516323b872dd60e01b81526001600160a01b038416906323b872dd9061081290339030908790600401611028565b6020604051808303816000875af1158015610831573d6000803e3d6000fd5b505050506040513d601f19601f820116820180604052508101906108559190611006565b61089d5760405162461bcd60e51b81526020600482015260196024820152784661696c656420746f207472616e7366657220746f6b656e7360381b604482015260640161022a565b604051630852cd8d60e31b8152600481018390526001600160a01b038516906342966c6890602401600060405180830381600087803b1580156108df57600080fd5b505af11580156108f3573d6000803e3d6000fd5b50506040516323b872dd60e01b81526001600160a01b03881692506323b872dd91506109279030908a908c90600401611028565b600060405180830381600087803b15801561094157600080fd5b505af1158015610955573d6000803e3d6000fd5b50505060008881526003602052604090819020805460ff19169055516001600160a01b038816915033907f4ee54ea6c6e416266de18a59a51a867b566e5efdf1ffe57519063d019b7bf84e906109ae908b815260200190565b60405180910390a3505050506109c46001600055565b505050565b6000828152600160205260408120546001600160a01b0316806109f0576000915050610601565b6040516370a0823160e01b81526001600160a01b0384811660048301528291908216906370a0823190602401602060405180830381865afa158015610a39573d6000803e3d6000fd5b505050506040513d601f19601f82011682018060405250810190610a5d91906110de565b95945050505050565b610a6e610dd2565b60008281526003602052604090205460ff16610acc5760405162461bcd60e51b815260206004820152601b60248201527f50726f7065727479206e6f74206672616374696f6e616c697a65640000000000604482015260640161022a565b6000828152600160205260409020546001600160a01b031680610b2c5760405162461bcd60e51b8152602060048201526018602482015277119c9858dd1a5bdb881d1bdad95b881b9bdd08199bdd5b9960421b604482015260640161022a565b6000838152600260205260408082205490516370a0823160e01b81523360048201528392906001600160a01b038416906370a0823190602401602060405180830381865afa158015610b82573d6000803e3d6000fd5b505050506040513d601f19601f82011682018060405250810190610ba691906110de565b9050818114610bf75760405162461bcd60e51b815260206004820152601a60248201527f4d757374206f776e2031303025206f66206672616374696f6e73000000000000604482015260640161022a565b6040516323b872dd60e01b81526001600160a01b038416906323b872dd90610c2790339030908790600401611028565b6020604051808303816000875af1158015610c46573d6000803e3d6000fd5b505050506040513d601f19601f82011682018060405250810190610c6a9190611006565b610cb25760405162461bcd60e51b81526020600482015260196024820152784661696c656420746f207472616e7366657220746f6b656e7360381b604482015260640161022a565b604051630852cd8d60e31b8152600481018390526001600160a01b038516906342966c6890602401600060405180830381600087803b158015610cf457600080fd5b505af1158015610d08573d6000803e3d6000fd5b50506040516323b872dd60e01b81526001600160a01b03881692506323b872dd9150610d3c90309033908b90600401611028565b600060405180830381600087803b158015610d5657600080fd5b505af1158015610d6a573d6000803e3d6000fd5b50505060008781526003602052604090819020805460ff19169055513391507f127fa53c9c04331b47ca4141142ff584c36a921b7edb32e38be22f1dd514439f90610db89089815260200190565b60405180910390a250505050610dce6001600055565b5050565b600260005403610df557604051633ee5aeb560e01b815260040160405180910390fd5b6002600055565b610d27806110f883390190565b600060208284031215610e1b57600080fd5b5035919050565b634e487b7160e01b600052604160045260246000fd5b600082601f830112610e4957600080fd5b813567ffffffffffffffff811115610e6357610e63610e22565b604051601f8201601f19908116603f0116810167ffffffffffffffff81118282101715610e9257610e92610e22565b604052818152838201602001851015610eaa57600080fd5b816020850160208301376000918101602001919091529392505050565b6001600160a01b0381168114610edc57600080fd5b50565b600080600080600060a08688031215610ef757600080fd5b85359450602086013567ffffffffffffffff811115610f1557600080fd5b610f2188828901610e38565b945050604086013567ffffffffffffffff811115610f3e57600080fd5b610f4a88828901610e38565b935050606086013591506080860135610f6281610ec7565b809150509295509295909350565b60008060408385031215610f8357600080fd5b823591506020830135610f9581610ec7565b809150509250929050565b600080600060608486031215610fb557600080fd5b833592506020840135610fc781610ec7565b91506040840135610fd781610ec7565b809150509250925092565b600060208284031215610ff457600080fd5b8151610fff81610ec7565b9392505050565b60006020828403121561101857600080fd5b81518015158114610fff57600080fd5b6001600160a01b039384168152919092166020820152604081019190915260600190565b6000815180845260005b8181101561107257602081850181015186830182015201611056565b506000602082860101526020601f19601f83011685010191505092915050565b60a0815260006110a560a083018861104c565b82810360208401526110b7818861104c565b6040840196909652505060608101929092526001600160a01b031660809091015292915050565b6000602082840312156110f057600080fd5b505191905056fe608060405234801561001057600080fd5b50604051610d27380380610d2783398101604081905261002f9161029a565b8484600361003d83826103c3565b50600461004a82826103c3565b5050506005829055600680546001600160a01b0319163317905561006e8184610078565b50505050506104a8565b6001600160a01b0382166100a75760405163ec442f0560e01b8152600060048201526024015b60405180910390fd5b6100b3600083836100b7565b5050565b6001600160a01b0383166100e25780600260008282546100d79190610481565b909155506101549050565b6001600160a01b038316600090815260208190526040902054818110156101355760405163391434e360e21b81526001600160a01b0385166004820152602481018290526044810183905260640161009e565b6001600160a01b03841660009081526020819052604090209082900390555b6001600160a01b0382166101705760028054829003905561018f565b6001600160a01b03821660009081526020819052604090208054820190555b816001600160a01b0316836001600160a01b03167fddf252ad1be2c89b69c2b068fc378daa952ba7f163c4a11628f55a4df523b3ef836040516101d491815260200190565b60405180910390a3505050565b634e487b7160e01b600052604160045260246000fd5b600082601f83011261020857600080fd5b81516001600160401b03811115610221576102216101e1565b604051601f8201601f19908116603f011681016001600160401b038111828210171561024f5761024f6101e1565b60405281815283820160200185101561026757600080fd5b60005b828110156102865760208186018101518383018201520161026a565b506000918101602001919091529392505050565b600080600080600060a086880312156102b257600080fd5b85516001600160401b038111156102c857600080fd5b6102d4888289016101f7565b602088015190965090506001600160401b038111156102f257600080fd5b6102fe888289016101f7565b6040880151606089015160808a0151929750909550935090506001600160a01b038116811461032c57600080fd5b809150509295509295909350565b600181811c9082168061034e57607f821691505b60208210810361036e57634e487b7160e01b600052602260045260246000fd5b50919050565b601f8211156103be57806000526020600020601f840160051c8101602085101561039b5750805b601f840160051c820191505b818110156103bb57600081556001016103a7565b50505b505050565b81516001600160401b038111156103dc576103dc6101e1565b6103f0816103ea845461033a565b84610374565b6020601f821160018114610424576000831561040c5750848201515b600019600385901b1c1916600184901b1784556103bb565b600084815260208120601f198516915b828110156104545787850151825560209485019460019092019101610434565b50848210156104725786840151600019600387901b60f8161c191681555b50505050600190811b01905550565b808201808211156104a257634e487b7160e01b600052601160045260246000fd5b92915050565b610870806104b76000396000f3fe608060405234801561001057600080fd5b50600436106100b45760003560e01c806370a082311161007157806370a082311461014357806395d89b411461016c578063a9059cbb14610174578063c45a015514610187578063dd62ed3e146101b2578063ee7a3b8e146101eb57600080fd5b806306fdde03146100b9578063095ea7b3146100d757806318160ddd146100fa57806323b872dd1461010c578063313ce5671461011f57806342966c681461012e575b600080fd5b6100c16101f4565b6040516100ce91906106a0565b60405180910390f35b6100ea6100e536600461070a565b610286565b60405190151581526020016100ce565b6002545b6040519081526020016100ce565b6100ea61011a366004610734565b6102a0565b604051601281526020016100ce565b61014161013c366004610771565b6102c4565b005b6100fe61015136600461078a565b6001600160a01b031660009081526020819052604090205490565b6100c161035a565b6100ea61018236600461070a565b610369565b60065461019a906001600160a01b031681565b6040516001600160a01b0390911681526020016100ce565b6100fe6101c03660046107ac565b6001600160a01b03918216600090815260016020908152604080832093909416825291909152205490565b6100fe60055481565b606060038054610203906107df565b80601f016020809104026020016040519081016040528092919081815260200182805461022f906107df565b801561027c5780601f106102515761010080835404028352916020019161027c565b820191906000526020600020905b81548152906001019060200180831161025f57829003601f168201915b5050505050905090565b600033610294818585610377565b60019150505b92915050565b6000336102ae858285610389565b6102b9858585610408565b506001949350505050565b6006546001600160a01b03163314806102db575060015b6103255760405162461bcd60e51b81526020600482015260166024820152752737ba1030baba3437b934bd32b2103a3790313ab93760511b60448201526064015b60405180910390fd5b6006546001600160a01b031633036103505760065461034d906001600160a01b031682610467565b50565b61034d3382610467565b606060048054610203906107df565b600033610294818585610408565b61038483838360016104a1565b505050565b6001600160a01b0383811660009081526001602090815260408083209386168352929052205460001981101561040257818110156103f357604051637dc7a0d960e11b81526001600160a01b0384166004820152602481018290526044810183905260640161031c565b610402848484840360006104a1565b50505050565b6001600160a01b03831661043257604051634b637e8f60e11b81526000600482015260240161031c565b6001600160a01b03821661045c5760405163ec442f0560e01b81526000600482015260240161031c565b610384838383610576565b6001600160a01b03821661049157604051634b637e8f60e11b81526000600482015260240161031c565b61049d82600083610576565b5050565b6001600160a01b0384166104cb5760405163e602df0560e01b81526000600482015260240161031c565b6001600160a01b0383166104f557604051634a1406b160e11b81526000600482015260240161031c565b6001600160a01b038085166000908152600160209081526040808320938716835292905220829055801561040257826001600160a01b0316846001600160a01b03167f8c5be1e5ebec7d5bd14f71427d1e84f3dd0314c0f7b2291e5b200ac8c7c3b9258460405161056891815260200190565b60405180910390a350505050565b6001600160a01b0383166105a15780600260008282546105969190610819565b909155506106139050565b6001600160a01b038316600090815260208190526040902054818110156105f45760405163391434e360e21b81526001600160a01b0385166004820152602481018290526044810183905260640161031c565b6001600160a01b03841660009081526020819052604090209082900390555b6001600160a01b03821661062f5760028054829003905561064e565b6001600160a01b03821660009081526020819052604090208054820190555b816001600160a01b0316836001600160a01b03167fddf252ad1be2c89b69c2b068fc378daa952ba7f163c4a11628f55a4df523b3ef8360405161069391815260200190565b60405180910390a3505050565b602081526000825180602084015260005b818110156106ce57602081860181015160408684010152016106b1565b506000604082850101526040601f19601f83011684010191505092915050565b80356001600160a01b038116811461070557600080fd5b919050565b6000806040838503121561071d57600080fd5b610726836106ee565b946020939093013593505050565b60008060006060848603121561074957600080fd5b610752846106ee565b9250610760602085016106ee565b929592945050506040919091013590565b60006020828403121561078357600080fd5b5035919050565b60006020828403121561079c57600080fd5b6107a5826106ee565b9392505050565b600080604083850312156107bf57600080fd5b6107c8836106ee565b91506107d6602084016106ee565b90509250929050565b600181811c908216806107f357607f821691505b60208210810361081357634e487b7160e01b600052602260045260246000fd5b50919050565b8082018082111561029a57634e487b7160e01b600052601160045260246000fdfea26469706673582212206845e6283ee8f0d75177448d85da90c367b5165b1a9a902311e411dcd5edcdf464736f6c634300081b0033a2646970667358221220d2fffee1b483fb3685322faef43bf7e8b8736627e4263ec021d327d6216514e164736f6c634300081b0033",
  "linkReferences": {},
  "deployedLinkReferences": {}
}