{
  "_format": "hh-sol-artifact-1",
  "contractName": "FractionalToken",
  "sourceName": "contracts/FractionalToken.sol",
  "abi": [
    {
      "inputs": [
        {
          "internalType": "string",
          "name": "name",
          "type": "string"
        },
        {
          "internalType": "string",
          "name": "symbol",
          "type": "string"
        },
        {
          "internalType": "uint256",
          "name": "supply",
          "type": "uint256"
        },
        {
          "internalType": "uint256",
          "name": "_propertyId",
          "type": "uint256"
        },
        {
          "internalType": "address",
          "name": "ownerAddr",
          "type": "address"
        }
      ],
      "stateMutability": "nonpayable",
      "type": "constructor"
    },
    {
      "inputs": [
        {
          "internalType": "address",
          "name": "spender",
          "type": "address"
        },
        {
          "internalType": "uint256",
          "name": "allowance",
          "type": "uint256"
        },
        {
          "internalType": "uint256",
          "name": "needed",
          "type": "uint256"
        }
      ],
      "name": "ERC20InsufficientAllowance",
      "type": "error"
    },
    {
      "inputs": [
        {
          "internalType": "address",
          "name": "sender",
          "type": "address"
        },
        {
          "internalType": "uint256",
          "name": "balance",
          "type": "uint256"
        },
        {
          "internalType": "uint256",
          "name": "needed",
          "type": "uint256"
        }
      ],
      "name": "ERC20InsufficientBalance",
      "type": "error"
    },
    {
      "inputs": [
        {
          "internalType": "address",
          "name": "approver",
          "type": "address"
        }
      ],
      "name": "ERC20InvalidApprover",
      "type": "error"
    },
    {
      "inputs": [
        {
          "internalType": "address",
          "name": "receiver",
          "type": "address"
        }
      ],
      "name": "ERC20InvalidReceiver",
      "type": "error"
    },
    {
      "inputs": [
        {
          "internalType": "address",
          "name": "sender",
          "type": "address"
        }
      ],
      "name": "ERC20InvalidSender",
      "type": "error"
    },
    {
      "inputs": [
        {
          "internalType": "address",
          "name": "spender",
          "type": "address"
        }
      ],
      "name": "ERC20InvalidSpender",
      "type": "error"
    },
    {
      "anonymous": false,
      "inputs": [
        {
          "indexed": true,
          "internalType": "address",
          "name": "owner",
          "type": "address"
        },
        {
          "indexed": true,
          "internalType": "address",
          "name": "spender",
          "type": "address"
        },
        {
          "indexed": false,
          "internalType": "uint256",
          "name": "value",
          "type": "uint256"
        }
      ],
      "name": "Approval",
      "type": "event"
    },
    {
      "anonymous": false,
      "inputs": [
        {
          "indexed": true,
          "internalType": "address",
          "name": "from",
          "type": "address"
        },
        {
          "indexed": true,
          "internalType": "address",
          "name": "to",
          "type": "address"
        },
        {
          "indexed": false,
          "internalType": "uint256",
          "name": "value",
          "type": "uint256"
        }
      ],
      "name": "Transfer",
      "type": "event"
    },
    {
      "inputs": [
        {
          "internalType": "address",
          "name": "owner",
          "type": "address"
        },
        {
          "internalType": "address",
          "name": "spender",
          "type": "address"
        }
      ],
      "name": "allowance",
      "outputs": [
        {
          "internalType": "uint256",
          "name": "",
          "type": "uint256"
        }
      ],
      "stateMutability": "view",
      "type": "function"
    },
    {
      "inputs": [
        {
          "internalType": "address",
          "name": "spender",
          "type": "address"
        },
        {
          "internalType": "uint256",
          "name": "value",
          "type": "uint256"
        }
      ],
      "name": "approve",
      "outputs": [
        {
          "internalType": "bool",
          "name": "",
          "type": "bool"
        }
      ],
      "stateMutability": "nonpayable",
      "type": "function"
    },
    {
      "inputs": [
        {
          "internalType": "address",
          "name": "account",
          "type": "address"
        }
      ],
      "name": "balanceOf",
      "outputs": [
        {
          "internalType": "uint256",
          "name": "",
          "type": "uint256"
        }
      ],
      "stateMutability": "view",
      "type": "function"
    },
    {
      "inputs": [
        {
          "internalType": "uint256",
          "name": "amount",
          "type": "uint256"
        }
      ],
      "name": "burn",
      "outputs": [],
      "stateMutability": "nonpayable",
      "type": "function"
    },
    {
      "inputs": [],
      "name": "decimals",
      "outputs": [
        {
          "internalType": "uint8",
          "name": "",
          "type": "uint8"
        }
      ],
      "stateMutability": "view",
      "type": "function"
    },
    {
      "inputs": [],
      "name": "factory",
      "outputs": [
        {
          "internalType": "address",
          "name": "",
          "type": "address"
        }
      ],
      "stateMutability": "view",
      "type": "function"
    },
    {
      "inputs": [],
      "name": "name",
      "outputs": [
        {
          "internalType": "string",
          "name": "",
          "type": "string"
        }
      ],
      "stateMutability": "view",
      "type": "function"
    },
    {
      "inputs": [],
      "name": "propertyId",
      "outputs": [
        {
          "internalType": "uint256",
          "name": "",
          "type": "uint256"
        }
      ],
      "stateMutability": "view",
      "type": "function"
    },
    {
      "inputs": [],
      "name": "symbol",
      "outputs": [
        {
          "internalType": "string",
          "name": "",
          "type": "string"
        }
      ],
      "stateMutability": "view",
      "type": "function"
    },
    {
      "inputs": [],
      "name": "totalSupply",
      "outputs": [
        {
          "internalType": "uint256",
          "name": "",
          "type": "uint256"
        }
      ],
      "stateMutability": "view",
      "type": "function"
    },
    {
      "inputs": [
        {
          "internalType": "address",
          "name": "to",
          "type": "address"
        },
        {
          "internalType": "uint256",
          "name": "value",
          "type": "uint256"
        }
      ],
      "name": "transfer",
      "outputs": [
        {
          "internalType": "bool",
          "name": "",
          "type": "bool"
        }
      ],
      "stateMutability": "nonpayable",
      "type": "function"
    },
    {
      "inputs": [
        {
          "internalType": "address",
          "name": "from",
          "type": "address"
        },
        {
          "internalType": "address",
          "name": "to",
          "type": "address"
        },
        {
          "internalType": "uint256",
          "name": "value",
          "type": "uint256"
        }
      ],
      "name": "transferFrom",
      "outputs": [
        {
          "internalType": "bool",
          "name": "",
          "type": "bool"
        }
      ],
      "stateMutability": "nonpayable",
      "type": "function"
    }
  ],
  "bytecode": "0x608060405234801561001057600080fd5b50604051610d27380380610d2783398101604081905261002f9161029a565b8484600361003d83826103c3565b50600461004a82826103c3565b5050506005829055600680546001600160a01b0319163317905561006e8184610078565b50505050506104a8565b6001600160a01b0382166100a75760405163ec442f0560e01b8152600060048201526024015b60405180910390fd5b6100b3600083836100b7565b5050565b6001600160a01b0383166100e25780600260008282546100d79190610481565b909155506101549050565b6001600160a01b038316600090815260208190526040902054818110156101355760405163391434e360e21b81526001600160a01b0385166004820152602481018290526044810183905260640161009e565b6001600160a01b03841660009081526020819052604090209082900390555b6001600160a01b0382166101705760028054829003905561018f565b6001600160a01b03821660009081526020819052604090208054820190555b816001600160a01b0316836001600160a01b03167fddf252ad1be2c89b69c2b068fc378daa952ba7f163c4a11628f55a4df523b3ef836040516101d491815260200190565b60405180910390a3505050565b634e487b7160e01b600052604160045260246000fd5b600082601f83011261020857600080fd5b81516001600160401b03811115610221576102216101e1565b604051601f8201601f19908116603f011681016001600160401b038111828210171561024f5761024f6101e1565b60405281815283820160200185101561026757600080fd5b60005b828110156102865760208186018101518383018201520161026a565b506000918101602001919091529392505050565b600080600080600060a086880312156102b257600080fd5b85516001600160401b038111156102c857600080fd5b6102d4888289016101f7565b602088015190965090506001600160401b038111156102f257600080fd5b6102fe888289016101f7565b6040880151606089015160808a0151929750909550935090506001600160a01b038116811461032c57600080fd5b809150509295509295909350565b600181811c9082168061034e57607f821691505b60208210810361036e57634e487b7160e01b600052602260045260246000fd5b50919050565b601f8211156103be57806000526020600020601f840160051c8101602085101561039b5750805b601f840160051c820191505b818110156103bb57600081556001016103a7565b50505b505050565b81516001600160401b038111156103dc576103dc6101e1565b6103f0816103ea845461033a565b84610374565b6020601f821160018114610424576000831561040c5750848201515b600019600385901b1c1916600184901b1784556103bb565b600084815260208120601f198516915b828110156104545787850151825560209485019460019092019101610434565b50848210156104725786840151600019600387901b60f8161c191681555b50505050600190811b01905550565b808201808211156104a257634e487b7160e01b600052601160045260246000fd5b92915050565b610870806104b76000396000f3fe608060405234801561001057600080fd5b50600436106100b45760003560e01c806370a082311161007157806370a082311461014357806395d89b411461016c578063a9059cbb14610174578063c45a015514610187578063dd62ed3e146101b2578063ee7a3b8e146101eb57600080fd5b806306fdde03146100b9578063095ea7b3146100d757806318160ddd146100fa57806323b872dd1461010c578063313ce5671461011f57806342966c681461012e575b600080fd5b6100c16101f4565b6040516100ce91906106a0565b60405180910390f35b6100ea6100e536600461070a565b610286565b60405190151581526020016100ce565b6002545b6040519081526020016100ce565b6100ea61011a366004610734565b6102a0565b604051601281526020016100ce565b61014161013c366004610771565b6102c4565b005b6100fe61015136600461078a565b6001600160a01b031660009081526020819052604090205490565b6100c161035a565b6100ea61018236600461070a565b610369565b60065461019a906001600160a01b031681565b6040516001600160a01b0390911681526020016100ce565b6100fe6101c03660046107ac565b6001600160a01b03918216600090815260016020908152604080832093909416825291909152205490565b6100fe60055481565b606060038054610203906107df565b80601f016020809104026020016040519081016040528092919081815260200182805461022f906107df565b801561027c5780601f106102515761010080835404028352916020019161027c565b820191906000526020600020905b81548152906001019060200180831161025f57829003601f168201915b5050505050905090565b600033610294818585610377565b60019150505b92915050565b6000336102ae858285610389565b6102b9858585610408565b506001949350505050565b6006546001600160a01b03163314806102db575060015b6103255760405162461bcd60e51b81526020600482015260166024820152752737ba1030baba3437b934bd32b2103a3790313ab93760511b60448201526064015b60405180910390fd5b6006546001600160a01b031633036103505760065461034d906001600160a01b031682610467565b50565b61034d3382610467565b606060048054610203906107df565b600033610294818585610408565b61038483838360016104a1565b505050565b6001600160a01b0383811660009081526001602090815260408083209386168352929052205460001981101561040257818110156103f357604051637dc7a0d960e11b81526001600160a01b0384166004820152602481018290526044810183905260640161031c565b610402848484840360006104a1565b50505050565b6001600160a01b03831661043257604051634b637e8f60e11b81526000600482015260240161031c565b6001600160a01b03821661045c5760405163ec442f0560e01b81526000600482015260240161031c565b610384838383610576565b6001600160a01b03821661049157604051634b637e8f60e11b81526000600482015260240161031c565b61049d82600083610576565b5050565b6001600160a01b0384166104cb5760405163e602df0560e01b81526000600482015260240161031c565b6001600160a01b0383166104f557604051634a1406b160e11b81526000600482015260240161031c565b6001600160a01b038085166000908152600160209081526040808320938716835292905220829055801561040257826001600160a01b0316846001600160a01b03167f8c5be1e5ebec7d5bd14f71427d1e84f3dd0314c0f7b2291e5b200ac8c7c3b9258460405161056891815260200190565b60405180910390a350505050565b6001600160a01b0383166105a15780600260008282546105969190610819565b909155506106139050565b6001600160a01b038316600090815260208190526040902054818110156105f45760405163391434e360e21b81526001600160a01b0385166004820152602481018290526044810183905260640161031c565b6001600160a01b03841660009081526020819052604090209082900390555b6001600160a01b03821661062f5760028054829003905561064e565b6001600160a01b03821660009081526020819052604090208054820190555b816001600160a01b0316836001600160a01b03167fddf252ad1be2c89b69c2b068fc378daa952ba7f163c4a11628f55a4df523b3ef8360405161069391815260200190565b60405180910390a3505050565b602081526000825180602084015260005b818110156106ce57602081860181015160408684010152016106b1565b506000604082850101526040601f19601f83011684010191505092915050565b80356001600160a01b038116811461070557600080fd5b919050565b6000806040838503121561071d57600080fd5b610726836106ee565b946020939093013593505050565b60008060006060848603121561074957600080fd5b610752846106ee565b9250610760602085016106ee565b929592945050506040919091013590565b60006020828403121561078357600080fd5b5035919050565b60006020828403121561079c57600080fd5b6107a5826106ee565b9392505050565b600080604083850312156107bf57600080fd5b6107c8836106ee565b91506107d6602084016106ee565b90509250929050565b600181811c908216806107f357607f821691505b60208210810361081357634e487b7160e01b600052602260045260246000fd5b50919050565b8082018082111561029a57634e487b7160e01b600052601160045260246000fdfea26469706673582212206845e6283ee8f0d75177448d85da90c367b5165b1a9a902311e411dcd5edcdf464736f6c634300081b0033",
  "linkReferences": {},
  "deployedLinkReferences": {}
}