{
  "_format": "hh-sol-artifact-1",
  "contractName": "FractionalToken",
  "sourceName": "contracts/FractionalToken.sol",
  "abi": [
    {
      "inputs": [
        {
          "internalType": "string",
          "name": "name",
          "type": "string"
        },
        {
          "internalType": "string",
          "name": "symbol",
          "type": "string"
        },
        {
          "internalType": "uint256",
          "name": "supply",
          "type": "uint256"
        },
        {
          "internalType": "uint256",
          "name": "_propertyId",
          "type": "uint256"
        },
        {
          "internalType": "address",
          "name": "ownerAddr",
          "type": "address"
        }
      ],
      "stateMutability": "nonpayable",
      "type": "constructor"
    },
    {
      "inputs": [
        {
          "internalType": "address",
          "name": "spender",
          "type": "address"
        },
        {
          "internalType": "uint256",
          "name": "allowance",
          "type": "uint256"
        },
        {
          "internalType": "uint256",
          "name": "needed",
          "type": "uint256"
        }
      ],
      "name": "ERC20InsufficientAllowance",
      "type": "error"
    },
    {
      "inputs": [
        {
          "internalType": "address",
          "name": "sender",
          "type": "address"
        },
        {
          "internalType": "uint256",
          "name": "balance",
          "type": "uint256"
        },
        {
          "internalType": "uint256",
          "name": "needed",
          "type": "uint256"
        }
      ],
      "name": "ERC20InsufficientBalance",
      "type": "error"
    },
    {
      "inputs": [
        {
          "internalType": "address",
          "name": "approver",
          "type": "address"
        }
      ],
      "name": "ERC20InvalidApprover",
      "type": "error"
    },
    {
      "inputs": [
        {
          "internalType": "address",
          "name": "receiver",
          "type": "address"
        }
      ],
      "name": "ERC20InvalidReceiver",
      "type": "error"
    },
    {
      "inputs": [
        {
          "internalType": "address",
          "name": "sender",
          "type": "address"
        }
      ],
      "name": "ERC20InvalidSender",
      "type": "error"
    },
    {
      "inputs": [
        {
          "internalType": "address",
          "name": "spender",
          "type": "address"
        }
      ],
      "name": "ERC20InvalidSpender",
      "type": "error"
    },
    {
      "anonymous": false,
      "inputs": [
        {
          "indexed": true,
          "internalType": "address",
          "name": "owner",
          "type": "address"
        },
        {
          "indexed": true,
          "internalType": "address",
          "name": "spender",
          "type": "address"
        },
        {
          "indexed": false,
          "internalType": "uint256",
          "name": "value",
          "type": "uint256"
        }
      ],
      "name": "Approval",
      "type": "event"
    },
    {
      "anonymous": false,
      "inputs": [
        {
          "indexed": true,
          "internalType": "address",
          "name": "from",
          "type": "address"
        },
        {
          "indexed": true,
          "internalType": "address",
          "name": "to",
          "type": "address"
        },
        {
          "indexed": false,
          "internalType": "uint256",
          "name": "value",
          "type": "uint256"
        }
      ],
      "name": "Transfer",
      "type": "event"
    },
    {
      "inputs": [
        {
          "internalType": "address",
          "name": "owner",
          "type": "address"
        },
        {
          "internalType": "address",
          "name": "spender",
          "type": "address"
        }
      ],
      "name": "allowance",
      "outputs": [
        {
          "internalType": "uint256",
          "name": "",
          "type": "uint256"
        }
      ],
      "stateMutability": "view",
      "type": "function"
    },
    {
      "inputs": [
        {
          "internalType": "address",
          "name": "spender",
          "type": "address"
        },
        {
          "internalType": "uint256",
          "name": "value",
          "type": "uint256"
        }
      ],
      "name": "approve",
      "outputs": [
        {
          "internalType": "bool",
          "name": "",
          "type": "bool"
        }
      ],
      "stateMutability": "nonpayable",
      "type": "function"
    },
    {
      "inputs": [
        {
          "internalType": "address",
          "name": "account",
          "type": "address"
        }
      ],
      "name": "balanceOf",
      "outputs": [
        {
          "internalType": "uint256",
          "name": "",
          "type": "uint256"
        }
      ],
      "stateMutability": "view",
      "type": "function"
    },
    {
      "inputs": [],
      "name": "decimals",
      "outputs": [
        {
          "internalType": "uint8",
          "name": "",
          "type": "uint8"
        }
      ],
      "stateMutability": "view",
      "type": "function"
    },
    {
      "inputs": [],
      "name": "name",
      "outputs": [
        {
          "internalType": "string",
          "name": "",
          "type": "string"
        }
      ],
      "stateMutability": "view",
      "type": "function"
    },
    {
      "inputs": [],
      "name": "propertyId",
      "outputs": [
        {
          "internalType": "uint256",
          "name": "",
          "type": "uint256"
        }
      ],
      "stateMutability": "view",
      "type": "function"
    },
    {
      "inputs": [],
      "name": "symbol",
      "outputs": [
        {
          "internalType": "string",
          "name": "",
          "type": "string"
        }
      ],
      "stateMutability": "view",
      "type": "function"
    },
    {
      "inputs": [],
      "name": "totalSupply",
      "outputs": [
        {
          "internalType": "uint256",
          "name": "",
          "type": "uint256"
        }
      ],
      "stateMutability": "view",
      "type": "function"
    },
    {
      "inputs": [
        {
          "internalType": "address",
          "name": "to",
          "type": "address"
        },
        {
          "internalType": "uint256",
          "name": "value",
          "type": "uint256"
        }
      ],
      "name": "transfer",
      "outputs": [
        {
          "internalType": "bool",
          "name": "",
          "type": "bool"
        }
      ],
      "stateMutability": "nonpayable",
      "type": "function"
    },
    {
      "inputs": [
        {
          "internalType": "address",
          "name": "from",
          "type": "address"
        },
        {
          "internalType": "address",
          "name": "to",
          "type": "address"
        },
        {
          "internalType": "uint256",
          "name": "value",
          "type": "uint256"
        }
      ],
      "name": "transferFrom",
      "outputs": [
        {
          "internalType": "bool",
          "name": "",
          "type": "bool"
        }
      ],
      "stateMutability": "nonpayable",
      "type": "function"
    }
  ],
  "bytecode": "0x608060405234801561001057600080fd5b50604051610bdb380380610bdb83398101604081905261002f91610288565b8484600361003d83826103b1565b50600461004a82826103b1565b505050600582905561005c8184610066565b5050505050610496565b6001600160a01b0382166100955760405163ec442f0560e01b8152600060048201526024015b60405180910390fd5b6100a1600083836100a5565b5050565b6001600160a01b0383166100d05780600260008282546100c5919061046f565b909155506101429050565b6001600160a01b038316600090815260208190526040902054818110156101235760405163391434e360e21b81526001600160a01b0385166004820152602481018290526044810183905260640161008c565b6001600160a01b03841660009081526020819052604090209082900390555b6001600160a01b03821661015e5760028054829003905561017d565b6001600160a01b03821660009081526020819052604090208054820190555b816001600160a01b0316836001600160a01b03167fddf252ad1be2c89b69c2b068fc378daa952ba7f163c4a11628f55a4df523b3ef836040516101c291815260200190565b60405180910390a3505050565b634e487b7160e01b600052604160045260246000fd5b600082601f8301126101f657600080fd5b81516001600160401b0381111561020f5761020f6101cf565b604051601f8201601f19908116603f011681016001600160401b038111828210171561023d5761023d6101cf565b60405281815283820160200185101561025557600080fd5b60005b8281101561027457602081860181015183830182015201610258565b506000918101602001919091529392505050565b600080600080600060a086880312156102a057600080fd5b85516001600160401b038111156102b657600080fd5b6102c2888289016101e5565b602088015190965090506001600160401b038111156102e057600080fd5b6102ec888289016101e5565b6040880151606089015160808a0151929750909550935090506001600160a01b038116811461031a57600080fd5b809150509295509295909350565b600181811c9082168061033c57607f821691505b60208210810361035c57634e487b7160e01b600052602260045260246000fd5b50919050565b601f8211156103ac57806000526020600020601f840160051c810160208510156103895750805b601f840160051c820191505b818110156103a95760008155600101610395565b50505b505050565b81516001600160401b038111156103ca576103ca6101cf565b6103de816103d88454610328565b84610362565b6020601f82116001811461041257600083156103fa5750848201515b600019600385901b1c1916600184901b1784556103a9565b600084815260208120601f198516915b828110156104425787850151825560209485019460019092019101610422565b50848210156104605786840151600019600387901b60f8161c191681555b50505050600190811b01905550565b8082018082111561049057634e487b7160e01b600052601160045260246000fd5b92915050565b610736806104a56000396000f3fe608060405234801561001057600080fd5b506004361061009e5760003560e01c806370a082311161006657806370a082311461011857806395d89b4114610141578063a9059cbb14610149578063dd62ed3e1461015c578063ee7a3b8e1461019557600080fd5b806306fdde03146100a3578063095ea7b3146100c157806318160ddd146100e457806323b872dd146100f6578063313ce56714610109575b600080fd5b6100ab61019e565b6040516100b8919061057f565b60405180910390f35b6100d46100cf3660046105e9565b610230565b60405190151581526020016100b8565b6002545b6040519081526020016100b8565b6100d4610104366004610613565b61024a565b604051601281526020016100b8565b6100e8610126366004610650565b6001600160a01b031660009081526020819052604090205490565b6100ab61026e565b6100d46101573660046105e9565b61027d565b6100e861016a366004610672565b6001600160a01b03918216600090815260016020908152604080832093909416825291909152205490565b6100e860055481565b6060600380546101ad906106a5565b80601f01602080910402602001604051908101604052809291908181526020018280546101d9906106a5565b80156102265780601f106101fb57610100808354040283529160200191610226565b820191906000526020600020905b81548152906001019060200180831161020957829003601f168201915b5050505050905090565b60003361023e81858561028b565b60019150505b92915050565b60003361025885828561029d565b610263858585610321565b506001949350505050565b6060600480546101ad906106a5565b60003361023e818585610321565b6102988383836001610380565b505050565b6001600160a01b0383811660009081526001602090815260408083209386168352929052205460001981101561031b578181101561030c57604051637dc7a0d960e11b81526001600160a01b038416600482015260248101829052604481018390526064015b60405180910390fd5b61031b84848484036000610380565b50505050565b6001600160a01b03831661034b57604051634b637e8f60e11b815260006004820152602401610303565b6001600160a01b0382166103755760405163ec442f0560e01b815260006004820152602401610303565b610298838383610455565b6001600160a01b0384166103aa5760405163e602df0560e01b815260006004820152602401610303565b6001600160a01b0383166103d457604051634a1406b160e11b815260006004820152602401610303565b6001600160a01b038085166000908152600160209081526040808320938716835292905220829055801561031b57826001600160a01b0316846001600160a01b03167f8c5be1e5ebec7d5bd14f71427d1e84f3dd0314c0f7b2291e5b200ac8c7c3b9258460405161044791815260200190565b60405180910390a350505050565b6001600160a01b03831661048057806002600082825461047591906106df565b909155506104f29050565b6001600160a01b038316600090815260208190526040902054818110156104d35760405163391434e360e21b81526001600160a01b03851660048201526024810182905260448101839052606401610303565b6001600160a01b03841660009081526020819052604090209082900390555b6001600160a01b03821661050e5760028054829003905561052d565b6001600160a01b03821660009081526020819052604090208054820190555b816001600160a01b0316836001600160a01b03167fddf252ad1be2c89b69c2b068fc378daa952ba7f163c4a11628f55a4df523b3ef8360405161057291815260200190565b60405180910390a3505050565b602081526000825180602084015260005b818110156105ad5760208186018101516040868401015201610590565b506000604082850101526040601f19601f83011684010191505092915050565b80356001600160a01b03811681146105e457600080fd5b919050565b600080604083850312156105fc57600080fd5b610605836105cd565b946020939093013593505050565b60008060006060848603121561062857600080fd5b610631846105cd565b925061063f602085016105cd565b929592945050506040919091013590565b60006020828403121561066257600080fd5b61066b826105cd565b9392505050565b6000806040838503121561068557600080fd5b61068e836105cd565b915061069c602084016105cd565b90509250929050565b600181811c908216806106b957607f821691505b6020821081036106d957634e487b7160e01b600052602260045260246000fd5b50919050565b8082018082111561024457634e487b7160e01b600052601160045260246000fdfea26469706673582212208c79e0efc872c32a0680e641e29af460c9b0afaf4f8ed70b7daec7b816df341f64736f6c634300081b0033",
  "linkReferences": {},
  "deployedLinkReferences": {}
}