{
  "_format": "hh-sol-artifact-1",
  "contractName": "HybridEscrow",
  "sourceName": "contracts/HybridEscrow.sol",
  "abi": [
    {
      "inputs": [
        {
          "internalType": "address",
          "name": "_buyer",
          "type": "address"
        },
        {
          "internalType": "address",
          "name": "_seller",
          "type": "address"
        },
        {
          "internalType": "uint256",
          "name": "_price",
          "type": "uint256"
        },
        {
          "internalType": "enum HybridEscrow.EscrowType",
          "name": "_escrowType",
          "type": "uint8"
        },
        {
          "internalType": "address",
          "name": "assetAddress",
          "type": "address"
        },
        {
          "internalType": "uint256",
          "name": "assetAmountOrId",
          "type": "uint256"
        }
      ],
      "stateMutability": "nonpayable",
      "type": "constructor"
    },
    {
      "inputs": [],
      "name": "ReentrancyGuardReentrantCall",
      "type": "error"
    },
    {
      "inputs": [],
      "name": "buyer",
      "outputs": [
        {
          "internalType": "address",
          "name": "",
          "type": "address"
        }
      ],
      "stateMutability": "view",
      "type": "function"
    },
    {
      "inputs": [],
      "name": "depositAsset",
      "outputs": [],
      "stateMutability": "nonpayable",
      "type": "function"
    },
    {
      "inputs": [],
      "name": "depositPayment",
      "outputs": [],
      "stateMutability": "payable",
      "type": "function"
    },
    {
      "inputs": [],
      "name": "escrowType",
      "outputs": [
        {
          "internalType": "enum HybridEscrow.EscrowType",
          "name": "",
          "type": "uint8"
        }
      ],
      "stateMutability": "view",
      "type": "function"
    },
    {
      "inputs": [],
      "name": "finalize",
      "outputs": [],
      "stateMutability": "nonpayable",
      "type": "function"
    },
    {
      "inputs": [],
      "name": "fractionalToken",
      "outputs": [
        {
          "internalType": "contract IERC20",
          "name": "",
          "type": "address"
        }
      ],
      "stateMutability": "view",
      "type": "function"
    },
    {
      "inputs": [],
      "name": "isBuyerDeposited",
      "outputs": [
        {
          "internalType": "bool",
          "name": "",
          "type": "bool"
        }
      ],
      "stateMutability": "view",
      "type": "function"
    },
    {
      "inputs": [],
      "name": "isSellerDeposited",
      "outputs": [
        {
          "internalType": "bool",
          "name": "",
          "type": "bool"
        }
      ],
      "stateMutability": "view",
      "type": "function"
    },
    {
      "inputs": [],
      "name": "price",
      "outputs": [
        {
          "internalType": "uint256",
          "name": "",
          "type": "uint256"
        }
      ],
      "stateMutability": "view",
      "type": "function"
    },
    {
      "inputs": [],
      "name": "propertyNFT",
      "outputs": [
        {
          "internalType": "contract IERC721",
          "name": "",
          "type": "address"
        }
      ],
      "stateMutability": "view",
      "type": "function"
    },
    {
      "inputs": [],
      "name": "seller",
      "outputs": [
        {
          "internalType": "address",
          "name": "",
          "type": "address"
        }
      ],
      "stateMutability": "view",
      "type": "function"
    },
    {
      "inputs": [],
      "name": "tokenAmount",
      "outputs": [
        {
          "internalType": "uint256",
          "name": "",
          "type": "uint256"
        }
      ],
      "stateMutability": "view",
      "type": "function"
    },
    {
      "inputs": [],
      "name": "tokenId",
      "outputs": [
        {
          "internalType": "uint256",
          "name": "",
          "type": "uint256"
        }
      ],
      "stateMutability": "view",
      "type": "function"
    }
  ],
  "bytecode": "0x608060405234801561001057600080fd5b5060405161094e38038061094e83398101604081905261002f9161011e565b6001600081905580546001600160a01b038089166001600160a01b03199283161783556002805491891691909216179055600385905560048054859262ff000019909116906201000090849081111561008a5761008a610191565b021790555060008360018111156100a3576100a3610191565b036100d657600480546301000000600160b81b03191663010000006001600160a01b0385160217905560058190556100f7565b600680546001600160a01b0319166001600160a01b03841617905560078190555b5050505050506101a7565b80516001600160a01b038116811461011957600080fd5b919050565b60008060008060008060c0878903121561013757600080fd5b61014087610102565b955061014e60208801610102565b6040880151606089015191965094506002811061016a57600080fd5b925061017860808801610102565b9150600060a08801519050809150509295509295509295565b634e487b7160e01b600052602160045260246000fd5b610798806101b66000396000f3fe6080604052600436106100c25760003560e01c80637150d8ae1161007f578063ccc41f2411610059578063ccc41f24146101f3578063d35eaf7214610208578063ed1ef48014610222578063eec7faa11461024f57600080fd5b80637150d8ae146101b5578063a035b1fe146101d5578063aa5e2153146101eb57600080fd5b806308551a53146100c757806317d70f7c1461010457806332b61dce1461012857806337f76838146101485780634bb278f31461016f5780636df4503514610186575b600080fd5b3480156100d357600080fd5b506002546100e7906001600160a01b031681565b6040516001600160a01b0390911681526020015b60405180910390f35b34801561011057600080fd5b5061011a60055481565b6040519081526020016100fb565b34801561013457600080fd5b506006546100e7906001600160a01b031681565b34801561015457600080fd5b506004546100e790630100000090046001600160a01b031681565b34801561017b57600080fd5b50610184610265565b005b34801561019257600080fd5b506004546101a590610100900460ff1681565b60405190151581526020016100fb565b3480156101c157600080fd5b506001546100e7906001600160a01b031681565b3480156101e157600080fd5b5061011a60035481565b610184610496565b3480156101ff57600080fd5b50610184610541565b34801561021457600080fd5b506004546101a59060ff1681565b34801561022e57600080fd5b506004546102429062010000900460ff1681565b6040516100fb9190610711565b34801561025b57600080fd5b5061011a60075481565b61026d6106d1565b60045460ff1680156102865750600454610100900460ff165b6102cd5760405162461bcd60e51b8152602060048201526013602482015272457363726f77206e6f7420636f6d706c65746560681b60448201526064015b60405180910390fd5b6002546003546040516000926001600160a01b031691908381818185875af1925050503d806000811461031c576040519150601f19603f3d011682016040523d82523d6000602084013e610321565b606091505b50509050806103685760405162461bcd60e51b8152602060048201526013602482015272115512081d1c985b9cd9995c8819985a5b1959606a1b60448201526064016102c4565b600060045462010000900460ff166001811115610387576103876106fb565b0361040a57600480546001546005546040516323b872dd60e01b815230948101949094526001600160a01b0391821660248501526044840152630100000090910416906323b872dd90606401600060405180830381600087803b1580156103ed57600080fd5b505af1158015610401573d6000803e3d6000fd5b50505050610489565b60065460015460075460405163a9059cbb60e01b81526001600160a01b039283166004820152602481019190915291169063a9059cbb906044016020604051808303816000875af1158015610463573d6000803e3d6000fd5b505050506040513d601f19601f820116820180604052508101906104879190610739565b505b506104946001600055565b565b61049e6106d1565b6001546001600160a01b031633146104e55760405162461bcd60e51b815260206004820152600a60248201526927b7363c90313abcb2b960b11b60448201526064016102c4565b600354341461052a5760405162461bcd60e51b8152602060048201526011602482015270125b98dbdc9c9958dd081c185e5b595b9d607a1b60448201526064016102c4565b6004805460ff191660011790556104946001600055565b6105496106d1565b6002546001600160a01b031633146105915760405162461bcd60e51b815260206004820152600b60248201526a27b7363c9039b2b63632b960a91b60448201526064016102c4565b600060045462010000900460ff1660018111156105b0576105b06106fb565b0361063357600480546002546005546040516323b872dd60e01b81526001600160a01b03928316948101949094523060248501526044840152630100000090910416906323b872dd90606401600060405180830381600087803b15801561061657600080fd5b505af115801561062a573d6000803e3d6000fd5b505050506106b8565b6006546002546007546040516323b872dd60e01b81526001600160a01b03928316600482015230602482015260448101919091529116906323b872dd906064016020604051808303816000875af1158015610692573d6000803e3d6000fd5b505050506040513d601f19601f820116820180604052508101906106b69190610739565b505b6004805461ff0019166101001790556104946001600055565b6002600054036106f457604051633ee5aeb560e01b815260040160405180910390fd5b6002600055565b634e487b7160e01b600052602160045260246000fd5b602081016002831061073357634e487b7160e01b600052602160045260246000fd5b91905290565b60006020828403121561074b57600080fd5b8151801515811461075b57600080fd5b939250505056fea2646970667358221220067a08ee81ab457a0732db7645dcbbbdff214727a8e41056b9c58325444c0ef464736f6c634300081b0033",
  "linkReferences": {},
  "deployedLinkReferences": {}
}