{
  "_format": "hh-sol-artifact-1",
  "contractName": "LastWillRegistry",
  "sourceName": "contracts/LastWillRegistry.sol",
  "abi": [
    {
      "inputs": [
        {
          "internalType": "address",
          "name": "_propertyNFT",
          "type": "address"
        },
        {
          "internalType": "address",
          "name": "initialOwner",
          "type": "address"
        }
      ],
      "stateMutability": "nonpayable",
      "type": "constructor"
    },
    {
      "inputs": [
        {
          "internalType": "address",
          "name": "owner",
          "type": "address"
        }
      ],
      "name": "OwnableInvalidOwner",
      "type": "error"
    },
    {
      "inputs": [
        {
          "internalType": "address",
          "name": "account",
          "type": "address"
        }
      ],
      "name": "OwnableUnauthorizedAccount",
      "type": "error"
    },
    {
      "inputs": [],
      "name": "ReentrancyGuardReentrantCall",
      "type": "error"
    },
    {
      "anonymous": false,
      "inputs": [
        {
          "indexed": true,
          "internalType": "uint256",
          "name": "tokenId",
          "type": "uint256"
        },
        {
          "indexed": true,
          "internalType": "address",
          "name": "owner",
          "type": "address"
        },
        {
          "indexed": true,
          "internalType": "address",
          "name": "verifiedBy",
          "type": "address"
        },
        {
          "indexed": false,
          "internalType": "string",
          "name": "deathCertificateHash",
          "type": "string"
        },
        {
          "indexed": false,
          "internalType": "uint256",
          "name": "waitingPeriodEnd",
          "type": "uint256"
        }
      ],
      "name": "DeathVerified",
      "type": "event"
    },
    {
      "anonymous": false,
      "inputs": [
        {
          "indexed": true,
          "internalType": "address",
          "name": "executor",
          "type": "address"
        },
        {
          "indexed": false,
          "internalType": "bool",
          "name": "status",
          "type": "bool"
        }
      ],
      "name": "ExecutorAuthorized",
      "type": "event"
    },
    {
      "anonymous": false,
      "inputs": [
        {
          "indexed": true,
          "internalType": "address",
          "name": "previousOwner",
          "type": "address"
        },
        {
          "indexed": true,
          "internalType": "address",
          "name": "newOwner",
          "type": "address"
        }
      ],
      "name": "OwnershipTransferred",
      "type": "event"
    },
    {
      "anonymous": false,
      "inputs": [
        {
          "indexed": true,
          "internalType": "uint256",
          "name": "tokenId",
          "type": "uint256"
        },
        {
          "indexed": true,
          "internalType": "address",
          "name": "owner",
          "type": "address"
        },
        {
          "indexed": true,
          "internalType": "address",
          "name": "beneficiary",
          "type": "address"
        },
        {
          "indexed": false,
          "internalType": "address",
          "name": "witness1",
          "type": "address"
        },
        {
          "indexed": false,
          "internalType": "address",
          "name": "witness2",
          "type": "address"
        },
        {
          "indexed": false,
          "internalType": "string",
          "name": "ipfsHash",
          "type": "string"
        }
      ],
      "name": "WillCreated",
      "type": "event"
    },
    {
      "anonymous": false,
      "inputs": [
        {
          "indexed": true,
          "internalType": "uint256",
          "name": "tokenId",
          "type": "uint256"
        },
        {
          "indexed": true,
          "internalType": "address",
          "name": "beneficiary",
          "type": "address"
        },
        {
          "indexed": false,
          "internalType": "address",
          "name": "executor",
          "type": "address"
        },
        {
          "indexed": false,
          "internalType": "uint256",
          "name": "timestamp",
          "type": "uint256"
        }
      ],
      "name": "WillExecuted",
      "type": "event"
    },
    {
      "anonymous": false,
      "inputs": [
        {
          "indexed": true,
          "internalType": "uint256",
          "name": "tokenId",
          "type": "uint256"
        },
        {
          "indexed": true,
          "internalType": "address",
          "name": "owner",
          "type": "address"
        },
        {
          "indexed": false,
          "internalType": "uint256",
          "name": "timestamp",
          "type": "uint256"
        }
      ],
      "name": "WillRevoked",
      "type": "event"
    },
    {
      "anonymous": false,
      "inputs": [
        {
          "indexed": true,
          "internalType": "uint256",
          "name": "tokenId",
          "type": "uint256"
        },
        {
          "indexed": true,
          "internalType": "address",
          "name": "oldBeneficiary",
          "type": "address"
        },
        {
          "indexed": true,
          "internalType": "address",
          "name": "newBeneficiary",
          "type": "address"
        }
      ],
      "name": "WillTransferred",
      "type": "event"
    },
    {
      "anonymous": false,
      "inputs": [
        {
          "indexed": true,
          "internalType": "uint256",
          "name": "tokenId",
          "type": "uint256"
        },
        {
          "indexed": true,
          "internalType": "address",
          "name": "witness",
          "type": "address"
        },
        {
          "indexed": false,
          "internalType": "bool",
          "name": "approved",
          "type": "bool"
        }
      ],
      "name": "WillWitnessed",
      "type": "event"
    },
    {
      "inputs": [],
      "name": "WAITING_PERIOD_DAYS",
      "outputs": [
        {
          "internalType": "uint256",
          "name": "",
          "type": "uint256"
        }
      ],
      "stateMutability": "view",
      "type": "function"
    },
    {
      "inputs": [],
      "name": "WAITING_PERIOD_SECONDS",
      "outputs": [
        {
          "internalType": "uint256",
          "name": "",
          "type": "uint256"
        }
      ],
      "stateMutability": "view",
      "type": "function"
    },
    {
      "inputs": [
        {
          "internalType": "address",
          "name": "",
          "type": "address"
        }
      ],
      "name": "authorizedExecutors",
      "outputs": [
        {
          "internalType": "bool",
          "name": "",
          "type": "bool"
        }
      ],
      "stateMutability": "view",
      "type": "function"
    },
    {
      "inputs": [
        {
          "internalType": "uint256",
          "name": "tokenId",
          "type": "uint256"
        },
        {
          "internalType": "address",
          "name": "beneficiary",
          "type": "address"
        },
        {
          "internalType": "address",
          "name": "witness1",
          "type": "address"
        },
        {
          "internalType": "address",
          "name": "witness2",
          "type": "address"
        },
        {
          "internalType": "string",
          "name": "ipfsHash",
          "type": "string"
        }
      ],
      "name": "createWill",
      "outputs": [],
      "stateMutability": "nonpayable",
      "type": "function"
    },
    {
      "inputs": [
        {
          "internalType": "uint256",
          "name": "",
          "type": "uint256"
        }
      ],
      "name": "deathVerifications",
      "outputs": [
        {
          "internalType": "bool",
          "name": "isVerified",
          "type": "bool"
        },
        {
          "internalType": "uint256",
          "name": "verifiedAt",
          "type": "uint256"
        },
        {
          "internalType": "address",
          "name": "verifiedBy",
          "type": "address"
        },
        {
          "internalType": "string",
          "name": "deathCertificateHash",
          "type": "string"
        },
        {
          "internalType": "uint256",
          "name": "waitingPeriodEnd",
          "type": "uint256"
        }
      ],
      "stateMutability": "view",
      "type": "function"
    },
    {
      "inputs": [
        {
          "internalType": "uint256",
          "name": "tokenId",
          "type": "uint256"
        }
      ],
      "name": "executeWill",
      "outputs": [],
      "stateMutability": "nonpayable",
      "type": "function"
    },
    {
      "inputs": [
        {
          "internalType": "uint256",
          "name": "tokenId",
          "type": "uint256"
        }
      ],
      "name": "getDeathVerification",
      "outputs": [
        {
          "internalType": "bool",
          "name": "isVerified",
          "type": "bool"
        },
        {
          "internalType": "uint256",
          "name": "verifiedAt",
          "type": "uint256"
        },
        {
          "internalType": "address",
          "name": "verifiedBy",
          "type": "address"
        },
        {
          "internalType": "string",
          "name": "deathCertificateHash",
          "type": "string"
        },
        {
          "internalType": "uint256",
          "name": "waitingPeriodEnd",
          "type": "uint256"
        },
        {
          "internalType": "bool",
          "name": "canExecute",
          "type": "bool"
        }
      ],
      "stateMutability": "view",
      "type": "function"
    },
    {
      "inputs": [
        {
          "internalType": "uint256",
          "name": "tokenId",
          "type": "uint256"
        }
      ],
      "name": "getWill",
      "outputs": [
        {
          "internalType": "address",
          "name": "beneficiary",
          "type": "address"
        },
        {
          "internalType": "address",
          "name": "witness1",
          "type": "address"
        },
        {
          "internalType": "address",
          "name": "witness2",
          "type": "address"
        },
        {
          "internalType": "uint256",
          "name": "createdAt",
          "type": "uint256"
        },
        {
          "internalType": "uint256",
          "name": "executionDate",
          "type": "uint256"
        },
        {
          "internalType": "bool",
          "name": "isActive",
          "type": "bool"
        },
        {
          "internalType": "bool",
          "name": "isExecuted",
          "type": "bool"
        },
        {
          "internalType": "string",
          "name": "ipfsHash",
          "type": "string"
        },
        {
          "internalType": "enum LastWillRegistry.WitnessStatus",
          "name": "witness1Status",
          "type": "uint8"
        },
        {
          "internalType": "enum LastWillRegistry.WitnessStatus",
          "name": "witness2Status",
          "type": "uint8"
        }
      ],
      "stateMutability": "view",
      "type": "function"
    },
    {
      "inputs": [
        {
          "internalType": "uint256",
          "name": "tokenId",
          "type": "uint256"
        }
      ],
      "name": "hasActiveWill",
      "outputs": [
        {
          "internalType": "bool",
          "name": "",
          "type": "bool"
        }
      ],
      "stateMutability": "view",
      "type": "function"
    },
    {
      "inputs": [
        {
          "internalType": "uint256",
          "name": "tokenId",
          "type": "uint256"
        }
      ],
      "name": "isOwnerDeceased",
      "outputs": [
        {
          "internalType": "bool",
          "name": "",
          "type": "bool"
        }
      ],
      "stateMutability": "view",
      "type": "function"
    },
    {
      "inputs": [
        {
          "internalType": "uint256",
          "name": "tokenId",
          "type": "uint256"
        }
      ],
      "name": "isWillReadyForExecution",
      "outputs": [
        {
          "internalType": "bool",
          "name": "",
          "type": "bool"
        }
      ],
      "stateMutability": "view",
      "type": "function"
    },
    {
      "inputs": [],
      "name": "owner",
      "outputs": [
        {
          "internalType": "address",
          "name": "",
          "type": "address"
        }
      ],
      "stateMutability": "view",
      "type": "function"
    },
    {
      "inputs": [],
      "name": "propertyNFT",
      "outputs": [
        {
          "internalType": "contract IPropertyNFT",
          "name": "",
          "type": "address"
        }
      ],
      "stateMutability": "view",
      "type": "function"
    },
    {
      "inputs": [],
      "name": "renounceOwnership",
      "outputs": [],
      "stateMutability": "nonpayable",
      "type": "function"
    },
    {
      "inputs": [
        {
          "internalType": "uint256",
          "name": "tokenId",
          "type": "uint256"
        }
      ],
      "name": "revokeWill",
      "outputs": [],
      "stateMutability": "nonpayable",
      "type": "function"
    },
    {
      "inputs": [
        {
          "internalType": "address",
          "name": "executor",
          "type": "address"
        },
        {
          "internalType": "bool",
          "name": "status",
          "type": "bool"
        }
      ],
      "name": "setExecutorAuthorization",
      "outputs": [],
      "stateMutability": "nonpayable",
      "type": "function"
    },
    {
      "inputs": [
        {
          "internalType": "address",
          "name": "newOwner",
          "type": "address"
        }
      ],
      "name": "transferOwnership",
      "outputs": [],
      "stateMutability": "nonpayable",
      "type": "function"
    },
    {
      "inputs": [
        {
          "internalType": "uint256",
          "name": "tokenId",
          "type": "uint256"
        },
        {
          "internalType": "address",
          "name": "newBeneficiary",
          "type": "address"
        }
      ],
      "name": "updateBeneficiary",
      "outputs": [],
      "stateMutability": "nonpayable",
      "type": "function"
    },
    {
      "inputs": [
        {
          "internalType": "uint256",
          "name": "tokenId",
          "type": "uint256"
        },
        {
          "internalType": "string",
          "name": "deathCertificateHash",
          "type": "string"
        }
      ],
      "name": "verifyOwnerDeath",
      "outputs": [],
      "stateMutability": "nonpayable",
      "type": "function"
    },
    {
      "inputs": [
        {
          "internalType": "uint256",
          "name": "",
          "type": "uint256"
        },
        {
          "internalType": "uint256",
          "name": "",
          "type": "uint256"
        }
      ],
      "name": "willWitnesses",
      "outputs": [
        {
          "internalType": "address",
          "name": "",
          "type": "address"
        }
      ],
      "stateMutability": "view",
      "type": "function"
    },
    {
      "inputs": [
        {
          "internalType": "uint256",
          "name": "",
          "type": "uint256"
        }
      ],
      "name": "wills",
      "outputs": [
        {
          "internalType": "address",
          "name": "beneficiary",
          "type": "address"
        },
        {
          "internalType": "address",
          "name": "witness1",
          "type": "address"
        },
        {
          "internalType": "address",
          "name": "witness2",
          "type": "address"
        },
        {
          "internalType": "uint256",
          "name": "createdAt",
          "type": "uint256"
        },
        {
          "internalType": "uint256",
          "name": "executionDate",
          "type": "uint256"
        },
        {
          "internalType": "bool",
          "name": "isActive",
          "type": "bool"
        },
        {
          "internalType": "bool",
          "name": "isExecuted",
          "type": "bool"
        },
        {
          "internalType": "string",
          "name": "ipfsHash",
          "type": "string"
        },
        {
          "internalType": "enum LastWillRegistry.WitnessStatus",
          "name": "witness1Status",
          "type": "uint8"
        },
        {
          "internalType": "enum LastWillRegistry.WitnessStatus",
          "name": "witness2Status",
          "type": "uint8"
        }
      ],
      "stateMutability": "view",
      "type": "function"
    },
    {
      "inputs": [
        {
          "internalType": "uint256",
          "name": "tokenId",
          "type": "uint256"
        },
        {
          "internalType": "bool",
          "name": "approve",
          "type": "bool"
        }
      ],
      "name": "witnessWill",
      "outputs": [],
      "stateMutability": "nonpayable",
      "type": "function"
    }
  ],
  "bytecode": "0x608060405234801561001057600080fd5b506040516129f33803806129f383398101604081905261002f91610155565b806001600160a01b03811661005f57604051631e4fbdf760e01b8152600060048201526024015b60405180910390fd5b610068816100e9565b50600180556001600160a01b0382166100c35760405162461bcd60e51b815260206004820152601b60248201527f496e76616c69642050726f70657274794e4654206164647265737300000000006044820152606401610056565b50600680546001600160a01b0319166001600160a01b0392909216919091179055610188565b600080546001600160a01b038381166001600160a01b0319831681178455604051919092169283917f8be0079c531659141344cd1fd0a4f28419497f9722a3daafe3b4186f6b6457e09190a35050565b80516001600160a01b038116811461015057600080fd5b919050565b6000806040838503121561016857600080fd5b61017183610139565b915061017f60208401610139565b90509250929050565b61285c806101976000396000f3fe608060405234801561001057600080fd5b50600436106101425760003560e01c80637677f326116100b8578063be3fc68f1161007c578063be3fc68f146102f5578063e53b174614610308578063eaac26b11461031b578063ee7afefa1461032e578063f2fde38b14610341578063fbbdd5aa1461035457600080fd5b80637677f326146102865780638da5cb5b146102ab5780638db7fbe7146102bc578063a50d6583146102cf578063b3293518146102e257600080fd5b80635ecc66041161010a5780635ecc6604146101eb578063679d86a71461020e57806369006513146102315780636a80b6f014610247578063715018a61461025a57806374e1d1e81461026257600080fd5b806337f76838146101475780633e8eb5a4146101775780634192bbb01461018c57806343fdc25f146101b557806345ed6fd1146101d8575b600080fd5b60065461015a906001600160a01b031681565b6040516001600160a01b0390911681526020015b60405180910390f35b61018a6101853660046121c9565b61035c565b005b61019f61019a3660046121f9565b610612565b60405161016e9a99989796959493929190612290565b6101c86101c33660046121f9565b6107fd565b604051901515815260200161016e565b61018a6101e63660046123b5565b61083b565b6101c86101f93660046121f9565b60009081526005602052604090205460ff1690565b6101c861021c3660046123fc565b60046020526000908152604090205460ff1681565b610239601e81565b60405190815260200161016e565b61018a6102553660046121f9565b610bd1565b61018a610db6565b6102756102703660046121f9565b610dca565b60405161016e959493929190612420565b6102996102943660046121f9565b610e91565b60405161016e96959493929190612461565b6000546001600160a01b031661015a565b61019f6102ca3660046121f9565b610fca565b61018a6102dd3660046124b8565b6110c1565b6101c86102f03660046121f9565b61132b565b61018a6103033660046124dd565b61161b565b61018a6103163660046121f9565b6116d8565b61018a61032936600461250b565b611be4565b61015a61033c36600461258a565b612075565b61018a61034f3660046123fc565b6120ad565b6102396120e8565b6006546040516331a9108f60e11b815260048101849052839133916001600160a01b0390911690636352211e90602401602060405180830381865afa1580156103a9573d6000803e3d6000fd5b505050506040513d601f19601f820116820180604052508101906103cd91906125ac565b6001600160a01b0316146103fc5760405162461bcd60e51b81526004016103f3906125c9565b60405180910390fd5b6000838152600260205260409020600581015460ff1661042e5760405162461bcd60e51b81526004016103f3906125f5565b6005810154610100900460ff16156104885760405162461bcd60e51b815260206004820152601b60248201527f43616e6e6f74207570646174652065786563757465642077696c6c000000000060448201526064016103f3565b60008481526005602052604090205460ff161561050d5760405162461bcd60e51b815260206004820152603860248201527f43616e6e6f74207570646174652062656e65666963696172792061667465722060448201527f6f776e657220646561746820766572696669636174696f6e000000000000000060648201526084016103f3565b6001600160a01b0383166105595760405162461bcd60e51b8152602060048201526013602482015272496e76616c69642062656e656669636961727960681b60448201526064016103f3565b336001600160a01b038416036105b15760405162461bcd60e51b815260206004820152601e60248201527f43616e6e6f7420626520796f7572206f776e2062656e6566696369617279000060448201526064016103f3565b80546001600160a01b031981166001600160a01b03858116918217845560078401805461ffff19169055604051921691829087907f437cd4041bedf8ce8343995e706d7f4fda710b90d763747ab4a6eff573c6f8ff90600090a45050505050565b600081815260026020818152604080842081516101408101835281546001600160a01b03908116825260018301548116948201949094529381015490921690830152600381015460608381019190915260048201546080840152600582015460ff808216151560a086015261010090910416151560c0840152600682018054859485948594859485948594929385938493849391929160e0840191906106b79061262a565b80601f01602080910402602001604051908101604052809291908181526020018280546106e39061262a565b80156107305780601f1061070557610100808354040283529160200191610730565b820191906000526020600020905b81548152906001019060200180831161071357829003601f168201915b5050509183525050600782015460209091019060ff16600281111561075757610757612258565b600281111561076857610768612258565b81526020016007820160019054906101000a900460ff16600281111561079057610790612258565b60028111156107a1576107a1612258565b815250509050806000015181602001518260400151836060015184608001518560a001518660c001518760e001518861010001518961012001519a509a509a509a509a509a509a509a509a509a50509193959799509193959799565b60008181526002602052604081206005015460ff1680156108355750600082815260026020526040902060050154610100900460ff16155b92915050565b600654604051632474521560e21b81527f014df5ee2861d7f34562399ffa112fc59b51f810d2b875c3609ba0c31ac873d060048201819052336024830152916001600160a01b0316906391d1485490604401602060405180830381865afa1580156108aa573d6000803e3d6000fd5b505050506040513d601f19601f820116820180604052508101906108ce9190612664565b6109265760405162461bcd60e51b815260206004820152602360248201527f4f6e6c79206e6f746172792063616e20706572666f726d20746869732061637460448201526234b7b760e91b60648201526084016103f3565b60008381526002602052604090206005015460ff166109575760405162461bcd60e51b81526004016103f3906125f5565b60008381526005602052604090205460ff16156109af5760405162461bcd60e51b81526020600482015260166024820152751119585d1a08185b1c9958591e481d995c9a599a595960521b60448201526064016103f3565b6000825111610a005760405162461bcd60e51b815260206004820152601f60248201527f446561746820636572746966696361746520686173682072657175697265640060448201526064016103f3565b6006546040516331a9108f60e11b8152600481018590526000916001600160a01b031690636352211e90602401602060405180830381865afa158015610a4a573d6000803e3d6000fd5b505050506040513d601f19601f82011682018060405250810190610a6e91906125ac565b90506001600160a01b038116610ab65760405162461bcd60e51b815260206004820152600d60248201526c24b73b30b634b21037bbb732b960991b60448201526064016103f3565b6000610ac4601e6018612697565b610acf90603c612697565b610ada90603c612697565b610ae490426126ae565b6040805160a081018252600180825242602080840191825233848601908152606085018b81526080860188905260008d81526005909352959091208451815460ff191690151517815591519282019290925590516002820180546001600160a01b0319166001600160a01b039092169190911790559151929350916003820190610b6e9082612710565b5060808201518160040155905050336001600160a01b0316826001600160a01b0316867fe583bb015cbf7745b9cadf0aeae6078c1975224e347dd3574b7be614af237ec38785604051610bc29291906127cf565b60405180910390a45050505050565b6006546040516331a9108f60e11b815260048101839052829133916001600160a01b0390911690636352211e90602401602060405180830381865afa158015610c1e573d6000803e3d6000fd5b505050506040513d601f19601f82011682018060405250810190610c4291906125ac565b6001600160a01b031614610c685760405162461bcd60e51b81526004016103f3906125c9565b6000828152600260205260409020600581015460ff16610c9a5760405162461bcd60e51b81526004016103f3906125f5565b6005810154610100900460ff1615610cf45760405162461bcd60e51b815260206004820152601b60248201527f43616e6e6f74207265766f6b652065786563757465642077696c6c000000000060448201526064016103f3565b60008381526005602052604090205460ff1615610d6d5760405162461bcd60e51b815260206004820152603160248201527f43616e6e6f74207265766f6b652077696c6c206166746572206f776e6572206460448201527032b0ba34103b32b934b334b1b0ba34b7b760791b60648201526084016103f3565b60058101805460ff19169055604051428152339084907f5259aa3ac94d584e8e95b587c0e699c4a2b4ff9152eb08228bf8d9a5b152d541906020015b60405180910390a3505050565b610dbe61210d565b610dc8600061213a565b565b600560205260009081526040902080546001820154600283015460038401805460ff9094169492936001600160a01b039092169291610e089061262a565b80601f0160208091040260200160405190810160405280929190818152602001828054610e349061262a565b8015610e815780601f10610e5657610100808354040283529160200191610e81565b820191906000526020600020905b815481529060010190602001808311610e6457829003601f168201915b5050505050908060040154905085565b6000818152600560209081526040808320815160a081018352815460ff161515815260018201549381019390935260028101546001600160a01b03169183019190915260038101805484938493606093859384938493909290918388019190610ef99061262a565b80601f0160208091040260200160405190810160405280929190818152602001828054610f259061262a565b8015610f725780601f10610f4757610100808354040283529160200191610f72565b820191906000526020600020905b815481529060010190602001808311610f5557829003601f168201915b5050505050815260200160048201548152505090508060000151816020015182604001518360600151846080015185600001518015610fb5575085608001514210155b949d939c50919a509850965090945092505050565b600260208190526000918252604090912080546001820154928201546003830154600484015460058501546006860180546001600160a01b039687169887169795909616959394929360ff808416946101009094041692919061102c9061262a565b80601f01602080910402602001604051908101604052809291908181526020018280546110589061262a565b80156110a55780601f1061107a576101008083540402835291602001916110a5565b820191906000526020600020905b81548152906001019060200180831161108857829003601f168201915b5050506007909301549192505060ff808216916101009004168a565b6000828152600260205260409020600581015460ff166110f35760405162461bcd60e51b81526004016103f3906125f5565b6005810154610100900460ff16156111455760405162461bcd60e51b815260206004820152601560248201527415da5b1b08185b1c9958591e48195e1958dd5d1959605a1b60448201526064016103f3565b60018101546001600160a01b031633148061116c575060028101546001600160a01b031633145b6111b85760405162461bcd60e51b815260206004820152601b60248201527f4e6f742061207769746e65737320666f7220746869732077696c6c000000000060448201526064016103f3565b60018101546001600160a01b0316330361125f576000600782015460ff1660028111156111e7576111e7612258565b146112285760405162461bcd60e51b8152602060048201526011602482015270105b1c9958591e481dda5d1b995cdcd959607a1b60448201526064016103f3565b81611234576002611237565b60015b60078201805460ff1916600183600281111561125557611255612258565b02179055506112f5565b60006007820154610100900460ff16600281111561127f5761127f612258565b146112c05760405162461bcd60e51b8152602060048201526011602482015270105b1c9958591e481dda5d1b995cdcd959607a1b60448201526064016103f3565b816112cc5760026112cf565b60015b60078201805461ff0019166101008360028111156112ef576112ef612258565b02179055505b6040518215158152339084907f0a84b0f5ac379a61e45440a75a9fc204f6bdefd8298915e0f6374a8b00e15be790602001610da9565b600081815260026020818152604080842081516101408101835281546001600160a01b039081168252600183015481169482019490945293810154909216908301526003810154606083015260048101546080830152600581015460ff808216151560a085015261010090910416151560c08301526006810180548493929160e08401916113b89061262a565b80601f01602080910402602001604051908101604052809291908181526020018280546113e49061262a565b80156114315780601f1061140657610100808354040283529160200191611431565b820191906000526020600020905b81548152906001019060200180831161141457829003601f168201915b5050509183525050600782015460209091019060ff16600281111561145857611458612258565b600281111561146957611469612258565b81526020016007820160019054906101000a900460ff16600281111561149157611491612258565b60028111156114a2576114a2612258565b8152505090508060a0015115806114ba57508060c001515b156114c85750600092915050565b600181610100015160028111156114e1576114e1612258565b14158061150557506001816101200151600281111561150257611502612258565b14155b156115135750600092915050565b6000838152600560209081526040808320815160a081018352815460ff161515815260018201549381019390935260028101546001600160a01b03169183019190915260038101805460608401919061156b9061262a565b80601f01602080910402602001604051908101604052809291908181526020018280546115979061262a565b80156115e45780601f106115b9576101008083540402835291602001916115e4565b820191906000526020600020905b8154815290600101906020018083116115c757829003601f168201915b50505050508152602001600482015481525050905080600001511561161157608001514210159392505050565b5060019392505050565b61162361210d565b6001600160a01b0382166116795760405162461bcd60e51b815260206004820152601860248201527f496e76616c6964206578656375746f722061646472657373000000000000000060448201526064016103f3565b6001600160a01b038216600081815260046020908152604091829020805460ff191685151590811790915591519182527f61e59429ef81596566b5f5d75085a25d4043be4dd2ba28cc98d8677718e6d0c3910160405180910390a25050565b6116e061218a565b3360009081526004602052604090205460ff168061170857506000546001600160a01b031633145b6117545760405162461bcd60e51b815260206004820152601760248201527f4e6f7420617574686f72697a6564206578656375746f7200000000000000000060448201526064016103f3565b6000818152600260205260409020600581015460ff166117865760405162461bcd60e51b81526004016103f3906125f5565b6005810154610100900460ff16156117d85760405162461bcd60e51b815260206004820152601560248201527415da5b1b08185b1c9958591e48195e1958dd5d1959605a1b60448201526064016103f3565b6001600782015460ff1660028111156117f3576117f3612258565b14801561181d575060016007820154610100900460ff16600281111561181b5761181b612258565b145b6118695760405162461bcd60e51b815260206004820152601860248201527f57696c6c206e6f742066756c6c79207769746e6573736564000000000000000060448201526064016103f3565b6000828152600560209081526040808320815160a081018352815460ff161515815260018201549381019390935260028101546001600160a01b0316918301919091526003810180546060840191906118c19061262a565b80601f01602080910402602001604051908101604052809291908181526020018280546118ed9061262a565b801561193a5780601f1061190f5761010080835404028352916020019161193a565b820191906000526020600020905b81548152906001019060200180831161191d57829003601f168201915b5050505050815260200160048201548152505090508060000151156119ad5780608001514210156119ad5760405162461bcd60e51b815260206004820181905260248201527f57616974696e6720706572696f64206e6f742079657420636f6d706c6574656460448201526064016103f3565b6006546040516331a9108f60e11b8152600481018590526000916001600160a01b031690636352211e90602401602060405180830381865afa1580156119f7573d6000803e3d6000fd5b505050506040513d601f19601f82011682018060405250810190611a1b91906125ac565b825190915015611b01576006546040516331a9108f60e11b8152600481018690526001600160a01b0390911690636352211e90602401602060405180830381865afa158015611a6e573d6000803e3d6000fd5b505050506040513d601f19601f82011682018060405250810190611a9291906125ac565b6001600160a01b0316816001600160a01b031614611b015760405162461bcd60e51b815260206004820152602660248201527f4f776e6572206368616e6765642061667465722064656174682076657269666960448201526531b0ba34b7b760d11b60648201526084016103f3565b60058301805461ffff19166101001790554260048085019190915560065484546040516323b872dd60e01b81526001600160a01b03858116948201949094529083166024820152604481018790529116906323b872dd90606401600060405180830381600087803b158015611b7557600080fd5b505af1158015611b89573d6000803e3d6000fd5b50508454604080513381524260208201526001600160a01b0390921693508792507fa9824014d0e4888dc504c30c049344b7e7420fe8658f50314f8b7e543c57cf51910160405180910390a3505050611be160018055565b50565b6006546040516331a9108f60e11b815260048101879052869133916001600160a01b0390911690636352211e90602401602060405180830381865afa158015611c31573d6000803e3d6000fd5b505050506040513d601f19601f82011682018060405250810190611c5591906125ac565b6001600160a01b031614611c7b5760405162461bcd60e51b81526004016103f3906125c9565b60008681526002602052604090206005015460ff1615611ceb5760405162461bcd60e51b815260206004820152602560248201527f57696c6c20616c72656164792065786973747320666f7220746869732070726f604482015264706572747960d81b60648201526084016103f3565b6001600160a01b038516611d375760405162461bcd60e51b8152602060048201526013602482015272496e76616c69642062656e656669636961727960681b60448201526064016103f3565b6001600160a01b03841615801590611d5757506001600160a01b03831615155b611d975760405162461bcd60e51b8152602060048201526011602482015270496e76616c6964207769746e657373657360781b60448201526064016103f3565b826001600160a01b0316846001600160a01b031603611df85760405162461bcd60e51b815260206004820152601b60248201527f5769746e6573736573206d75737420626520646966666572656e74000000000060448201526064016103f3565b336001600160a01b03861603611e505760405162461bcd60e51b815260206004820152601e60248201527f43616e6e6f7420626520796f7572206f776e2062656e6566696369617279000060448201526064016103f3565b6000825111611e965760405162461bcd60e51b815260206004820152601260248201527112541194c81a185cda081c995c5d5a5c995960721b60448201526064016103f3565b604051806101400160405280866001600160a01b03168152602001856001600160a01b03168152602001846001600160a01b031681526020014281526020016000815260200160011515815260200160001515815260200183815260200160006002811115611f0757611f07612258565b815260200160009052600087815260026020818152604092839020845181546001600160a01b039182166001600160a01b031991821617835592860151600183018054918316918516919091179055938501519281018054939094169290911691909117909155606082015160038201556080820151600482015560a082015160058201805460c085015115156101000261ff00199315159390931661ffff199091161791909117905560e08201516006820190611fc59082612710565b5061010082015160078201805460ff19166001836002811115611fea57611fea612258565b021790555061012082015160078201805461ff00191661010083600281111561201557612015612258565b0217905550905050846001600160a01b0316336001600160a01b0316877f41563ee9df94e46a2953c9b40a5c4ccec12fa1b3e640c10754f2760c19aa0871878787604051612065939291906127f1565b60405180910390a4505050505050565b6003602052816000526040600020818154811061209157600080fd5b6000918252602090912001546001600160a01b03169150829050565b6120b561210d565b6001600160a01b0381166120df57604051631e4fbdf760e01b8152600060048201526024016103f3565b611be18161213a565b6120f4601e6018612697565b6120ff90603c612697565b61210a90603c612697565b81565b6000546001600160a01b03163314610dc85760405163118cdaa760e01b81523360048201526024016103f3565b600080546001600160a01b038381166001600160a01b0319831681178455604051919092169283917f8be0079c531659141344cd1fd0a4f28419497f9722a3daafe3b4186f6b6457e09190a35050565b6002600154036121ad57604051633ee5aeb560e01b815260040160405180910390fd5b6002600155565b6001600160a01b0381168114611be157600080fd5b600080604083850312156121dc57600080fd5b8235915060208301356121ee816121b4565b809150509250929050565b60006020828403121561220b57600080fd5b5035919050565b6000815180845260005b818110156122385760208185018101518683018201520161221c565b506000602082860101526020601f19601f83011685010191505092915050565b634e487b7160e01b600052602160045260246000fd5b6003811061228c57634e487b7160e01b600052602160045260246000fd5b9052565b6001600160a01b038b811682528a8116602083015289166040820152606081018890526080810187905285151560a082015284151560c082015261014060e082018190526000906122e390830186612212565b90506122f361010083018561226e565b61230161012083018461226e565b9b9a5050505050505050505050565b634e487b7160e01b600052604160045260246000fd5b600082601f83011261233757600080fd5b813567ffffffffffffffff81111561235157612351612310565b604051601f8201601f19908116603f0116810167ffffffffffffffff8111828210171561238057612380612310565b60405281815283820160200185101561239857600080fd5b816020850160208301376000918101602001919091529392505050565b600080604083850312156123c857600080fd5b82359150602083013567ffffffffffffffff8111156123e657600080fd5b6123f285828601612326565b9150509250929050565b60006020828403121561240e57600080fd5b8135612419816121b4565b9392505050565b851515815284602082015260018060a01b038416604082015260a06060820152600061244f60a0830185612212565b90508260808301529695505050505050565b861515815285602082015260018060a01b038516604082015260c06060820152600061249060c0830186612212565b60808301949094525090151560a090910152949350505050565b8015158114611be157600080fd5b600080604083850312156124cb57600080fd5b8235915060208301356121ee816124aa565b600080604083850312156124f057600080fd5b82356124fb816121b4565b915060208301356121ee816124aa565b600080600080600060a0868803121561252357600080fd5b853594506020860135612535816121b4565b93506040860135612545816121b4565b92506060860135612555816121b4565b9150608086013567ffffffffffffffff81111561257157600080fd5b61257d88828901612326565b9150509295509295909350565b6000806040838503121561259d57600080fd5b50508035926020909101359150565b6000602082840312156125be57600080fd5b8151612419816121b4565b6020808252601290820152712737ba10383937b832b93a3c9037bbb732b960711b604082015260600190565b6020808252818101527f4e6f206163746976652077696c6c20666f7220746869732070726f7065727479604082015260600190565b600181811c9082168061263e57607f821691505b60208210810361265e57634e487b7160e01b600052602260045260246000fd5b50919050565b60006020828403121561267657600080fd5b8151612419816124aa565b634e487b7160e01b600052601160045260246000fd5b808202811582820484141761083557610835612681565b8082018082111561083557610835612681565b601f82111561270b57806000526020600020601f840160051c810160208510156126e85750805b601f840160051c820191505b8181101561270857600081556001016126f4565b50505b505050565b815167ffffffffffffffff81111561272a5761272a612310565b61273e81612738845461262a565b846126c1565b6020601f821160018114612772576000831561275a5750848201515b600019600385901b1c1916600184901b178455612708565b600084815260208120601f198516915b828110156127a25787850151825560209485019460019092019101612782565b50848210156127c05786840151600019600387901b60f8161c191681555b50505050600190811b01905550565b6040815260006127e26040830185612212565b90508260208301529392505050565b6001600160a01b0384811682528316602082015260606040820181905260009061281d90830184612212565b9594505050505056fea2646970667358221220df383fe94b8f01584b29b35c73eaa3806025c3972719a3202f0e05ec203ad2b664736f6c634300081b0033",
  "linkReferences": {},
  "deployedLinkReferences": {}
}