{
  "_format": "hh-sol-artifact-1",
  "contractName": "Marketplace",
  "sourceName": "contracts/Marketplace.sol",
  "abi": [
    {
      "inputs": [],
      "name": "ReentrancyGuardReentrantCall",
      "type": "error"
    },
    {
      "anonymous": false,
      "inputs": [
        {
          "indexed": true,
          "internalType": "uint256",
          "name": "listingId",
          "type": "uint256"
        }
      ],
      "name": "Cancelled",
      "type": "event"
    },
    {
      "anonymous": false,
      "inputs": [
        {
          "indexed": true,
          "internalType": "uint256",
          "name": "listingId",
          "type": "uint256"
        },
        {
          "indexed": true,
          "internalType": "address",
          "name": "seller",
          "type": "address"
        },
        {
          "indexed": false,
          "internalType": "uint256",
          "name": "tokenId",
          "type": "uint256"
        },
        {
          "indexed": false,
          "internalType": "uint256",
          "name": "price",
          "type": "uint256"
        },
        {
          "indexed": false,
          "internalType": "enum Marketplace.ListingType",
          "name": "listingType",
          "type": "uint8"
        }
      ],
      "name": "Listed",
      "type": "event"
    },
    {
      "anonymous": false,
      "inputs": [
        {
          "indexed": true,
          "internalType": "uint256",
          "name": "listingId",
          "type": "uint256"
        },
        {
          "indexed": true,
          "internalType": "address",
          "name": "buyer",
          "type": "address"
        },
        {
          "indexed": false,
          "internalType": "uint256",
          "name": "price",
          "type": "uint256"
        },
        {
          "indexed": false,
          "internalType": "uint256",
          "name": "amount",
          "type": "uint256"
        }
      ],
      "name": "Sold",
      "type": "event"
    },
    {
      "inputs": [
        {
          "internalType": "uint256",
          "name": "listingId",
          "type": "uint256"
        },
        {
          "internalType": "uint256",
          "name": "amount",
          "type": "uint256"
        }
      ],
      "name": "buyFractionalTokens",
      "outputs": [],
      "stateMutability": "payable",
      "type": "function"
    },
    {
      "inputs": [
        {
          "internalType": "uint256",
          "name": "listingId",
          "type": "uint256"
        }
      ],
      "name": "buyNFT",
      "outputs": [],
      "stateMutability": "payable",
      "type": "function"
    },
    {
      "inputs": [
        {
          "internalType": "uint256",
          "name": "listingId",
          "type": "uint256"
        }
      ],
      "name": "cancelListing",
      "outputs": [],
      "stateMutability": "nonpayable",
      "type": "function"
    },
    {
      "inputs": [
        {
          "internalType": "uint256",
          "name": "listingId",
          "type": "uint256"
        }
      ],
      "name": "getListing",
      "outputs": [
        {
          "components": [
            {
              "internalType": "address",
              "name": "seller",
              "type": "address"
            },
            {
              "internalType": "address",
              "name": "nftAddress",
              "type": "address"
            },
            {
              "internalType": "uint256",
              "name": "tokenId",
              "type": "uint256"
            },
            {
              "internalType": "address",
              "name": "tokenAddress",
              "type": "address"
            },
            {
              "internalType": "uint256",
              "name": "price",
              "type": "uint256"
            },
            {
              "internalType": "uint256",
              "name": "amount",
              "type": "uint256"
            },
            {
              "internalType": "enum Marketplace.ListingType",
              "name": "listingType",
              "type": "uint8"
            },
            {
              "internalType": "bool",
              "name": "isActive",
              "type": "bool"
            }
          ],
          "internalType": "struct Marketplace.Listing",
          "name": "",
          "type": "tuple"
        }
      ],
      "stateMutability": "view",
      "type": "function"
    },
    {
      "inputs": [
        {
          "internalType": "address",
          "name": "nftAddress",
          "type": "address"
        },
        {
          "internalType": "uint256",
          "name": "tokenId",
          "type": "uint256"
        },
        {
          "internalType": "address",
          "name": "tokenAddress",
          "type": "address"
        },
        {
          "internalType": "uint256",
          "name": "amount",
          "type": "uint256"
        },
        {
          "internalType": "uint256",
          "name": "pricePerToken",
          "type": "uint256"
        }
      ],
      "name": "listFractionalTokens",
      "outputs": [
        {
          "internalType": "uint256",
          "name": "",
          "type": "uint256"
        }
      ],
      "stateMutability": "nonpayable",
      "type": "function"
    },
    {
      "inputs": [
        {
          "internalType": "address",
          "name": "nftAddress",
          "type": "address"
        },
        {
          "internalType": "uint256",
          "name": "tokenId",
          "type": "uint256"
        },
        {
          "internalType": "uint256",
          "name": "price",
          "type": "uint256"
        }
      ],
      "name": "listNFT",
      "outputs": [
        {
          "internalType": "uint256",
          "name": "",
          "type": "uint256"
        }
      ],
      "stateMutability": "nonpayable",
      "type": "function"
    },
    {
      "inputs": [
        {
          "internalType": "uint256",
          "name": "",
          "type": "uint256"
        }
      ],
      "name": "listings",
      "outputs": [
        {
          "internalType": "address",
          "name": "seller",
          "type": "address"
        },
        {
          "internalType": "address",
          "name": "nftAddress",
          "type": "address"
        },
        {
          "internalType": "uint256",
          "name": "tokenId",
          "type": "uint256"
        },
        {
          "internalType": "address",
          "name": "tokenAddress",
          "type": "address"
        },
        {
          "internalType": "uint256",
          "name": "price",
          "type": "uint256"
        },
        {
          "internalType": "uint256",
          "name": "amount",
          "type": "uint256"
        },
        {
          "internalType": "enum Marketplace.ListingType",
          "name": "listingType",
          "type": "uint8"
        },
        {
          "internalType": "bool",
          "name": "isActive",
          "type": "bool"
        }
      ],
      "stateMutability": "view",
      "type": "function"
    },
    {
      "inputs": [],
      "name": "nextListingId",
      "outputs": [
        {
          "internalType": "uint256",
          "name": "",
          "type": "uint256"
        }
      ],
      "stateMutability": "view",
      "type": "function"
    }
  ],
  "bytecode": "0x6080604052348015600f57600080fd5b5060016000556113a7806100246000396000f3fe60806040526004361061007b5760003560e01c8063aaccf1ec1161004e578063aaccf1ec146100fe578063ad05f1b414610122578063b8ce9e3014610142578063de74e57b1461016257600080fd5b8063107a274a14610080578063305a67a8146100b657806351ed8288146100d857806364054b67146100eb575b600080fd5b34801561008c57600080fd5b506100a061009b36600461108c565b6101e8565b6040516100ad91906110dd565b60405180910390f35b3480156100c257600080fd5b506100d66100d136600461108c565b6102dd565b005b6100d66100e636600461108c565b61039b565b6100d66100f9366004611156565b61062b565b34801561010a57600080fd5b5061011460015481565b6040519081526020016100ad565b34801561012e57600080fd5b5061011461013d36600461118d565b610953565b34801561014e57600080fd5b5061011461015d3660046111c2565b610cd3565b34801561016e57600080fd5b506101d461017d36600461108c565b600260208190526000918252604090912080546001820154928201546003830154600484015460058501546006909501546001600160a01b0394851696851695939490921692909160ff8082169161010090041688565b6040516100ad989796959493929190611214565b6040805161010081018252600080825260208201819052918101829052606081018290526080810182905260a0810182905260c0810182905260e081019190915260008281526002602081815260409283902083516101008101855281546001600160a01b03908116825260018084015482169483019490945293820154948101949094526003810154909216606084015260048201546080840152600582015460a0840152600682015460c084019160ff909116908111156102ad576102ad6110a5565b60018111156102be576102be6110a5565b815260069190910154610100900460ff16151560209091015292915050565b600081815260026020526040902080546001600160a01b031633146103365760405162461bcd60e51b815260206004820152600a6024820152692737ba1039b2b63632b960b11b60448201526064015b60405180910390fd5b6006810154610100900460ff1661035f5760405162461bcd60e51b815260040161032d9061126c565b60068101805461ff001916905560405182907fc41d93b8bfbf9fd7cf5bfe271fd649ab6a6fec0ea101c23b82a2a28eca2533a990600090a25050565b6103a3611062565b60008181526002602052604090206006810154610100900460ff166103da5760405162461bcd60e51b815260040161032d9061126c565b6000600682015460ff1660018111156103f5576103f56110a5565b146104345760405162461bcd60e51b815260206004820152600f60248201526e4e6f74204e4654206c697374696e6760881b604482015260640161032d565b806004015434146104755760405162461bcd60e51b815260206004820152600b60248201526a57726f6e6720707269636560a81b604482015260640161032d565b80546001600160a01b031633036104c35760405162461bcd60e51b815260206004820152601260248201527110d85b9b9bdd08189d5e481bdddb8813919560721b604482015260640161032d565b60068101805461ff00191690556001810154815460028301546040516323b872dd60e01b81526001600160a01b03928316600482015233602482015260448101919091529116906323b872dd90606401600060405180830381600087803b15801561052d57600080fd5b505af1158015610541573d6000803e3d6000fd5b50508254604051600093506001600160a01b03909116915034908381818185875af1925050503d8060008114610593576040519150601f19603f3d011682016040523d82523d6000602084013e610598565b606091505b50509050806105da5760405162461bcd60e51b815260206004820152600e60248201526d14185e5b595b9d0819985a5b195960921b604482015260640161032d565b60048201546040805191825260016020830152339185917fcd1c39d27a443bebce7f2cf1cb49519e7586ec24d1a7a7c9fcc00f57cd8efbfb910160405180910390a350506106286001600055565b50565b610633611062565b60008281526002602052604090206006810154610100900460ff1661066a5760405162461bcd60e51b815260040161032d9061126c565b6001600682015460ff166001811115610685576106856110a5565b146106cb5760405162461bcd60e51b81526020600482015260166024820152754e6f74206672616374696f6e616c206c697374696e6760501b604482015260640161032d565b6000821180156106df575080600501548211155b61071c5760405162461bcd60e51b815260206004820152600e60248201526d125b9d985b1a5908185b5bdd5b9d60921b604482015260640161032d565b80546001600160a01b0316330361076d5760405162461bcd60e51b815260206004820152601560248201527443616e6e6f7420627579206f776e20746f6b656e7360581b604482015260640161032d565b600082826004015461077f91906112a6565b90508034146107be5760405162461bcd60e51b815260206004820152600b60248201526a57726f6e6720707269636560a81b604482015260640161032d565b600382015482546040516323b872dd60e01b81526001600160a01b039182166004820152336024820152604481018690529116906323b872dd906064016020604051808303816000875af115801561081a573d6000803e3d6000fd5b505050506040513d601f19601f8201168201806040525081019061083e91906112c3565b508282600501600082825461085391906112ec565b909155505060058201546000036108725760068201805461ff00191690555b81546040516000916001600160a01b03169083908381818185875af1925050503d80600081146108be576040519150601f19603f3d011682016040523d82523d6000602084013e6108c3565b606091505b50509050806109055760405162461bcd60e51b815260206004820152600e60248201526d14185e5b595b9d0819985a5b195960921b604482015260640161032d565b6040805183815260208101869052339187917fcd1c39d27a443bebce7f2cf1cb49519e7586ec24d1a7a7c9fcc00f57cd8efbfb910160405180910390a350505061094f6001600055565b5050565b60008082116109a45760405162461bcd60e51b815260206004820152601c60248201527f5072696365206d7573742062652067726561746572207468616e203000000000604482015260640161032d565b6040516331a9108f60e11b81526004810184905233906001600160a01b03861690636352211e90602401602060405180830381865afa1580156109eb573d6000803e3d6000fd5b505050506040513d601f19601f82011682018060405250810190610a0f91906112ff565b6001600160a01b031614610a515760405162461bcd60e51b81526020600482015260096024820152682737ba1037bbb732b960b91b604482015260640161032d565b60405163e985e9c560e01b81523360048201523060248201526001600160a01b0385169063e985e9c590604401602060405180830381865afa158015610a9b573d6000803e3d6000fd5b505050506040513d601f19601f82011682018060405250810190610abf91906112c3565b80610b3b575060405163020604bf60e21b81526004810184905230906001600160a01b0386169063081812fc90602401602060405180830381865afa158015610b0c573d6000803e3d6000fd5b505050506040513d601f19601f82011682018060405250810190610b3091906112ff565b6001600160a01b0316145b610b765760405162461bcd60e51b815260206004820152600c60248201526b139bdd08185c1c1c9bdd995960a21b604482015260640161032d565b6001805460009182610b878361131c565b9091555060408051610100810182523381526001600160a01b0388811660208084019182528385018a8152600060608601818152608087018c8152600160a0890181815260c08a0185815260e08b018390528c86526002978890529a90942089518154908a166001600160a01b031991821617825597518183018054918b16918a1691909117905594519585019590955590516003840180549190971695169490941790945591516004830155915160058201559251600684018054959650929490929160ff19909116908381811115610c6357610c636110a5565b021790555060e09190910151600690910180549115156101000261ff0019909216919091179055604051339082907f0d9a1b2b9b827a509fe54415e86eb1568140ae03942bc63daaf380ca2e0a304690610cc39088908890600090611335565b60405180910390a3949350505050565b6000808311610d245760405162461bcd60e51b815260206004820152601d60248201527f416d6f756e74206d7573742062652067726561746572207468616e2030000000604482015260640161032d565b60008211610d745760405162461bcd60e51b815260206004820152601c60248201527f5072696365206d7573742062652067726561746572207468616e203000000000604482015260640161032d565b6040516370a0823160e01b8152336004820152849084906001600160a01b038316906370a0823190602401602060405180830381865afa158015610dbc573d6000803e3d6000fd5b505050506040513d601f19601f82011682018060405250810190610de09190611358565b1015610e255760405162461bcd60e51b8152602060048201526014602482015273496e73756666696369656e742062616c616e636560601b604482015260640161032d565b604051636eb1769f60e11b815233600482015230602482015284906001600160a01b0383169063dd62ed3e90604401602060405180830381865afa158015610e71573d6000803e3d6000fd5b505050506040513d601f19601f82011682018060405250810190610e959190611358565b1015610ed25760405162461bcd60e51b815260206004820152600c60248201526b139bdd08185c1c1c9bdd995960a21b604482015260640161032d565b6001805460009182610ee38361131c565b919050559050604051806101000160405280336001600160a01b03168152602001896001600160a01b03168152602001888152602001876001600160a01b03168152602001858152602001868152602001600180811115610f4657610f466110a5565b81526001602091820181905260008481526002808452604091829020855181546001600160a01b03199081166001600160a01b039283161783559587015182860180548816918316919091179055928601519181019190915560608501516003820180549095169216919091179092556080830151600483015560a0830151600583015560c08301516006830180549192909160ff1916908381811115610fef57610fef6110a5565b021790555060e09190910151600690910180549115156101000261ff0019909216919091179055604051339082907f0d9a1b2b9b827a509fe54415e86eb1568140ae03942bc63daaf380ca2e0a30469061104f908b908990600190611335565b60405180910390a3979650505050505050565b60026000540361108557604051633ee5aeb560e01b815260040160405180910390fd5b6002600055565b60006020828403121561109e57600080fd5b5035919050565b634e487b7160e01b600052602160045260246000fd5b600281106110d957634e487b7160e01b600052602160045260246000fd5b9052565b81516001600160a01b03908116825260208084015182169083015260408084015190830152606080840151909116908201526080808301519082015260a0828101519082015260c08083015161010083019161113b908401826110bb565b5060e083015161114f60e084018215159052565b5092915050565b6000806040838503121561116957600080fd5b50508035926020909101359150565b6001600160a01b038116811461062857600080fd5b6000806000606084860312156111a257600080fd5b83356111ad81611178565b95602085013595506040909401359392505050565b600080600080600060a086880312156111da57600080fd5b85356111e581611178565b94506020860135935060408601356111fc81611178565b94979396509394606081013594506080013592915050565b6001600160a01b038981168252888116602083015260408201889052861660608201526080810185905260a08101849052610100810161125760c08301856110bb565b82151560e08301529998505050505050505050565b6020808252600a90820152694e6f742061637469766560b01b604082015260600190565b634e487b7160e01b600052601160045260246000fd5b80820281158282048414176112bd576112bd611290565b92915050565b6000602082840312156112d557600080fd5b815180151581146112e557600080fd5b9392505050565b818103818111156112bd576112bd611290565b60006020828403121561131157600080fd5b81516112e581611178565b60006001820161132e5761132e611290565b5060010190565b838152602081018390526060810161135060408301846110bb565b949350505050565b60006020828403121561136a57600080fd5b505191905056fea2646970667358221220593f319d4b6de3234948bbc22557204a6819e494c1293591b9fd7305ef738ce464736f6c634300081b0033",
  "linkReferences": {},
  "deployedLinkReferences": {}
}