{
  "_format": "hh-sol-artifact-1",
  "contractName": "PropertyNFT",
  "sourceName": "contracts/PropertyNFT.sol",
  "abi": [
    {
      "inputs": [
        {
          "internalType": "address",
          "name": "initialOwner",
          "type": "address"
        }
      ],
      "stateMutability": "nonpayable",
      "type": "constructor"
    },
    {
      "inputs": [
        {
          "internalType": "address",
          "name": "sender",
          "type": "address"
        },
        {
          "internalType": "uint256",
          "name": "tokenId",
          "type": "uint256"
        },
        {
          "internalType": "address",
          "name": "owner",
          "type": "address"
        }
      ],
      "name": "ERC721IncorrectOwner",
      "type": "error"
    },
    {
      "inputs": [
        {
          "internalType": "address",
          "name": "operator",
          "type": "address"
        },
        {
          "internalType": "uint256",
          "name": "tokenId",
          "type": "uint256"
        }
      ],
      "name": "ERC721InsufficientApproval",
      "type": "error"
    },
    {
      "inputs": [
        {
          "internalType": "address",
          "name": "approver",
          "type": "address"
        }
      ],
      "name": "ERC721InvalidApprover",
      "type": "error"
    },
    {
      "inputs": [
        {
          "internalType": "address",
          "name": "operator",
          "type": "address"
        }
      ],
      "name": "ERC721InvalidOperator",
      "type": "error"
    },
    {
      "inputs": [
        {
          "internalType": "address",
          "name": "owner",
          "type": "address"
        }
      ],
      "name": "ERC721InvalidOwner",
      "type": "error"
    },
    {
      "inputs": [
        {
          "internalType": "address",
          "name": "receiver",
          "type": "address"
        }
      ],
      "name": "ERC721InvalidReceiver",
      "type": "error"
    },
    {
      "inputs": [
        {
          "internalType": "address",
          "name": "sender",
          "type": "address"
        }
      ],
      "name": "ERC721InvalidSender",
      "type": "error"
    },
    {
      "inputs": [
        {
          "internalType": "uint256",
          "name": "tokenId",
          "type": "uint256"
        }
      ],
      "name": "ERC721NonexistentToken",
      "type": "error"
    },
    {
      "inputs": [
        {
          "internalType": "address",
          "name": "owner",
          "type": "address"
        }
      ],
      "name": "OwnableInvalidOwner",
      "type": "error"
    },
    {
      "inputs": [
        {
          "internalType": "address",
          "name": "account",
          "type": "address"
        }
      ],
      "name": "OwnableUnauthorizedAccount",
      "type": "error"
    },
    {
      "anonymous": false,
      "inputs": [
        {
          "indexed": true,
          "internalType": "address",
          "name": "owner",
          "type": "address"
        },
        {
          "indexed": true,
          "internalType": "address",
          "name": "approved",
          "type": "address"
        },
        {
          "indexed": true,
          "internalType": "uint256",
          "name": "tokenId",
          "type": "uint256"
        }
      ],
      "name": "Approval",
      "type": "event"
    },
    {
      "anonymous": false,
      "inputs": [
        {
          "indexed": true,
          "internalType": "address",
          "name": "owner",
          "type": "address"
        },
        {
          "indexed": true,
          "internalType": "address",
          "name": "operator",
          "type": "address"
        },
        {
          "indexed": false,
          "internalType": "bool",
          "name": "approved",
          "type": "bool"
        }
      ],
      "name": "ApprovalForAll",
      "type": "event"
    },
    {
      "anonymous": false,
      "inputs": [
        {
          "indexed": true,
          "internalType": "address",
          "name": "previousOwner",
          "type": "address"
        },
        {
          "indexed": true,
          "internalType": "address",
          "name": "newOwner",
          "type": "address"
        }
      ],
      "name": "OwnershipTransferred",
      "type": "event"
    },
    {
      "anonymous": false,
      "inputs": [
        {
          "indexed": true,
          "internalType": "address",
          "name": "from",
          "type": "address"
        },
        {
          "indexed": true,
          "internalType": "address",
          "name": "to",
          "type": "address"
        },
        {
          "indexed": true,
          "internalType": "uint256",
          "name": "tokenId",
          "type": "uint256"
        }
      ],
      "name": "Transfer",
      "type": "event"
    },
    {
      "inputs": [
        {
          "internalType": "address",
          "name": "to",
          "type": "address"
        },
        {
          "internalType": "uint256",
          "name": "tokenId",
          "type": "uint256"
        }
      ],
      "name": "approve",
      "outputs": [],
      "stateMutability": "nonpayable",
      "type": "function"
    },
    {
      "inputs": [
        {
          "internalType": "address",
          "name": "owner",
          "type": "address"
        }
      ],
      "name": "balanceOf",
      "outputs": [
        {
          "internalType": "uint256",
          "name": "",
          "type": "uint256"
        }
      ],
      "stateMutability": "view",
      "type": "function"
    },
    {
      "inputs": [
        {
          "internalType": "uint256",
          "name": "tokenId",
          "type": "uint256"
        }
      ],
      "name": "getApproved",
      "outputs": [
        {
          "internalType": "address",
          "name": "",
          "type": "address"
        }
      ],
      "stateMutability": "view",
      "type": "function"
    },
    {
      "inputs": [
        {
          "internalType": "address",
          "name": "owner",
          "type": "address"
        },
        {
          "internalType": "address",
          "name": "operator",
          "type": "address"
        }
      ],
      "name": "isApprovedForAll",
      "outputs": [
        {
          "internalType": "bool",
          "name": "",
          "type": "bool"
        }
      ],
      "stateMutability": "view",
      "type": "function"
    },
    {
      "inputs": [],
      "name": "merkleRoot",
      "outputs": [
        {
          "internalType": "bytes32",
          "name": "",
          "type": "bytes32"
        }
      ],
      "stateMutability": "view",
      "type": "function"
    },
    {
      "inputs": [
        {
          "internalType": "string",
          "name": "uri",
          "type": "string"
        },
        {
          "internalType": "bytes32[]",
          "name": "proof",
          "type": "bytes32[]"
        }
      ],
      "name": "mintProperty",
      "outputs": [],
      "stateMutability": "nonpayable",
      "type": "function"
    },
    {
      "inputs": [],
      "name": "name",
      "outputs": [
        {
          "internalType": "string",
          "name": "",
          "type": "string"
        }
      ],
      "stateMutability": "view",
      "type": "function"
    },
    {
      "inputs": [],
      "name": "nextTokenId",
      "outputs": [
        {
          "internalType": "uint256",
          "name": "",
          "type": "uint256"
        }
      ],
      "stateMutability": "view",
      "type": "function"
    },
    {
      "inputs": [],
      "name": "owner",
      "outputs": [
        {
          "internalType": "address",
          "name": "",
          "type": "address"
        }
      ],
      "stateMutability": "view",
      "type": "function"
    },
    {
      "inputs": [
        {
          "internalType": "uint256",
          "name": "tokenId",
          "type": "uint256"
        }
      ],
      "name": "ownerOf",
      "outputs": [
        {
          "internalType": "address",
          "name": "",
          "type": "address"
        }
      ],
      "stateMutability": "view",
      "type": "function"
    },
    {
      "inputs": [],
      "name": "renounceOwnership",
      "outputs": [],
      "stateMutability": "nonpayable",
      "type": "function"
    },
    {
      "inputs": [
        {
          "internalType": "address",
          "name": "from",
          "type": "address"
        },
        {
          "internalType": "address",
          "name": "to",
          "type": "address"
        },
        {
          "internalType": "uint256",
          "name": "tokenId",
          "type": "uint256"
        }
      ],
      "name": "safeTransferFrom",
      "outputs": [],
      "stateMutability": "nonpayable",
      "type": "function"
    },
    {
      "inputs": [
        {
          "internalType": "address",
          "name": "from",
          "type": "address"
        },
        {
          "internalType": "address",
          "name": "to",
          "type": "address"
        },
        {
          "internalType": "uint256",
          "name": "tokenId",
          "type": "uint256"
        },
        {
          "internalType": "bytes",
          "name": "data",
          "type": "bytes"
        }
      ],
      "name": "safeTransferFrom",
      "outputs": [],
      "stateMutability": "nonpayable",
      "type": "function"
    },
    {
      "inputs": [
        {
          "internalType": "address",
          "name": "operator",
          "type": "address"
        },
        {
          "internalType": "bool",
          "name": "approved",
          "type": "bool"
        }
      ],
      "name": "setApprovalForAll",
      "outputs": [],
      "stateMutability": "nonpayable",
      "type": "function"
    },
    {
      "inputs": [
        {
          "internalType": "bytes32",
          "name": "root",
          "type": "bytes32"
        }
      ],
      "name": "setMerkleRoot",
      "outputs": [],
      "stateMutability": "nonpayable",
      "type": "function"
    },
    {
      "inputs": [
        {
          "internalType": "bytes4",
          "name": "interfaceId",
          "type": "bytes4"
        }
      ],
      "name": "supportsInterface",
      "outputs": [
        {
          "internalType": "bool",
          "name": "",
          "type": "bool"
        }
      ],
      "stateMutability": "view",
      "type": "function"
    },
    {
      "inputs": [],
      "name": "symbol",
      "outputs": [
        {
          "internalType": "string",
          "name": "",
          "type": "string"
        }
      ],
      "stateMutability": "view",
      "type": "function"
    },
    {
      "inputs": [
        {
          "internalType": "uint256",
          "name": "tokenId",
          "type": "uint256"
        }
      ],
      "name": "tokenURI",
      "outputs": [
        {
          "internalType": "string",
          "name": "",
          "type": "string"
        }
      ],
      "stateMutability": "view",
      "type": "function"
    },
    {
      "inputs": [
        {
          "internalType": "uint256",
          "name": "",
          "type": "uint256"
        }
      ],
      "name": "tokenURIMap",
      "outputs": [
        {
          "internalType": "string",
          "name": "",
          "type": "string"
        }
      ],
      "stateMutability": "view",
      "type": "function"
    },
    {
      "inputs": [
        {
          "internalType": "address",
          "name": "from",
          "type": "address"
        },
        {
          "internalType": "address",
          "name": "to",
          "type": "address"
        },
        {
          "internalType": "uint256",
          "name": "tokenId",
          "type": "uint256"
        }
      ],
      "name": "transferFrom",
      "outputs": [],
      "stateMutability": "nonpayable",
      "type": "function"
    },
    {
      "inputs": [
        {
          "internalType": "address",
          "name": "newOwner",
          "type": "address"
        }
      ],
      "name": "transferOwnership",
      "outputs": [],
      "stateMutability": "nonpayable",
      "type": "function"
    }
  ],
  "bytecode": "0x608060405234801561001057600080fd5b506040516116a63803806116a683398101604081905261002f91610124565b806040518060400160405280600d81526020016c1499585b115cdd185d19539195609a1b8152506040518060400160405280600681526020016514914b53919560d21b815250816000908161008491906101f3565b50600161009182826101f3565b5050506001600160a01b0381166100c257604051631e4fbdf760e01b81526000600482015260240160405180910390fd5b6100cb816100d2565b50506102b1565b600680546001600160a01b038381166001600160a01b0319831681179093556040519116919082907f8be0079c531659141344cd1fd0a4f28419497f9722a3daafe3b4186f6b6457e090600090a35050565b60006020828403121561013657600080fd5b81516001600160a01b038116811461014d57600080fd5b9392505050565b634e487b7160e01b600052604160045260246000fd5b600181811c9082168061017e57607f821691505b60208210810361019e57634e487b7160e01b600052602260045260246000fd5b50919050565b601f8211156101ee57806000526020600020601f840160051c810160208510156101cb5750805b601f840160051c820191505b818110156101eb57600081556001016101d7565b50505b505050565b81516001600160401b0381111561020c5761020c610154565b6102208161021a845461016a565b846101a4565b6020601f821160018114610254576000831561023c5750848201515b600019600385901b1c1916600184901b1784556101eb565b600084815260208120601f198516915b828110156102845787850151825560209485019460019092019101610264565b50848210156102a25786840151600019600387901b60f8161c191681555b50505050600190811b01905550565b6113e6806102c06000396000f3fe608060405234801561001057600080fd5b50600436106101375760003560e01c8063715018a6116100b8578063a22cb4651161007c578063a22cb4651461026c578063b88d4fde1461027f578063c87b56dd14610292578063e985e9c5146102a5578063f2fde38b146102b8578063f8b01b04146102cb57600080fd5b8063715018a61461022f57806375794a3c146102375780637cb64759146102405780638da5cb5b1461025357806395d89b411461026457600080fd5b80632eb4a7ab116100ff5780632eb4a7ab146101cc57806342842e0e146101e35780635a18ee1a146101f65780636352211e1461020957806370a082311461021c57600080fd5b806301ffc9a71461013c57806306fdde0314610164578063081812fc14610179578063095ea7b3146101a457806323b872dd146101b9575b600080fd5b61014f61014a366004610e7a565b6102de565b60405190151581526020015b60405180910390f35b61016c610330565b60405161015b9190610edd565b61018c610187366004610ef0565b6103c2565b6040516001600160a01b03909116815260200161015b565b6101b76101b2366004610f25565b6103eb565b005b6101b76101c7366004610f4f565b6103fa565b6101d560095481565b60405190815260200161015b565b6101b76101f1366004610f4f565b61048a565b61016c610204366004610ef0565b6104aa565b61018c610217366004610ef0565b610544565b6101d561022a366004610f8c565b61054f565b6101b7610597565b6101d560075481565b6101b761024e366004610ef0565b6105ab565b6006546001600160a01b031661018c565b61016c6105b8565b6101b761027a366004610fa7565b6105c7565b6101b761028d366004611073565b6105d2565b61016c6102a0366004610ef0565b6105ea565b61014f6102b33660046110ef565b61068c565b6101b76102c6366004610f8c565b6106ba565b6101b76102d9366004611122565b6106f8565b60006001600160e01b031982166380ac58cd60e01b148061030f57506001600160e01b03198216635b5e139f60e01b145b8061032a57506301ffc9a760e01b6001600160e01b03198316145b92915050565b60606000805461033f906111d9565b80601f016020809104026020016040519081016040528092919081815260200182805461036b906111d9565b80156103b85780601f1061038d576101008083540402835291602001916103b8565b820191906000526020600020905b81548152906001019060200180831161039b57829003601f168201915b5050505050905090565b60006103cd826107eb565b506000828152600460205260409020546001600160a01b031661032a565b6103f6828233610824565b5050565b6001600160a01b03821661042957604051633250574960e11b8152600060048201526024015b60405180910390fd5b6000610436838333610831565b9050836001600160a01b0316816001600160a01b031614610484576040516364283d7b60e01b81526001600160a01b0380861660048301526024820184905282166044820152606401610420565b50505050565b6104a5838383604051806020016040528060008152506105d2565b505050565b600860205260009081526040902080546104c3906111d9565b80601f01602080910402602001604051908101604052809291908181526020018280546104ef906111d9565b801561053c5780601f106105115761010080835404028352916020019161053c565b820191906000526020600020905b81548152906001019060200180831161051f57829003601f168201915b505050505081565b600061032a826107eb565b60006001600160a01b03821661057b576040516322718ad960e21b815260006004820152602401610420565b506001600160a01b031660009081526003602052604090205490565b61059f61092a565b6105a96000610957565b565b6105b361092a565b600955565b60606001805461033f906111d9565b6103f63383836109a9565b6105dd8484846103fa565b6104843385858585610a48565b6000818152600860205260409020805460609190610607906111d9565b80601f0160208091040260200160405190810160405280929190818152602001828054610633906111d9565b80156106805780601f1061065557610100808354040283529160200191610680565b820191906000526020600020905b81548152906001019060200180831161066357829003601f168201915b50505050509050919050565b6001600160a01b03918216600090815260056020908152604080832093909416825291909152205460ff1690565b6106c261092a565b6001600160a01b0381166106ec57604051631e4fbdf760e01b815260006004820152602401610420565b6106f581610957565b50565b61076d828280806020026020016040519081016040528093929190818152602001838360200280828437600092019190915250506009546040516bffffffffffffffffffffffff193360601b166020820152909250603401905060405160208183030381529060405280519060200120610b72565b6107ab5760405162461bcd60e51b815260206004820152600f60248201526e139bdd081dda1a5d195b1a5cdd1959608a1b6044820152606401610420565b60078054600091826107bc83611213565b9190505590506107cc3382610b88565b60008181526008602052604090206107e48582611281565b5050505050565b6000818152600260205260408120546001600160a01b03168061032a57604051637e27328960e01b815260048101849052602401610420565b6104a58383836001610ba2565b6000828152600260205260408120546001600160a01b039081169083161561085e5761085e818486610ca8565b6001600160a01b0381161561089c5761087b600085600080610ba2565b6001600160a01b038116600090815260036020526040902080546000190190555b6001600160a01b038516156108cb576001600160a01b0385166000908152600360205260409020805460010190555b60008481526002602052604080822080546001600160a01b0319166001600160a01b0389811691821790925591518793918516917fddf252ad1be2c89b69c2b068fc378daa952ba7f163c4a11628f55a4df523b3ef91a4949350505050565b6006546001600160a01b031633146105a95760405163118cdaa760e01b8152336004820152602401610420565b600680546001600160a01b038381166001600160a01b0319831681179093556040519116919082907f8be0079c531659141344cd1fd0a4f28419497f9722a3daafe3b4186f6b6457e090600090a35050565b6001600160a01b0382166109db57604051630b61174360e31b81526001600160a01b0383166004820152602401610420565b6001600160a01b03838116600081815260056020908152604080832094871680845294825291829020805460ff191686151590811790915591519182527f17307eab39ab6107e8899845ad3d59bd9653f200f220920489ca2b5937696c31910160405180910390a3505050565b6001600160a01b0383163b156107e457604051630a85bd0160e11b81526001600160a01b0384169063150b7a0290610a8a908890889087908790600401611340565b6020604051808303816000875af1925050508015610ac5575060408051601f3d908101601f19168201909252610ac29181019061137d565b60015b610b2e573d808015610af3576040519150601f19603f3d011682016040523d82523d6000602084013e610af8565b606091505b508051600003610b2657604051633250574960e11b81526001600160a01b0385166004820152602401610420565b805160208201fd5b6001600160e01b03198116630a85bd0160e11b14610b6a57604051633250574960e11b81526001600160a01b0385166004820152602401610420565b505050505050565b600082610b7f8584610d0c565b14949350505050565b6103f6828260405180602001604052806000815250610d4f565b8080610bb657506001600160a01b03821615155b15610c78576000610bc6846107eb565b90506001600160a01b03831615801590610bf25750826001600160a01b0316816001600160a01b031614155b8015610c055750610c03818461068c565b155b15610c2e5760405163a9fbf51f60e01b81526001600160a01b0384166004820152602401610420565b8115610c765783856001600160a01b0316826001600160a01b03167f8c5be1e5ebec7d5bd14f71427d1e84f3dd0314c0f7b2291e5b200ac8c7c3b92560405160405180910390a45b505b5050600090815260046020526040902080546001600160a01b0319166001600160a01b0392909216919091179055565b610cb3838383610d67565b6104a5576001600160a01b038316610ce157604051637e27328960e01b815260048101829052602401610420565b60405163177e802f60e01b81526001600160a01b038316600482015260248101829052604401610420565b600081815b8451811015610d4757610d3d82868381518110610d3057610d3061139a565b6020026020010151610dcd565b9150600101610d11565b509392505050565b610d598383610dff565b6104a5336000858585610a48565b60006001600160a01b03831615801590610dc55750826001600160a01b0316846001600160a01b03161480610da15750610da1848461068c565b80610dc557506000828152600460205260409020546001600160a01b038481169116145b949350505050565b6000818310610de9576000828152602084905260409020610df8565b60008381526020839052604090205b9392505050565b6001600160a01b038216610e2957604051633250574960e11b815260006004820152602401610420565b6000610e3783836000610831565b90506001600160a01b038116156104a5576040516339e3563760e11b815260006004820152602401610420565b6001600160e01b0319811681146106f557600080fd5b600060208284031215610e8c57600080fd5b8135610df881610e64565b6000815180845260005b81811015610ebd57602081850181015186830182015201610ea1565b506000602082860101526020601f19601f83011685010191505092915050565b602081526000610df86020830184610e97565b600060208284031215610f0257600080fd5b5035919050565b80356001600160a01b0381168114610f2057600080fd5b919050565b60008060408385031215610f3857600080fd5b610f4183610f09565b946020939093013593505050565b600080600060608486031215610f6457600080fd5b610f6d84610f09565b9250610f7b60208501610f09565b929592945050506040919091013590565b600060208284031215610f9e57600080fd5b610df882610f09565b60008060408385031215610fba57600080fd5b610fc383610f09565b915060208301358015158114610fd857600080fd5b809150509250929050565b634e487b7160e01b600052604160045260246000fd5b60008067ffffffffffffffff84111561101457611014610fe3565b50604051601f19601f85018116603f0116810181811067ffffffffffffffff8211171561104357611043610fe3565b60405283815290508082840185101561105b57600080fd5b83836020830137600060208583010152509392505050565b6000806000806080858703121561108957600080fd5b61109285610f09565b93506110a060208601610f09565b925060408501359150606085013567ffffffffffffffff8111156110c357600080fd5b8501601f810187136110d457600080fd5b6110e387823560208401610ff9565b91505092959194509250565b6000806040838503121561110257600080fd5b61110b83610f09565b915061111960208401610f09565b90509250929050565b60008060006040848603121561113757600080fd5b833567ffffffffffffffff81111561114e57600080fd5b8401601f8101861361115f57600080fd5b61116e86823560208401610ff9565b935050602084013567ffffffffffffffff81111561118b57600080fd5b8401601f8101861361119c57600080fd5b803567ffffffffffffffff8111156111b357600080fd5b8660208260051b84010111156111c857600080fd5b939660209190910195509293505050565b600181811c908216806111ed57607f821691505b60208210810361120d57634e487b7160e01b600052602260045260246000fd5b50919050565b60006001820161123357634e487b7160e01b600052601160045260246000fd5b5060010190565b601f8211156104a557806000526020600020601f840160051c810160208510156112615750805b601f840160051c820191505b818110156107e4576000815560010161126d565b815167ffffffffffffffff81111561129b5761129b610fe3565b6112af816112a984546111d9565b8461123a565b6020601f8211600181146112e357600083156112cb5750848201515b600019600385901b1c1916600184901b1784556107e4565b600084815260208120601f198516915b8281101561131357878501518255602094850194600190920191016112f3565b50848210156113315786840151600019600387901b60f8161c191681555b50505050600190811b01905550565b6001600160a01b038581168252841660208201526040810183905260806060820181905260009061137390830184610e97565b9695505050505050565b60006020828403121561138f57600080fd5b8151610df881610e64565b634e487b7160e01b600052603260045260246000fdfea264697066735822122068f35c81e2c20697f251d6dcb287037139b80fc9e647f5c2c5623d72e8867afb64736f6c634300081b0033",
  "linkReferences": {},
  "deployedLinkReferences": {}
}