{
  "_format": "hh-sol-artifact-1",
  "contractName": "PropertyNFT",
  "sourceName": "contracts/PropertyNFT.sol",
  "abi": [
    {
      "inputs": [
        {
          "internalType": "address",
          "name": "initialOwner",
          "type": "address"
        }
      ],
      "stateMutability": "nonpayable",
      "type": "constructor"
    },
    {
      "inputs": [],
      "name": "AccessControlBadConfirmation",
      "type": "error"
    },
    {
      "inputs": [
        {
          "internalType": "address",
          "name": "account",
          "type": "address"
        },
        {
          "internalType": "bytes32",
          "name": "neededRole",
          "type": "bytes32"
        }
      ],
      "name": "AccessControlUnauthorizedAccount",
      "type": "error"
    },
    {
      "inputs": [
        {
          "internalType": "address",
          "name": "sender",
          "type": "address"
        },
        {
          "internalType": "uint256",
          "name": "tokenId",
          "type": "uint256"
        },
        {
          "internalType": "address",
          "name": "owner",
          "type": "address"
        }
      ],
      "name": "ERC721IncorrectOwner",
      "type": "error"
    },
    {
      "inputs": [
        {
          "internalType": "address",
          "name": "operator",
          "type": "address"
        },
        {
          "internalType": "uint256",
          "name": "tokenId",
          "type": "uint256"
        }
      ],
      "name": "ERC721InsufficientApproval",
      "type": "error"
    },
    {
      "inputs": [
        {
          "internalType": "address",
          "name": "approver",
          "type": "address"
        }
      ],
      "name": "ERC721InvalidApprover",
      "type": "error"
    },
    {
      "inputs": [
        {
          "internalType": "address",
          "name": "operator",
          "type": "address"
        }
      ],
      "name": "ERC721InvalidOperator",
      "type": "error"
    },
    {
      "inputs": [
        {
          "internalType": "address",
          "name": "owner",
          "type": "address"
        }
      ],
      "name": "ERC721InvalidOwner",
      "type": "error"
    },
    {
      "inputs": [
        {
          "internalType": "address",
          "name": "receiver",
          "type": "address"
        }
      ],
      "name": "ERC721InvalidReceiver",
      "type": "error"
    },
    {
      "inputs": [
        {
          "internalType": "address",
          "name": "sender",
          "type": "address"
        }
      ],
      "name": "ERC721InvalidSender",
      "type": "error"
    },
    {
      "inputs": [
        {
          "internalType": "uint256",
          "name": "tokenId",
          "type": "uint256"
        }
      ],
      "name": "ERC721NonexistentToken",
      "type": "error"
    },
    {
      "inputs": [
        {
          "internalType": "address",
          "name": "owner",
          "type": "address"
        }
      ],
      "name": "OwnableInvalidOwner",
      "type": "error"
    },
    {
      "inputs": [
        {
          "internalType": "address",
          "name": "account",
          "type": "address"
        }
      ],
      "name": "OwnableUnauthorizedAccount",
      "type": "error"
    },
    {
      "anonymous": false,
      "inputs": [
        {
          "indexed": true,
          "internalType": "address",
          "name": "owner",
          "type": "address"
        },
        {
          "indexed": true,
          "internalType": "address",
          "name": "approved",
          "type": "address"
        },
        {
          "indexed": true,
          "internalType": "uint256",
          "name": "tokenId",
          "type": "uint256"
        }
      ],
      "name": "Approval",
      "type": "event"
    },
    {
      "anonymous": false,
      "inputs": [
        {
          "indexed": true,
          "internalType": "address",
          "name": "owner",
          "type": "address"
        },
        {
          "indexed": true,
          "internalType": "address",
          "name": "operator",
          "type": "address"
        },
        {
          "indexed": false,
          "internalType": "bool",
          "name": "approved",
          "type": "bool"
        }
      ],
      "name": "ApprovalForAll",
      "type": "event"
    },
    {
      "anonymous": false,
      "inputs": [
        {
          "indexed": true,
          "internalType": "address",
          "name": "previousOwner",
          "type": "address"
        },
        {
          "indexed": true,
          "internalType": "address",
          "name": "newOwner",
          "type": "address"
        }
      ],
      "name": "OwnershipTransferred",
      "type": "event"
    },
    {
      "anonymous": false,
      "inputs": [
        {
          "indexed": true,
          "internalType": "uint256",
          "name": "tokenId",
          "type": "uint256"
        },
        {
          "indexed": true,
          "internalType": "address",
          "name": "agent",
          "type": "address"
        },
        {
          "indexed": false,
          "internalType": "enum PropertyNFT.PoARights",
          "name": "right",
          "type": "uint8"
        },
        {
          "indexed": false,
          "internalType": "bool",
          "name": "allowed",
          "type": "bool"
        },
        {
          "indexed": false,
          "internalType": "uint256",
          "name": "start",
          "type": "uint256"
        },
        {
          "indexed": false,
          "internalType": "uint256",
          "name": "end",
          "type": "uint256"
        }
      ],
      "name": "PoASet",
      "type": "event"
    },
    {
      "anonymous": false,
      "inputs": [
        {
          "indexed": true,
          "internalType": "uint256",
          "name": "tokenId",
          "type": "uint256"
        },
        {
          "indexed": true,
          "internalType": "address",
          "name": "signer",
          "type": "address"
        },
        {
          "indexed": false,
          "internalType": "string",
          "name": "role",
          "type": "string"
        }
      ],
      "name": "PropertySigned",
      "type": "event"
    },
    {
      "anonymous": false,
      "inputs": [
        {
          "indexed": true,
          "internalType": "uint256",
          "name": "tokenId",
          "type": "uint256"
        },
        {
          "indexed": true,
          "internalType": "address",
          "name": "previousOwner",
          "type": "address"
        },
        {
          "indexed": true,
          "internalType": "address",
          "name": "newOwner",
          "type": "address"
        }
      ],
      "name": "RentEndedOnTransfer",
      "type": "event"
    },
    {
      "anonymous": false,
      "inputs": [
        {
          "indexed": true,
          "internalType": "uint256",
          "name": "tokenId",
          "type": "uint256"
        },
        {
          "indexed": true,
          "internalType": "address",
          "name": "payer",
          "type": "address"
        },
        {
          "indexed": false,
          "internalType": "uint256",
          "name": "amount",
          "type": "uint256"
        },
        {
          "indexed": false,
          "internalType": "uint256",
          "name": "timestamp",
          "type": "uint256"
        }
      ],
      "name": "RentPaid",
      "type": "event"
    },
    {
      "anonymous": false,
      "inputs": [
        {
          "indexed": true,
          "internalType": "uint256",
          "name": "tokenId",
          "type": "uint256"
        },
        {
          "indexed": true,
          "internalType": "address",
          "name": "oldReceiver",
          "type": "address"
        },
        {
          "indexed": true,
          "internalType": "address",
          "name": "newReceiver",
          "type": "address"
        }
      ],
      "name": "RentReceiverUpdated",
      "type": "event"
    },
    {
      "anonymous": false,
      "inputs": [
        {
          "indexed": true,
          "internalType": "bytes32",
          "name": "role",
          "type": "bytes32"
        },
        {
          "indexed": true,
          "internalType": "bytes32",
          "name": "previousAdminRole",
          "type": "bytes32"
        },
        {
          "indexed": true,
          "internalType": "bytes32",
          "name": "newAdminRole",
          "type": "bytes32"
        }
      ],
      "name": "RoleAdminChanged",
      "type": "event"
    },
    {
      "anonymous": false,
      "inputs": [
        {
          "indexed": true,
          "internalType": "bytes32",
          "name": "role",
          "type": "bytes32"
        },
        {
          "indexed": true,
          "internalType": "address",
          "name": "account",
          "type": "address"
        },
        {
          "indexed": true,
          "internalType": "address",
          "name": "sender",
          "type": "address"
        }
      ],
      "name": "RoleGranted",
      "type": "event"
    },
    {
      "anonymous": false,
      "inputs": [
        {
          "indexed": true,
          "internalType": "bytes32",
          "name": "role",
          "type": "bytes32"
        },
        {
          "indexed": true,
          "internalType": "address",
          "name": "account",
          "type": "address"
        },
        {
          "indexed": true,
          "internalType": "address",
          "name": "sender",
          "type": "address"
        }
      ],
      "name": "RoleRevoked",
      "type": "event"
    },
    {
      "anonymous": false,
      "inputs": [
        {
          "indexed": true,
          "internalType": "address",
          "name": "from",
          "type": "address"
        },
        {
          "indexed": true,
          "internalType": "address",
          "name": "to",
          "type": "address"
        },
        {
          "indexed": true,
          "internalType": "uint256",
          "name": "tokenId",
          "type": "uint256"
        }
      ],
      "name": "Transfer",
      "type": "event"
    },
    {
      "inputs": [],
      "name": "DEFAULT_ADMIN_ROLE",
      "outputs": [
        {
          "internalType": "bytes32",
          "name": "",
          "type": "bytes32"
        }
      ],
      "stateMutability": "view",
      "type": "function"
    },
    {
      "inputs": [],
      "name": "IVSL_ROLE",
      "outputs": [
        {
          "internalType": "bytes32",
          "name": "",
          "type": "bytes32"
        }
      ],
      "stateMutability": "view",
      "type": "function"
    },
    {
      "inputs": [],
      "name": "NOTARY_ROLE",
      "outputs": [
        {
          "internalType": "bytes32",
          "name": "",
          "type": "bytes32"
        }
      ],
      "stateMutability": "view",
      "type": "function"
    },
    {
      "inputs": [],
      "name": "SURVEYOR_ROLE",
      "outputs": [
        {
          "internalType": "bytes32",
          "name": "",
          "type": "bytes32"
        }
      ],
      "stateMutability": "view",
      "type": "function"
    },
    {
      "inputs": [
        {
          "internalType": "address",
          "name": "to",
          "type": "address"
        },
        {
          "internalType": "uint256",
          "name": "tokenId",
          "type": "uint256"
        }
      ],
      "name": "approve",
      "outputs": [],
      "stateMutability": "nonpayable",
      "type": "function"
    },
    {
      "inputs": [
        {
          "internalType": "address",
          "name": "owner",
          "type": "address"
        }
      ],
      "name": "balanceOf",
      "outputs": [
        {
          "internalType": "uint256",
          "name": "",
          "type": "uint256"
        }
      ],
      "stateMutability": "view",
      "type": "function"
    },
    {
      "inputs": [
        {
          "internalType": "uint256",
          "name": "tokenId",
          "type": "uint256"
        }
      ],
      "name": "endRent",
      "outputs": [],
      "stateMutability": "nonpayable",
      "type": "function"
    },
    {
      "inputs": [
        {
          "internalType": "uint256",
          "name": "tokenId",
          "type": "uint256"
        }
      ],
      "name": "getApproved",
      "outputs": [
        {
          "internalType": "address",
          "name": "",
          "type": "address"
        }
      ],
      "stateMutability": "view",
      "type": "function"
    },
    {
      "inputs": [
        {
          "internalType": "uint256",
          "name": "tokenId",
          "type": "uint256"
        }
      ],
      "name": "getMetadata",
      "outputs": [
        {
          "internalType": "string",
          "name": "",
          "type": "string"
        },
        {
          "internalType": "string",
          "name": "",
          "type": "string"
        }
      ],
      "stateMutability": "view",
      "type": "function"
    },
    {
      "inputs": [
        {
          "internalType": "bytes32",
          "name": "role",
          "type": "bytes32"
        }
      ],
      "name": "getRoleAdmin",
      "outputs": [
        {
          "internalType": "bytes32",
          "name": "",
          "type": "bytes32"
        }
      ],
      "stateMutability": "view",
      "type": "function"
    },
    {
      "inputs": [
        {
          "internalType": "address",
          "name": "account",
          "type": "address"
        }
      ],
      "name": "getRolesOf",
      "outputs": [
        {
          "internalType": "bool",
          "name": "",
          "type": "bool"
        },
        {
          "internalType": "bool",
          "name": "",
          "type": "bool"
        },
        {
          "internalType": "bool",
          "name": "",
          "type": "bool"
        }
      ],
      "stateMutability": "view",
      "type": "function"
    },
    {
      "inputs": [
        {
          "internalType": "uint256",
          "name": "tokenId",
          "type": "uint256"
        }
      ],
      "name": "getSignatures",
      "outputs": [
        {
          "internalType": "address",
          "name": "",
          "type": "address"
        },
        {
          "internalType": "address",
          "name": "",
          "type": "address"
        },
        {
          "internalType": "address",
          "name": "",
          "type": "address"
        }
      ],
      "stateMutability": "view",
      "type": "function"
    },
    {
      "inputs": [
        {
          "internalType": "bytes32",
          "name": "role",
          "type": "bytes32"
        },
        {
          "internalType": "address",
          "name": "account",
          "type": "address"
        }
      ],
      "name": "grantRole",
      "outputs": [],
      "stateMutability": "nonpayable",
      "type": "function"
    },
    {
      "inputs": [
        {
          "internalType": "bytes32",
          "name": "role",
          "type": "bytes32"
        },
        {
          "internalType": "address",
          "name": "account",
          "type": "address"
        }
      ],
      "name": "hasRole",
      "outputs": [
        {
          "internalType": "bool",
          "name": "",
          "type": "bool"
        }
      ],
      "stateMutability": "view",
      "type": "function"
    },
    {
      "inputs": [
        {
          "internalType": "address",
          "name": "owner",
          "type": "address"
        },
        {
          "internalType": "address",
          "name": "operator",
          "type": "address"
        }
      ],
      "name": "isApprovedForAll",
      "outputs": [
        {
          "internalType": "bool",
          "name": "",
          "type": "bool"
        }
      ],
      "stateMutability": "view",
      "type": "function"
    },
    {
      "inputs": [
        {
          "internalType": "uint256",
          "name": "tokenId",
          "type": "uint256"
        }
      ],
      "name": "isFullySigned",
      "outputs": [
        {
          "internalType": "bool",
          "name": "",
          "type": "bool"
        }
      ],
      "stateMutability": "view",
      "type": "function"
    },
    {
      "inputs": [
        {
          "internalType": "uint256",
          "name": "tokenId",
          "type": "uint256"
        }
      ],
      "name": "isRentActive",
      "outputs": [
        {
          "internalType": "bool",
          "name": "",
          "type": "bool"
        }
      ],
      "stateMutability": "view",
      "type": "function"
    },
    {
      "inputs": [
        {
          "internalType": "uint256",
          "name": "tokenId",
          "type": "uint256"
        }
      ],
      "name": "isSignedByIVSL",
      "outputs": [
        {
          "internalType": "bool",
          "name": "",
          "type": "bool"
        }
      ],
      "stateMutability": "view",
      "type": "function"
    },
    {
      "inputs": [
        {
          "internalType": "uint256",
          "name": "tokenId",
          "type": "uint256"
        }
      ],
      "name": "isSignedByNotary",
      "outputs": [
        {
          "internalType": "bool",
          "name": "",
          "type": "bool"
        }
      ],
      "stateMutability": "view",
      "type": "function"
    },
    {
      "inputs": [
        {
          "internalType": "uint256",
          "name": "tokenId",
          "type": "uint256"
        }
      ],
      "name": "isSignedBySurveyor",
      "outputs": [
        {
          "internalType": "bool",
          "name": "",
          "type": "bool"
        }
      ],
      "stateMutability": "view",
      "type": "function"
    },
    {
      "inputs": [
        {
          "internalType": "address",
          "name": "to",
          "type": "address"
        },
        {
          "internalType": "string",
          "name": "ipfsHash",
          "type": "string"
        },
        {
          "internalType": "string",
          "name": "dbHash",
          "type": "string"
        }
      ],
      "name": "mintProperty",
      "outputs": [],
      "stateMutability": "nonpayable",
      "type": "function"
    },
    {
      "inputs": [],
      "name": "name",
      "outputs": [
        {
          "internalType": "string",
          "name": "",
          "type": "string"
        }
      ],
      "stateMutability": "view",
      "type": "function"
    },
    {
      "inputs": [],
      "name": "nextTokenId",
      "outputs": [
        {
          "internalType": "uint256",
          "name": "",
          "type": "uint256"
        }
      ],
      "stateMutability": "view",
      "type": "function"
    },
    {
      "inputs": [],
      "name": "owner",
      "outputs": [
        {
          "internalType": "address",
          "name": "",
          "type": "address"
        }
      ],
      "stateMutability": "view",
      "type": "function"
    },
    {
      "inputs": [
        {
          "internalType": "uint256",
          "name": "tokenId",
          "type": "uint256"
        }
      ],
      "name": "ownerOf",
      "outputs": [
        {
          "internalType": "address",
          "name": "",
          "type": "address"
        }
      ],
      "stateMutability": "view",
      "type": "function"
    },
    {
      "inputs": [
        {
          "internalType": "uint256",
          "name": "tokenId",
          "type": "uint256"
        }
      ],
      "name": "payRent",
      "outputs": [],
      "stateMutability": "payable",
      "type": "function"
    },
    {
      "inputs": [
        {
          "internalType": "uint256",
          "name": "",
          "type": "uint256"
        },
        {
          "internalType": "address",
          "name": "",
          "type": "address"
        },
        {
          "internalType": "enum PropertyNFT.PoARights",
          "name": "",
          "type": "uint8"
        }
      ],
      "name": "poa",
      "outputs": [
        {
          "internalType": "bool",
          "name": "allowed",
          "type": "bool"
        },
        {
          "internalType": "uint256",
          "name": "start",
          "type": "uint256"
        },
        {
          "internalType": "uint256",
          "name": "end",
          "type": "uint256"
        }
      ],
      "stateMutability": "view",
      "type": "function"
    },
    {
      "inputs": [],
      "name": "renounceOwnership",
      "outputs": [],
      "stateMutability": "nonpayable",
      "type": "function"
    },
    {
      "inputs": [
        {
          "internalType": "bytes32",
          "name": "role",
          "type": "bytes32"
        },
        {
          "internalType": "address",
          "name": "callerConfirmation",
          "type": "address"
        }
      ],
      "name": "renounceRole",
      "outputs": [],
      "stateMutability": "nonpayable",
      "type": "function"
    },
    {
      "inputs": [
        {
          "internalType": "uint256",
          "name": "",
          "type": "uint256"
        }
      ],
      "name": "rentInfo",
      "outputs": [
        {
          "internalType": "uint256",
          "name": "amount",
          "type": "uint256"
        },
        {
          "internalType": "uint256",
          "name": "period",
          "type": "uint256"
        },
        {
          "internalType": "uint256",
          "name": "lastPaid",
          "type": "uint256"
        },
        {
          "internalType": "address",
          "name": "receiver",
          "type": "address"
        }
      ],
      "stateMutability": "view",
      "type": "function"
    },
    {
      "inputs": [
        {
          "internalType": "bytes32",
          "name": "role",
          "type": "bytes32"
        },
        {
          "internalType": "address",
          "name": "account",
          "type": "address"
        }
      ],
      "name": "revokeRole",
      "outputs": [],
      "stateMutability": "nonpayable",
      "type": "function"
    },
    {
      "inputs": [
        {
          "internalType": "address",
          "name": "from",
          "type": "address"
        },
        {
          "internalType": "address",
          "name": "to",
          "type": "address"
        },
        {
          "internalType": "uint256",
          "name": "tokenId",
          "type": "uint256"
        }
      ],
      "name": "safeTransferFrom",
      "outputs": [],
      "stateMutability": "nonpayable",
      "type": "function"
    },
    {
      "inputs": [
        {
          "internalType": "address",
          "name": "from",
          "type": "address"
        },
        {
          "internalType": "address",
          "name": "to",
          "type": "address"
        },
        {
          "internalType": "uint256",
          "name": "tokenId",
          "type": "uint256"
        },
        {
          "internalType": "bytes",
          "name": "data",
          "type": "bytes"
        }
      ],
      "name": "safeTransferFrom",
      "outputs": [],
      "stateMutability": "nonpayable",
      "type": "function"
    },
    {
      "inputs": [
        {
          "internalType": "address",
          "name": "operator",
          "type": "address"
        },
        {
          "internalType": "bool",
          "name": "approved",
          "type": "bool"
        }
      ],
      "name": "setApprovalForAll",
      "outputs": [],
      "stateMutability": "nonpayable",
      "type": "function"
    },
    {
      "inputs": [
        {
          "internalType": "uint256",
          "name": "tokenId",
          "type": "uint256"
        },
        {
          "internalType": "address",
          "name": "agent",
          "type": "address"
        },
        {
          "internalType": "enum PropertyNFT.PoARights",
          "name": "right",
          "type": "uint8"
        },
        {
          "internalType": "bool",
          "name": "allowed",
          "type": "bool"
        },
        {
          "internalType": "uint256",
          "name": "start",
          "type": "uint256"
        },
        {
          "internalType": "uint256",
          "name": "end",
          "type": "uint256"
        }
      ],
      "name": "setPoA",
      "outputs": [],
      "stateMutability": "nonpayable",
      "type": "function"
    },
    {
      "inputs": [
        {
          "internalType": "uint256",
          "name": "tokenId",
          "type": "uint256"
        },
        {
          "internalType": "uint256",
          "name": "amount",
          "type": "uint256"
        },
        {
          "internalType": "uint256",
          "name": "period",
          "type": "uint256"
        },
        {
          "internalType": "address",
          "name": "receiver",
          "type": "address"
        }
      ],
      "name": "setRent",
      "outputs": [],
      "stateMutability": "nonpayable",
      "type": "function"
    },
    {
      "inputs": [
        {
          "internalType": "uint256",
          "name": "tokenId",
          "type": "uint256"
        }
      ],
      "name": "signProperty",
      "outputs": [],
      "stateMutability": "nonpayable",
      "type": "function"
    },
    {
      "inputs": [
        {
          "internalType": "bytes4",
          "name": "interfaceId",
          "type": "bytes4"
        }
      ],
      "name": "supportsInterface",
      "outputs": [
        {
          "internalType": "bool",
          "name": "",
          "type": "bool"
        }
      ],
      "stateMutability": "view",
      "type": "function"
    },
    {
      "inputs": [],
      "name": "symbol",
      "outputs": [
        {
          "internalType": "string",
          "name": "",
          "type": "string"
        }
      ],
      "stateMutability": "view",
      "type": "function"
    },
    {
      "inputs": [
        {
          "internalType": "uint256",
          "name": "tokenId",
          "type": "uint256"
        }
      ],
      "name": "tokenURI",
      "outputs": [
        {
          "internalType": "string",
          "name": "",
          "type": "string"
        }
      ],
      "stateMutability": "view",
      "type": "function"
    },
    {
      "inputs": [
        {
          "internalType": "address",
          "name": "from",
          "type": "address"
        },
        {
          "internalType": "address",
          "name": "to",
          "type": "address"
        },
        {
          "internalType": "uint256",
          "name": "tokenId",
          "type": "uint256"
        }
      ],
      "name": "transferFrom",
      "outputs": [],
      "stateMutability": "nonpayable",
      "type": "function"
    },
    {
      "inputs": [
        {
          "internalType": "address",
          "name": "newOwner",
          "type": "address"
        }
      ],
      "name": "transferOwnership",
      "outputs": [],
      "stateMutability": "nonpayable",
      "type": "function"
    },
    {
      "inputs": [
        {
          "internalType": "uint256",
          "name": "tokenId",
          "type": "uint256"
        },
        {
          "internalType": "address",
          "name": "newReceiver",
          "type": "address"
        }
      ],
      "name": "updateRentReceiver",
      "outputs": [],
      "stateMutability": "nonpayable",
      "type": "function"
    }
  ],
  "bytecode": "0x608060405234801561001057600080fd5b5060405161325538038061325583398101604081905261002f916101e0565b806040518060400160405280600d81526020016c1499585b115cdd185d19539195609a1b8152506040518060400160405280600681526020016514914b53919560d21b815250816000908161008491906102af565b50600161009182826102af565b5050506001600160a01b0381166100c257604051631e4fbdf760e01b81526000600482015260240160405180910390fd5b6100cb816100de565b506100d7600082610130565b505061036d565b600680546001600160a01b038381166001600160a01b0319831681179093556040519116919082907f8be0079c531659141344cd1fd0a4f28419497f9722a3daafe3b4186f6b6457e090600090a35050565b60008281526007602090815260408083206001600160a01b038516845290915281205460ff166101d65760008381526007602090815260408083206001600160a01b03861684529091529020805460ff1916600117905561018e3390565b6001600160a01b0316826001600160a01b0316847f2f8788117e7eff1d82e926ec794901d17c78024a50270940304540a733656f0d60405160405180910390a45060016101da565b5060005b92915050565b6000602082840312156101f257600080fd5b81516001600160a01b038116811461020957600080fd5b9392505050565b634e487b7160e01b600052604160045260246000fd5b600181811c9082168061023a57607f821691505b60208210810361025a57634e487b7160e01b600052602260045260246000fd5b50919050565b601f8211156102aa57806000526020600020601f840160051c810160208510156102875750805b601f840160051c820191505b818110156102a75760008155600101610293565b50505b505050565b81516001600160401b038111156102c8576102c8610210565b6102dc816102d68454610226565b84610260565b6020601f82116001811461031057600083156102f85750848201515b600019600385901b1c1916600184901b1784556102a7565b600084815260208120601f198516915b828110156103405787850151825560209485019460019092019101610320565b508482101561035e5786840151600019600387901b60f8161c191681555b50505050600190811b01905550565b612ed98061037c6000396000f3fe60806040526004361061025c5760003560e01c806395d89b4111610144578063c87b56dd116100b6578063e4b4e9c81161007a578063e4b4e9c814610802578063e4ceebfc14610822578063e985e9c514610842578063f2fde38b14610862578063f4eccb8f14610882578063f568414f146108cc57600080fd5b8063c87b56dd14610721578063cc77443e14610741578063d547741f146107af578063d9e8843f146107cf578063e317f756146107e257600080fd5b8063b2832b1211610108578063b2832b12146105e5578063b2e50f5814610605578063b88d4fde14610625578063be47e02814610645578063c48b0baa14610679578063c5430a9d146106ad57600080fd5b806395d89b411461054d578063a0686d1614610562578063a217fddf14610582578063a22cb46514610597578063a574cea4146105b757600080fd5b806342842e0e116101dd578063715018a6116101a1578063715018a61461049057806375794a3c146104a5578063797c5359146104bb5780638c238b79146104db5780638da5cb5b1461050f57806391d148541461052d57600080fd5b806342842e0e146103f05780636352211e1461041057806366734526146104305780636e777dd81461045057806370a082311461047057600080fd5b806323b872dd1161022457806323b872dd14610332578063248a9ca3146103525780632f2ff15d1461039057806336568abe146103b05780633d1c2718146103d057600080fd5b806301ffc9a7146102615780630675ec801461029657806306fdde03146102b8578063081812fc146102da578063095ea7b314610312575b600080fd5b34801561026d57600080fd5b5061028161027c36600461274e565b61090b565b60405190151581526020015b60405180910390f35b3480156102a257600080fd5b506102b66102b136600461276b565b61091c565b005b3480156102c457600080fd5b506102cd610c24565b60405161028d91906127d4565b3480156102e657600080fd5b506102fa6102f536600461276b565b610cb6565b6040516001600160a01b03909116815260200161028d565b34801561031e57600080fd5b506102b661032d366004612803565b610cdf565b34801561033e57600080fd5b506102b661034d36600461282d565b610cee565b34801561035e57600080fd5b5061038261036d36600461276b565b60009081526007602052604090206001015490565b60405190815260200161028d565b34801561039c57600080fd5b506102b66103ab36600461286a565b610d79565b3480156103bc57600080fd5b506102b66103cb36600461286a565b610d9e565b3480156103dc57600080fd5b506102b66103eb3660046128b5565b610dd6565b3480156103fc57600080fd5b506102b661040b36600461282d565b610f5b565b34801561041c57600080fd5b506102fa61042b36600461276b565b610f76565b34801561043c57600080fd5b5061028161044b36600461276b565b610f81565b34801561045c57600080fd5b506102b661046b3660046129c4565b610ff6565b34801561047c57600080fd5b5061038261048b366004612a3d565b611065565b34801561049c57600080fd5b506102b66110ad565b3480156104b157600080fd5b5061038260085481565b3480156104c757600080fd5b506102b66104d636600461276b565b6110c1565b3480156104e757600080fd5b506103827f4f3724b2b11e1ff14982c16ee1ccbeeddf1e15256c41dccf7ecbd129a3e5d27681565b34801561051b57600080fd5b506006546001600160a01b03166102fa565b34801561053957600080fd5b5061028161054836600461286a565b61116b565b34801561055957600080fd5b506102cd611196565b34801561056e57600080fd5b506102b661057d36600461286a565b6111a5565b34801561058e57600080fd5b50610382600081565b3480156105a357600080fd5b506102b66105b2366004612a58565b6112e6565b3480156105c357600080fd5b506105d76105d236600461276b565b6112f1565b60405161028d929190612a82565b3480156105f157600080fd5b506102b6610600366004612aa7565b611475565b34801561061157600080fd5b5061028161062036600461276b565b611646565b34801561063157600080fd5b506102b6610640366004612ae6565b611696565b34801561065157600080fd5b506103827f2876b6444ca73956040d49b0d48b2a7c03b6b34daa638a812177f0309da79c7e81565b34801561068557600080fd5b506103827f014df5ee2861d7f34562399ffa112fc59b51f810d2b875c3609ba0c31ac873d081565b3480156106b957600080fd5b506106f86106c836600461276b565b600b602052600090815260409020805460018201546002830154600390930154919290916001600160a01b031684565b604080519485526020850193909352918301526001600160a01b0316606082015260800161028d565b34801561072d57600080fd5b506102cd61073c36600461276b565b6116ae565b34801561074d57600080fd5b5061079261075c366004612b62565b600c60209081526000938452604080852082529284528284209052825290208054600182015460029092015460ff909116919083565b60408051931515845260208401929092529082015260600161028d565b3480156107bb57600080fd5b506102b66107ca36600461286a565b611723565b6102b66107dd36600461276b565b611748565b3480156107ee57600080fd5b506102816107fd36600461276b565b611977565b34801561080e57600080fd5b5061028161081d36600461276b565b6119ca565b34801561082e57600080fd5b5061028161083d36600461276b565b611a1d565b34801561084e57600080fd5b5061028161085d366004612b9e565b611ab6565b34801561086e57600080fd5b506102b661087d366004612a3d565b611ae4565b34801561088e57600080fd5b506108a261089d36600461276b565b611b1f565b604080516001600160a01b039485168152928416602084015292169181019190915260600161028d565b3480156108d857600080fd5b506108ec6108e7366004612a3d565b611b9f565b604080519315158452911515602084015215159082015260600161028d565b600061091682611c2f565b92915050565b600061092782611c54565b6001600160a01b0316036109565760405162461bcd60e51b815260040161094d90612bc8565b60405180910390fd5b6109807f2876b6444ca73956040d49b0d48b2a7c03b6b34daa638a812177f0309da79c7e3361116b565b15610a34576000818152600a60205260409020546001600160a01b0316156109ba5760405162461bcd60e51b815260040161094d90612bf6565b6000818152600a60205260409081902080546001600160a01b03191633908117909155905182907fbbf4fe4b13ab354e887b8d523b66c461a295fabdeaacaee470958888ce85b3bc90610a299060208082526008908201526729aaa92b22aca7a960c11b604082015260600190565b60405180910390a350565b610a5e7f014df5ee2861d7f34562399ffa112fc59b51f810d2b875c3609ba0c31ac873d03361116b565b15610b0b576000818152600a60205260409020600101546001600160a01b031615610a9b5760405162461bcd60e51b815260040161094d90612bf6565b6000818152600a60205260409081902060010180546001600160a01b03191633908117909155905182907fbbf4fe4b13ab354e887b8d523b66c461a295fabdeaacaee470958888ce85b3bc90610a29906020808252600690820152654e4f5441525960d01b604082015260600190565b610b357f4f3724b2b11e1ff14982c16ee1ccbeeddf1e15256c41dccf7ecbd129a3e5d2763361116b565b15610be0576000818152600a60205260409020600201546001600160a01b031615610b725760405162461bcd60e51b815260040161094d90612bf6565b6000818152600a60205260409081902060020180546001600160a01b03191633908117909155905182907fbbf4fe4b13ab354e887b8d523b66c461a295fabdeaacaee470958888ce85b3bc90610a2990602080825260049082015263125594d360e21b604082015260600190565b60405162461bcd60e51b81526020600482015260166024820152752737ba1030baba3437b934bd32b2103a379039b4b3b760511b604482015260640161094d565b50565b606060008054610c3390612c1e565b80601f0160208091040260200160405190810160405280929190818152602001828054610c5f90612c1e565b8015610cac5780601f10610c8157610100808354040283529160200191610cac565b820191906000526020600020905b815481529060010190602001808311610c8f57829003601f168201915b5050505050905090565b6000610cc182611c6f565b506000828152600460205260409020546001600160a01b0316610916565b610cea828233611ca7565b5050565b6001600160a01b038216610d1857604051633250574960e11b81526000600482015260240161094d565b6000610d25838333611cb4565b9050836001600160a01b0316816001600160a01b031614610d73576040516364283d7b60e01b81526001600160a01b038086166004830152602482018490528216604482015260640161094d565b50505050565b600082815260076020526040902060010154610d9481611e4a565b610d738383611e54565b6001600160a01b0381163314610dc75760405163334bd91960e11b815260040160405180910390fd5b610dd18282611ee8565b505050565b33610de087610f76565b6001600160a01b031614610e365760405162461bcd60e51b815260206004820152601960248201527f4f6e6c79206f776e65722063616e2061737369676e20506f4100000000000000604482015260640161094d565b818111610e765760405162461bcd60e51b815260206004820152600e60248201526d125b9d985b1a59081c195c9a5bd960921b604482015260640161094d565b60408051606081018252841515815260208082018590528183018490526000898152600c82528381206001600160a01b038a1682529091529182209091866003811115610ec557610ec5612c58565b6003811115610ed657610ed6612c58565b815260208082019290925260409081016000208351815460ff191690151517815591830151600183015591820151600290910155516001600160a01b0386169087907fda596b5d81b735965c664fa53e182703da93005a6956dd6840597c762ebb16d090610f4b908890889088908890612c6e565b60405180910390a3505050505050565b610dd183838360405180602001604052806000815250611696565b600061091682611c6f565b6000818152600b6020908152604080832081516080810183528154808252600183015494820194909452600282015492810192909252600301546001600160a01b03166060820152908203610fd95750600092915050565b80602001518160400151610fed9190612cc2565b42109392505050565b600880546000918261100783612cd5565b9190505590506110178482611f55565b60408051808201825284815260208082018590526000848152600990915291909120815181906110479082612d35565b506020820151600182019061105c9082612d35565b50505050505050565b60006001600160a01b038216611091576040516322718ad960e21b81526000600482015260240161094d565b506001600160a01b031660009081526003602052604090205490565b6110b5611f6f565b6110bf6000611f9c565b565b336110cb82610f76565b6001600160a01b0316146111215760405162461bcd60e51b815260206004820152601760248201527f4f6e6c79206f776e65722063616e20656e642072656e74000000000000000000604482015260640161094d565b6000818152600b60205260409020805461114d5760405162461bcd60e51b815260040161094d90612df4565b6000808255600182015560030180546001600160a01b031916905550565b60009182526007602090815260408084206001600160a01b0393909316845291905290205460ff1690565b606060018054610c3390612c1e565b336111af83610f76565b6001600160a01b0316146112115760405162461bcd60e51b815260206004820152602360248201527f4f6e6c79206f776e65722063616e207570646174652072656e742072656365696044820152623b32b960e91b606482015260840161094d565b6000828152600b60205260409020805461123d5760405162461bcd60e51b815260040161094d90612df4565b6001600160a01b03821661128e5760405162461bcd60e51b8152602060048201526018602482015277496e76616c6964207265636569766572206164647265737360401b604482015260640161094d565b6003810180546001600160a01b038481166001600160a01b03198316811790935560405191169190829086907f1c5be17a9b2ec118b920226da0f19e0fa2ce801cf386d3af6619fb0cbdd09d7390600090a450505050565b610cea338383611fee565b60608060006112ff84611c54565b6001600160a01b0316036113255760405162461bcd60e51b815260040161094d90612bc8565b600083815260096020526040808220815180830190925280548290829061134b90612c1e565b80601f016020809104026020016040519081016040528092919081815260200182805461137790612c1e565b80156113c45780601f10611399576101008083540402835291602001916113c4565b820191906000526020600020905b8154815290600101906020018083116113a757829003601f168201915b505050505081526020016001820180546113dd90612c1e565b80601f016020809104026020016040519081016040528092919081815260200182805461140990612c1e565b80156114565780601f1061142b57610100808354040283529160200191611456565b820191906000526020600020905b81548152906001019060200180831161143957829003601f168201915b5050505050815250509050806000015181602001519250925050915091565b3361147f85610f76565b6001600160a01b0316146114d55760405162461bcd60e51b815260206004820152601760248201527f4f6e6c79206f776e65722063616e207365742072656e74000000000000000000604482015260640161094d565b6001600160a01b0381166115265760405162461bcd60e51b8152602060048201526018602482015277496e76616c6964207265636569766572206164647265737360401b604482015260640161094d565b600083116115815760405162461bcd60e51b815260206004820152602260248201527f52656e7420616d6f756e74206d7573742062652067726561746572207468616e604482015261020360f41b606482015260840161094d565b600082116115dc5760405162461bcd60e51b815260206004820152602260248201527f52656e7420706572696f64206d7573742062652067726561746572207468616e604482015261020360f41b606482015260840161094d565b604080516080810182529384526020808501938452428583019081526001600160a01b03938416606087019081526000978852600b909252919095209351845591516001840155905160028301559151600390910180546001600160a01b03191691909216179055565b60008061165283611c54565b6001600160a01b0316036116785760405162461bcd60e51b815260040161094d90612bc8565b506000908152600a60205260409020546001600160a01b0316151590565b6116a1848484610cee565b610d73338585858561208d565b60606116b982611c6f565b5060006116d160408051602081019091526000815290565b905060008151116116f1576040518060200160405280600081525061171c565b806116fb846121b8565b60405160200161170c929190612e1a565b6040516020818303038152906040525b9392505050565b60008281526007602052604090206001015461173e81611e4a565b610d738383611ee8565b6000818152600b6020526040902080546117745760405162461bcd60e51b815260040161094d90612df4565b805434146117b75760405162461bcd60e51b815260206004820152601060248201526f125b98dbdc9c9958dd08185b5bdd5b9d60821b604482015260640161094d565b806001015481600201546117cb9190612cc2565b4210156118105760405162461bcd60e51b815260206004820152601360248201527214185e5b595b9d081b9bdd08191d59481e595d606a1b604482015260640161094d565b60038101546001600160a01b0316339081149060009061182f85610f76565b6000868152600c6020908152604080832033845282528083206003845282528083208151606081018352815460ff161515815260018201549381019390935260020154908201526001600160a01b039290921692909214925061189390869061224b565b9050828061189e5750815b806118a65750805b6118f25760405162461bcd60e51b815260206004820152601a60248201527f4e6f7420617574686f72697a656420746f207061792072656e74000000000000604482015260640161094d565b42600285015560038401546040516001600160a01b03909116903480156108fc02916000818181858888f19350505050158015611933573d6000803e3d6000fd5b5060408051348152426020820152339187917fe7b793c2d375aa5934e16873f97e647671990418e9fead32b65a4d41e8fb4d1d910160405180910390a35050505050565b60008061198383611c54565b6001600160a01b0316036119a95760405162461bcd60e51b815260040161094d90612bc8565b506000908152600a60205260409020600101546001600160a01b0316151590565b6000806119d683611c54565b6001600160a01b0316036119fc5760405162461bcd60e51b815260040161094d90612bc8565b506000908152600a60205260409020600201546001600160a01b0316151590565b600080611a2983611c54565b6001600160a01b031603611a4f5760405162461bcd60e51b815260040161094d90612bc8565b6000828152600a60205260409020546001600160a01b031615801590611a8e57506000828152600a60205260409020600101546001600160a01b031615155b80156109165750506000908152600a60205260409020600201546001600160a01b0316151590565b6001600160a01b03918216600090815260056020908152604080832093909416825291909152205460ff1690565b611aec611f6f565b6001600160a01b038116611b1657604051631e4fbdf760e01b81526000600482015260240161094d565b610c2181611f9c565b6000808080611b2d85611c54565b6001600160a01b031603611b535760405162461bcd60e51b815260040161094d90612bc8565b5050506000818152600a6020908152604091829020825160608101845281546001600160a01b039081168083526001840154821694830185905260029093015416930183905293909250565b6000806000611bce7f2876b6444ca73956040d49b0d48b2a7c03b6b34daa638a812177f0309da79c7e8561116b565b611bf87f014df5ee2861d7f34562399ffa112fc59b51f810d2b875c3609ba0c31ac873d08661116b565b611c227f4f3724b2b11e1ff14982c16ee1ccbeeddf1e15256c41dccf7ecbd129a3e5d2768761116b565b9250925092509193909250565b60006001600160e01b03198216637965db0b60e01b1480610916575061091682612296565b6000908152600260205260409020546001600160a01b031690565b600080611c7b83611c54565b90506001600160a01b03811661091657604051637e27328960e01b81526004810184905260240161094d565b610dd183838360016122e6565b600080611cc084611c54565b90506001600160a01b03811615611e3657611cda84611a1d565b611d3c5760405162461bcd60e51b815260206004820152602d60248201527f50726f7065727479206d7573742062652066756c6c79207369676e656420626560448201526c3337b932903a3930b739b332b960991b606482015260840161094d565b6000848152600b60205260409020805415801590611d66575060038101546001600160a01b031615155b15611e345760038101546001600160a01b03908116908716819003611de0576003820180546001600160a01b03191690556000808355600183018190556040516001600160a01b03898116929086169189917f0927cd36eaf31994d6f25027967d99b293949e84275c2251d487508a4873557a91a4611e32565b6003820180546001600160a01b0319166001600160a01b03898116918217909255604051909183169088907f1c5be17a9b2ec118b920226da0f19e0fa2ce801cf386d3af6619fb0cbdd09d7390600090a45b505b505b611e418585856123ec565b95945050505050565b610c2181336124e0565b6000611e60838361116b565b611ee05760008381526007602090815260408083206001600160a01b03861684529091529020805460ff19166001179055611e983390565b6001600160a01b0316826001600160a01b0316847f2f8788117e7eff1d82e926ec794901d17c78024a50270940304540a733656f0d60405160405180910390a4506001610916565b506000610916565b6000611ef4838361116b565b15611ee05760008381526007602090815260408083206001600160a01b0386168085529252808320805460ff1916905551339286917ff6391f5c32d9c69d2a47ea670b442974b53935d1edc7fd64eb21e047a839171b9190a4506001610916565b610cea828260405180602001604052806000815250612519565b6006546001600160a01b031633146110bf5760405163118cdaa760e01b815233600482015260240161094d565b600680546001600160a01b038381166001600160a01b0319831681179093556040519116919082907f8be0079c531659141344cd1fd0a4f28419497f9722a3daafe3b4186f6b6457e090600090a35050565b6001600160a01b03821661202057604051630b61174360e31b81526001600160a01b038316600482015260240161094d565b6001600160a01b03838116600081815260056020908152604080832094871680845294825291829020805460ff191686151590811790915591519182527f17307eab39ab6107e8899845ad3d59bd9653f200f220920489ca2b5937696c31910160405180910390a3505050565b6001600160a01b0383163b156121b157604051630a85bd0160e11b81526001600160a01b0384169063150b7a02906120cf908890889087908790600401612e49565b6020604051808303816000875af192505050801561210a575060408051601f3d908101601f1916820190925261210791810190612e86565b60015b612173573d808015612138576040519150601f19603f3d011682016040523d82523d6000602084013e61213d565b606091505b50805160000361216b57604051633250574960e11b81526001600160a01b038516600482015260240161094d565b805160208201fd5b6001600160e01b03198116630a85bd0160e11b146121af57604051633250574960e11b81526001600160a01b038516600482015260240161094d565b505b5050505050565b606060006121c583612531565b600101905060008167ffffffffffffffff8111156121e5576121e5612914565b6040519080825280601f01601f19166020018201604052801561220f576020820181803683370190505b5090508181016020015b600019016f181899199a1a9b1b9c1cb0b131b232b360811b600a86061a8153600a850494508461221957509392505050565b600061225683610f76565b6001600160a01b0316336001600160a01b0316148061171c575081518015612282575081602001514210155b801561171c57505060400151421115919050565b60006001600160e01b031982166380ac58cd60e01b14806122c757506001600160e01b03198216635b5e139f60e01b145b8061091657506301ffc9a760e01b6001600160e01b0319831614610916565b80806122fa57506001600160a01b03821615155b156123bc57600061230a84611c6f565b90506001600160a01b038316158015906123365750826001600160a01b0316816001600160a01b031614155b801561234957506123478184611ab6565b155b156123725760405163a9fbf51f60e01b81526001600160a01b038416600482015260240161094d565b81156123ba5783856001600160a01b0316826001600160a01b03167f8c5be1e5ebec7d5bd14f71427d1e84f3dd0314c0f7b2291e5b200ac8c7c3b92560405160405180910390a45b505b5050600090815260046020526040902080546001600160a01b0319166001600160a01b0392909216919091179055565b6000806123f884611c54565b90506001600160a01b0383161561241457612414818486612609565b6001600160a01b03811615612452576124316000856000806122e6565b6001600160a01b038116600090815260036020526040902080546000190190555b6001600160a01b03851615612481576001600160a01b0385166000908152600360205260409020805460010190555b60008481526002602052604080822080546001600160a01b0319166001600160a01b0389811691821790925591518793918516917fddf252ad1be2c89b69c2b068fc378daa952ba7f163c4a11628f55a4df523b3ef91a4949350505050565b6124ea828261116b565b610cea5760405163e2517d3f60e01b81526001600160a01b03821660048201526024810183905260440161094d565b612523838361266d565b610dd133600085858561208d565b60008072184f03e93ff9f4daa797ed6e38ed64bf6a1f0160401b83106125705772184f03e93ff9f4daa797ed6e38ed64bf6a1f0160401b830492506040015b6d04ee2d6d415b85acef8100000000831061259c576d04ee2d6d415b85acef8100000000830492506020015b662386f26fc1000083106125ba57662386f26fc10000830492506010015b6305f5e10083106125d2576305f5e100830492506008015b61271083106125e657612710830492506004015b606483106125f8576064830492506002015b600a83106109165760010192915050565b6126148383836126d2565b610dd1576001600160a01b03831661264257604051637e27328960e01b81526004810182905260240161094d565b60405163177e802f60e01b81526001600160a01b03831660048201526024810182905260440161094d565b6001600160a01b03821661269757604051633250574960e11b81526000600482015260240161094d565b60006126a583836000611cb4565b90506001600160a01b03811615610dd1576040516339e3563760e11b81526000600482015260240161094d565b60006001600160a01b038316158015906127305750826001600160a01b0316846001600160a01b0316148061270c575061270c8484611ab6565b8061273057506000828152600460205260409020546001600160a01b038481169116145b949350505050565b6001600160e01b031981168114610c2157600080fd5b60006020828403121561276057600080fd5b813561171c81612738565b60006020828403121561277d57600080fd5b5035919050565b60005b8381101561279f578181015183820152602001612787565b50506000910152565b600081518084526127c0816020860160208601612784565b601f01601f19169290920160200192915050565b60208152600061171c60208301846127a8565b80356001600160a01b03811681146127fe57600080fd5b919050565b6000806040838503121561281657600080fd5b61281f836127e7565b946020939093013593505050565b60008060006060848603121561284257600080fd5b61284b846127e7565b9250612859602085016127e7565b929592945050506040919091013590565b6000806040838503121561287d57600080fd5b8235915061288d602084016127e7565b90509250929050565b8035600481106127fe57600080fd5b803580151581146127fe57600080fd5b60008060008060008060c087890312156128ce57600080fd5b863595506128de602088016127e7565b94506128ec60408801612896565b93506128fa606088016128a5565b9598949750929560808101359460a0909101359350915050565b634e487b7160e01b600052604160045260246000fd5b60008067ffffffffffffffff84111561294557612945612914565b50604051601f19601f85018116603f0116810181811067ffffffffffffffff8211171561297457612974612914565b60405283815290508082840185101561298c57600080fd5b83836020830137600060208583010152509392505050565b600082601f8301126129b557600080fd5b61171c8383356020850161292a565b6000806000606084860312156129d957600080fd5b6129e2846127e7565b9250602084013567ffffffffffffffff8111156129fe57600080fd5b612a0a868287016129a4565b925050604084013567ffffffffffffffff811115612a2757600080fd5b612a33868287016129a4565b9150509250925092565b600060208284031215612a4f57600080fd5b61171c826127e7565b60008060408385031215612a6b57600080fd5b612a74836127e7565b915061288d602084016128a5565b604081526000612a9560408301856127a8565b8281036020840152611e4181856127a8565b60008060008060808587031215612abd57600080fd5b843593506020850135925060408501359150612adb606086016127e7565b905092959194509250565b60008060008060808587031215612afc57600080fd5b612b05856127e7565b9350612b13602086016127e7565b925060408501359150606085013567ffffffffffffffff811115612b3657600080fd5b8501601f81018713612b4757600080fd5b612b568782356020840161292a565b91505092959194509250565b600080600060608486031215612b7757600080fd5b83359250612b87602085016127e7565b9150612b9560408501612896565b90509250925092565b60008060408385031215612bb157600080fd5b612bba836127e7565b915061288d602084016127e7565b602080825260149082015273151bdad95b88191bd95cc81b9bdd08195e1a5cdd60621b604082015260600190565b6020808252600e908201526d105b1c9958591e481cda59db995960921b604082015260600190565b600181811c90821680612c3257607f821691505b602082108103612c5257634e487b7160e01b600052602260045260246000fd5b50919050565b634e487b7160e01b600052602160045260246000fd5b6080810160048610612c9057634e487b7160e01b600052602160045260246000fd5b9481529215156020840152604083019190915260609091015290565b634e487b7160e01b600052601160045260246000fd5b8082018082111561091657610916612cac565b600060018201612ce757612ce7612cac565b5060010190565b601f821115610dd157806000526020600020601f840160051c81016020851015612d155750805b601f840160051c820191505b818110156121b15760008155600101612d21565b815167ffffffffffffffff811115612d4f57612d4f612914565b612d6381612d5d8454612c1e565b84612cee565b6020601f821160018114612d975760008315612d7f5750848201515b600019600385901b1c1916600184901b1784556121b1565b600084815260208120601f198516915b82811015612dc75787850151825560209485019460019092019101612da7565b5084821015612de55786840151600019600387901b60f8161c191681555b50505050600190811b01905550565b6020808252600c908201526b14995b9d081b9bdd081cd95d60a21b604082015260600190565b60008351612e2c818460208801612784565b835190830190612e40818360208801612784565b01949350505050565b6001600160a01b0385811682528416602082015260408101839052608060608201819052600090612e7c908301846127a8565b9695505050505050565b600060208284031215612e9857600080fd5b815161171c8161273856fea26469706673582212207db39cc7fc0fbcee52d7caf053a35a2bf3e711ad5ab7632035d180e379d645fa64736f6c634300081b0033",
  "linkReferences": {},
  "deployedLinkReferences": {}
}