{
  "_format": "hh-sol-artifact-1",
  "contractName": "StampFeeCollector",
  "sourceName": "contracts/StampFeeCollector.sol",
  "abi": [
    {
      "inputs": [
        {
          "internalType": "address",
          "name": "_admin",
          "type": "address"
        }
      ],
      "stateMutability": "nonpayable",
      "type": "constructor"
    },
    {
      "anonymous": false,
      "inputs": [
        {
          "indexed": true,
          "internalType": "address",
          "name": "payer",
          "type": "address"
        },
        {
          "indexed": true,
          "internalType": "uint256",
          "name": "tokenId",
          "type": "uint256"
        },
        {
          "indexed": false,
          "internalType": "uint256",
          "name": "amount",
          "type": "uint256"
        },
        {
          "indexed": false,
          "internalType": "uint256",
          "name": "timestamp",
          "type": "uint256"
        }
      ],
      "name": "StampFeePaid",
      "type": "event"
    },
    {
      "inputs": [],
      "name": "admin",
      "outputs": [
        {
          "internalType": "address",
          "name": "",
          "type": "address"
        }
      ],
      "stateMutability": "view",
      "type": "function"
    },
    {
      "inputs": [
        {
          "internalType": "uint256",
          "name": "tokenId",
          "type": "uint256"
        }
      ],
      "name": "payStampFee",
      "outputs": [],
      "stateMutability": "payable",
      "type": "function"
    },
    {
      "inputs": [
        {
          "internalType": "address",
          "name": "newAdmin",
          "type": "address"
        }
      ],
      "name": "updateAdmin",
      "outputs": [],
      "stateMutability": "nonpayable",
      "type": "function"
    }
  ],
  "bytecode": "0x6080604052348015600f57600080fd5b506040516103e13803806103e1833981016040819052602c9160a9565b6001600160a01b03811660855760405162461bcd60e51b815260206004820152601c60248201527f41646d696e2063616e6e6f74206265207a65726f206164647265737300000000604482015260640160405180910390fd5b600080546001600160a01b0319166001600160a01b039290921691909117905560d7565b60006020828403121560ba57600080fd5b81516001600160a01b038116811460d057600080fd5b9392505050565b6102fb806100e66000396000f3fe6080604052600436106100345760003560e01c8063858396db14610039578063e2f273bd1461004e578063f851a4401461006e575b600080fd5b61004c61004736600461027c565b6100aa565b005b34801561005a57600080fd5b5061004c610069366004610295565b6101c6565b34801561007a57600080fd5b5060005461008e906001600160a01b031681565b6040516001600160a01b03909116815260200160405180910390f35b600034116100ee5760405162461bcd60e51b815260206004820152600c60248201526b119959481c995c5d5a5c995960a21b60448201526064015b60405180910390fd5b600080546040516001600160a01b039091169034908381818185875af1925050503d806000811461013b576040519150601f19603f3d011682016040523d82523d6000602084013e610140565b606091505b50509050806101865760405162461bcd60e51b81526020600482015260126024820152714661696c656420746f2073656e642066656560701b60448201526064016100e5565b60408051348152426020820152839133917f5fbb6f2da03ef110e5dbc9059c9e0a05550dc29fe2a182ddc5ab4361850c9605910160405180910390a35050565b6000546001600160a01b0316331461020d5760405162461bcd60e51b815260206004820152600a60248201526927b7363c9030b236b4b760b11b60448201526064016100e5565b6001600160a01b03811661025a5760405162461bcd60e51b815260206004820152601460248201527341646d696e2063616e6e6f74206265207a65726f60601b60448201526064016100e5565b600080546001600160a01b0319166001600160a01b0392909216919091179055565b60006020828403121561028e57600080fd5b5035919050565b6000602082840312156102a757600080fd5b81356001600160a01b03811681146102be57600080fd5b939250505056fea2646970667358221220ffdc9cb481f863a2cb007fcc048d3c6b3768bf03283b02d7b1ac1b255ef9a79064736f6c634300081b0033",
  "linkReferences": {},
  "deployedLinkReferences": {}
}